{
  "_format": "hh-sol-artifact-1",
  "contractName": "vStorageContract",
  "sourceName": "contracts/vStorage.sol",
  "abi": [
    {
      "inputs": [
        {
          "internalType": "uint256",
          "name": "_dirId",
          "type": "uint256"
        }
      ],
      "name": "addFavoriteDir",
      "outputs": [],
      "stateMutability": "nonpayable",
      "type": "function"
    },
    {
      "inputs": [
        {
          "internalType": "string",
          "name": "_fileId",
          "type": "string"
        }
      ],
      "name": "addFavoriteFile",
      "outputs": [],
      "stateMutability": "nonpayable",
      "type": "function"
    },
    {
      "inputs": [
        {
          "internalType": "uint256",
          "name": "_parentDir",
          "type": "uint256"
        },
        {
          "internalType": "string",
          "name": "_name",
          "type": "string"
        }
      ],
      "name": "createDir",
      "outputs": [],
      "stateMutability": "nonpayable",
      "type": "function"
    },
    {
      "inputs": [
        {
          "internalType": "uint256",
          "name": "",
          "type": "uint256"
        }
      ],
      "name": "dirs",
      "outputs": [
        {
          "internalType": "uint256",
          "name": "id",
          "type": "uint256"
        },
        {
          "internalType": "uint256",
          "name": "parentDir",
          "type": "uint256"
        },
        {
          "internalType": "uint256",
          "name": "updatedAt",
          "type": "uint256"
        },
        {
          "internalType": "bool",
          "name": "isFavorite",
          "type": "bool"
        },
        {
          "internalType": "string",
          "name": "name",
          "type": "string"
        },
        {
          "internalType": "address",
          "name": "owner",
          "type": "address"
        },
        {
          "internalType": "enum Utils.DirectoryColor",
          "name": "color",
          "type": "uint8"
        }
      ],
      "stateMutability": "view",
      "type": "function"
    },
    {
      "inputs": [
        {
          "internalType": "uint256",
          "name": "_dirId",
          "type": "uint256"
        },
        {
          "internalType": "address",
          "name": "_account",
          "type": "address"
        }
      ],
      "name": "getDirFiles",
      "outputs": [
        {
          "components": [
            {
              "internalType": "string",
              "name": "id",
              "type": "string"
            },
            {
              "internalType": "uint256",
              "name": "parentDir",
              "type": "uint256"
            },
            {
              "internalType": "uint256",
              "name": "version",
              "type": "uint256"
            },
            {
              "internalType": "uint256",
              "name": "updatedAt",
              "type": "uint256"
            },
            {
              "internalType": "uint256",
              "name": "size",
              "type": "uint256"
            },
            {
              "internalType": "bool",
              "name": "isFavorite",
              "type": "bool"
            },
            {
              "internalType": "address",
              "name": "owner",
              "type": "address"
            },
            {
              "internalType": "string",
              "name": "name",
              "type": "string"
            },
            {
              "internalType": "string",
              "name": "mimeType",
              "type": "string"
            },
            {
              "internalType": "string",
              "name": "ipfsHash",
              "type": "string"
            },
            {
              "internalType": "string",
              "name": "shareHash",
              "type": "string"
            },
            {
              "internalType": "string[]",
              "name": "versionHistory",
              "type": "string[]"
            }
          ],
          "internalType": "struct vStorageContract.File[]",
          "name": "",
          "type": "tuple[]"
        }
      ],
      "stateMutability": "view",
      "type": "function"
    },
    {
      "inputs": [
        {
          "internalType": "uint256",
          "name": "_dirId",
          "type": "uint256"
        },
        {
          "internalType": "address",
          "name": "_account",
          "type": "address"
        }
      ],
      "name": "getDirSubDirs",
      "outputs": [
        {
          "components": [
            {
              "internalType": "uint256",
              "name": "id",
              "type": "uint256"
            },
            {
              "internalType": "uint256",
              "name": "parentDir",
              "type": "uint256"
            },
            {
              "internalType": "uint256",
              "name": "updatedAt",
              "type": "uint256"
            },
            {
              "internalType": "bool",
              "name": "isFavorite",
              "type": "bool"
            },
            {
              "internalType": "string",
              "name": "name",
              "type": "string"
            },
            {
              "internalType": "address",
              "name": "owner",
              "type": "address"
            },
            {
              "internalType": "enum Utils.DirectoryColor",
              "name": "color",
              "type": "uint8"
            }
          ],
          "internalType": "struct vStorageContract.Directory[]",
          "name": "",
          "type": "tuple[]"
        }
      ],
      "stateMutability": "view",
      "type": "function"
    },
    {
      "inputs": [
        {
          "internalType": "uint256[]",
          "name": "_idList",
          "type": "uint256[]"
        }
      ],
      "name": "removeDirs",
      "outputs": [],
      "stateMutability": "nonpayable",
      "type": "function"
    },
    {
      "inputs": [
        {
          "internalType": "uint256",
          "name": "_dirId",
          "type": "uint256"
        }
      ],
      "name": "removeFavoriteDir",
      "outputs": [],
      "stateMutability": "nonpayable",
      "type": "function"
    },
    {
      "inputs": [
        {
          "internalType": "string",
          "name": "_fileId",
          "type": "string"
        }
      ],
      "name": "removeFavoriteFile",
      "outputs": [],
      "stateMutability": "nonpayable",
      "type": "function"
    },
    {
      "inputs": [
        {
          "internalType": "string[]",
          "name": "_idList",
          "type": "string[]"
        }
      ],
      "name": "removeFiles",
      "outputs": [],
      "stateMutability": "nonpayable",
      "type": "function"
    },
    {
      "inputs": [],
      "name": "totalDirs",
      "outputs": [
        {
          "internalType": "uint256",
          "name": "",
          "type": "uint256"
        }
      ],
      "stateMutability": "view",
      "type": "function"
    },
    {
      "inputs": [
        {
          "internalType": "uint256",
          "name": "_id",
          "type": "uint256"
        },
        {
          "internalType": "uint256",
          "name": "_parentDir",
          "type": "uint256"
        },
        {
          "internalType": "string",
          "name": "_name",
          "type": "string"
        },
        {
          "internalType": "enum Utils.DirectoryColor",
          "name": "_color",
          "type": "uint8"
        }
      ],
      "name": "updateDir",
      "outputs": [],
      "stateMutability": "nonpayable",
      "type": "function"
    },
    {
      "inputs": [
        {
          "internalType": "uint256",
          "name": "_dirId",
          "type": "uint256"
        },
        {
          "components": [
            {
              "internalType": "string",
              "name": "name",
              "type": "string"
            },
            {
              "internalType": "string",
              "name": "ipfsHash",
              "type": "string"
            },
            {
              "internalType": "string",
              "name": "mimeType",
              "type": "string"
            },
            {
              "internalType": "uint256",
              "name": "size",
              "type": "uint256"
            }
          ],
          "internalType": "struct vStorageContract.FileUpload[]",
          "name": "_uploadFiles",
          "type": "tuple[]"
        }
      ],
      "name": "uploadFiles",
      "outputs": [],
      "stateMutability": "nonpayable",
      "type": "function"
    },
    {
      "inputs": [
        {
          "internalType": "address",
          "name": "",
          "type": "address"
        }
      ],
      "name": "userFilesCount",
      "outputs": [
        {
          "internalType": "uint256",
          "name": "",
          "type": "uint256"
        }
      ],
      "stateMutability": "view",
      "type": "function"
    },
    {
      "inputs": [
        {
          "internalType": "address",
          "name": "",
          "type": "address"
        }
      ],
      "name": "userFilesSize",
      "outputs": [
        {
          "internalType": "uint256",
          "name": "",
          "type": "uint256"
        }
      ],
      "stateMutability": "view",
      "type": "function"
    }
  ],
  "bytecode": "0x608060405234801561001057600080fd5b50614c79806100206000396000f3fe608060405234801561001057600080fd5b50600436106100f55760003560e01c80637fa88c8611610097578063accfa76911610066578063accfa76914610286578063dda49e2d146102a2578063df06669a146102d2578063fd21e3de146102ee576100f5565b80637fa88c86146101e8578063907083a21461021e5780639a8229001461023a578063a14171bf14610256576100f5565b80635119a03d116100d35780635119a03d1461016457806355943e6b14610180578063567e9e2e146101b05780637b8501cc146101cc576100f5565b8063040b7bd1146100fa5780632bdd64d41461012a5780632bfb8c3214610146575b600080fd5b610114600480360381019061010f9190613587565b61030a565b604051610121919061393b565b60405180910390f35b610144600480360381019061013f9190613a92565b6108e3565b005b61014e610abc565b60405161015b9190613afd565b60405180910390f35b61017e60048036038101906101799190613be0565b610ac2565b005b61019a60048036038101906101959190613c29565b610ffb565b6040516101a79190613afd565b60405180910390f35b6101ca60048036038101906101c59190613c56565b611013565b005b6101e660048036038101906101e19190613c56565b6111fb565b005b61020260048036038101906101fd9190613c56565b611342565b6040516102159796959493929190613d62565b60405180910390f35b61023860048036038101906102339190613eb9565b611446565b005b610254600480360381019061024f9190613f27565b6118b2565b005b610270600480360381019061026b9190613c29565b6119a9565b60405161027d9190613afd565b60405180910390f35b6102a0600480360381019061029b9190613faa565b6119c1565b005b6102bc60048036038101906102b79190613587565b611b1f565b6040516102c99190614160565b60405180910390f35b6102ec60048036038101906102e79190613faa565b611dfd565b005b61030860048036038101906103039190614339565b612079565b005b60606000600460008473ffffffffffffffffffffffffffffffffffffffff1673ffffffffffffffffffffffffffffffffffffffff168152602001908152602001600020600085815260200190815260200160002080549050905060008167ffffffffffffffff8111156103805761037f613967565b5b6040519080825280602002602001820160405280156103b957816020015b6103a6613304565b81526020019060019003908161039e5790505b50905060005b828110156108d7576002600460008773ffffffffffffffffffffffffffffffffffffffff1673ffffffffffffffffffffffffffffffffffffffff1681526020019081526020016000206000888152602001908152602001600020828154811061042b5761042a614395565b5b9060005260206000200160405161044291906144c7565b90815260200160405180910390206040518061018001604052908160008201805461046c906143f3565b80601f0160208091040260200160405190810160405280929190818152602001828054610498906143f3565b80156104e55780601f106104ba576101008083540402835291602001916104e5565b820191906000526020600020905b8154815290600101906020018083116104c857829003601f168201915b50505050508152602001600182015481526020016002820154815260200160038201548152602001600482015481526020016005820160009054906101000a900460ff161515151581526020016005820160019054906101000a900473ffffffffffffffffffffffffffffffffffffffff1673ffffffffffffffffffffffffffffffffffffffff1673ffffffffffffffffffffffffffffffffffffffff168152602001600682018054610597906143f3565b80601f01602080910402602001604051908101604052809291908181526020018280546105c3906143f3565b80156106105780601f106105e557610100808354040283529160200191610610565b820191906000526020600020905b8154815290600101906020018083116105f357829003601f168201915b50505050508152602001600782018054610629906143f3565b80601f0160208091040260200160405190810160405280929190818152602001828054610655906143f3565b80156106a25780601f10610677576101008083540402835291602001916106a2565b820191906000526020600020905b81548152906001019060200180831161068557829003601f168201915b505050505081526020016008820180546106bb906143f3565b80601f01602080910402602001604051908101604052809291908181526020018280546106e7906143f3565b80156107345780601f1061070957610100808354040283529160200191610734565b820191906000526020600020905b81548152906001019060200180831161071757829003601f168201915b5050505050815260200160098201805461074d906143f3565b80601f0160208091040260200160405190810160405280929190818152602001828054610779906143f3565b80156107c65780601f1061079b576101008083540402835291602001916107c6565b820191906000526020600020905b8154815290600101906020018083116107a957829003601f168201915b50505050508152602001600a8201805480602002602001604051908101604052809291908181526020016000905b828210156108a0578382906000526020600020018054610813906143f3565b80601f016020809104026020016040519081016040528092919081815260200182805461083f906143f3565b801561088c5780601f106108615761010080835404028352916020019161088c565b820191906000526020600020905b81548152906001019060200180831161086f57829003601f168201915b5050505050815260200190600101906107f4565b50505050815250508282815181106108bb576108ba614395565b5b6020026020010181905250806108d09061450d565b90506103bf565b50809250505092915050565b60016000808282546108f59190614555565b925050819055506040518060e0016040528060005481526020018381526020014281526020016000151581526020018281526020013373ffffffffffffffffffffffffffffffffffffffff1681526020016000600781111561095a57610959613ceb565b5b815250600160008054815260200190815260200160002060008201518160000155602082015181600101556040820151816002015560608201518160030160006101000a81548160ff02191690831515021790555060808201518160040190816109c49190614720565b5060a08201518160050160006101000a81548173ffffffffffffffffffffffffffffffffffffffff021916908373ffffffffffffffffffffffffffffffffffffffff16021790555060c08201518160050160146101000a81548160ff02191690836007811115610a3757610a36613ceb565b5b0217905550905050600360003373ffffffffffffffffffffffffffffffffffffffff1673ffffffffffffffffffffffffffffffffffffffff168152602001908152602001600020600083815260200190815260200160002060005490806001815401808255809150506001900390600052602060002001600090919091909150555050565b60005481565b60005b8151811015610ff7576000828281518110610ae357610ae2614395565b5b602002602001015111610b2b576040517f08c379a0000000000000000000000000000000000000000000000000000000008152600401610b229061483e565b60405180910390fd5b600060016000848481518110610b4457610b43614395565b5b6020026020010151815260200190815260200160002090503373ffffffffffffffffffffffffffffffffffffffff168160050160009054906101000a900473ffffffffffffffffffffffffffffffffffffffff1673ffffffffffffffffffffffffffffffffffffffff1614610bee576040517f08c379a0000000000000000000000000000000000000000000000000000000008152600401610be5906148aa565b60405180910390fd5b610c4f600360003373ffffffffffffffffffffffffffffffffffffffff1673ffffffffffffffffffffffffffffffffffffffff1681526020019081526020016000206000836001015481526020019081526020016000208260000154612994565b8060030160009054906101000a900460ff1615610cb357610cb2600660003373ffffffffffffffffffffffffffffffffffffffff1673ffffffffffffffffffffffffffffffffffffffff1681526020019081526020016000208260000154612994565b5b6000600360003373ffffffffffffffffffffffffffffffffffffffff1673ffffffffffffffffffffffffffffffffffffffff1681526020019081526020016000206000858581518110610d0957610d08614395565b5b60200260200101518152602001908152602001600020805480602002602001604051908101604052809291908181526020018280548015610d6957602002820191906000526020600020905b815481526020019060010190808311610d55575b50505050509050600081511115610d8457610d8381610ac2565b5b6000600460003373ffffffffffffffffffffffffffffffffffffffff1673ffffffffffffffffffffffffffffffffffffffff1681526020019081526020016000206000868681518110610dda57610dd9614395565b5b60200260200101518152602001908152602001600020805490501115610f3d57610f3c600460003373ffffffffffffffffffffffffffffffffffffffff1673ffffffffffffffffffffffffffffffffffffffff1681526020019081526020016000206000868681518110610e5157610e50614395565b5b60200260200101518152602001908152602001600020805480602002602001604051908101604052809291908181526020016000905b82821015610f33578382906000526020600020018054610ea6906143f3565b80601f0160208091040260200160405190810160405280929190818152602001828054610ed2906143f3565b8015610f1f5780601f10610ef457610100808354040283529160200191610f1f565b820191906000526020600020905b815481529060010190602001808311610f0257829003601f168201915b505050505081526020019060010190610e87565b50505050611446565b5b60016000858581518110610f5457610f53614395565b5b60200260200101518152602001908152602001600020600080820160009055600182016000905560028201600090556003820160006101000a81549060ff0219169055600482016000610fa7919061337d565b6005820160006101000a81549073ffffffffffffffffffffffffffffffffffffffff02191690556005820160146101000a81549060ff02191690555050505080610ff09061450d565b9050610ac5565b5050565b60086020528060005260406000206000915090505481565b60006001600083815260200190815260200160002090503373ffffffffffffffffffffffffffffffffffffffff168160050160009054906101000a900473ffffffffffffffffffffffffffffffffffffffff1673ffffffffffffffffffffffffffffffffffffffff16146110bc576040517f08c379a00000000000000000000000000000000000000000000000000000000081526004016110b3906148aa565b60405180910390fd5b8060030160009054906101000a900460ff16156111f75760008061116d600660003373ffffffffffffffffffffffffffffffffffffffff1673ffffffffffffffffffffffffffffffffffffffff16815260200190815260200160002080548060200260200160405190810160405280929190818152602001828054801561116257602002820191906000526020600020905b81548152602001906001019080831161114e575b505050505085612a85565b9150915080156111d757600660003373ffffffffffffffffffffffffffffffffffffffff1673ffffffffffffffffffffffffffffffffffffffff16815260200190815260200160002082815481106111c8576111c7614395565b5b90600052602060002001600090555b60008360030160006101000a81548160ff02191690831515021790555050505b5050565b60006001600083815260200190815260200160002090503373ffffffffffffffffffffffffffffffffffffffff168160050160009054906101000a900473ffffffffffffffffffffffffffffffffffffffff1673ffffffffffffffffffffffffffffffffffffffff16146112a4576040517f08c379a000000000000000000000000000000000000000000000000000000000815260040161129b906148aa565b60405180910390fd5b8060030160009054906101000a900460ff1661133e57600660003373ffffffffffffffffffffffffffffffffffffffff1673ffffffffffffffffffffffffffffffffffffffff16815260200190815260200160002082908060018154018082558091505060019003906000526020600020016000909190919091505560018160030160006101000a81548160ff0219169083151502179055505b5050565b60016020528060005260406000206000915090508060000154908060010154908060020154908060030160009054906101000a900460ff169080600401805461138a906143f3565b80601f01602080910402602001604051908101604052809291908181526020018280546113b6906143f3565b80156114035780601f106113d857610100808354040283529160200191611403565b820191906000526020600020905b8154815290600101906020018083116113e657829003601f168201915b5050505050908060050160009054906101000a900473ffffffffffffffffffffffffffffffffffffffff16908060050160149054906101000a900460ff16905087565b60005b81518110156118ae576000600283838151811061146957611468614395565b5b602002602001015160405161147e91906148fb565b908152602001604051809103902090503373ffffffffffffffffffffffffffffffffffffffff168160050160019054906101000a900473ffffffffffffffffffffffffffffffffffffffff1673ffffffffffffffffffffffffffffffffffffffff1614611520576040517f08c379a0000000000000000000000000000000000000000000000000000000008152600401611517906148aa565b60405180910390fd5b611609600460003373ffffffffffffffffffffffffffffffffffffffff1673ffffffffffffffffffffffffffffffffffffffff168152602001908152602001600020600083600101548152602001908152602001600020826000018054611586906143f3565b80601f01602080910402602001604051908101604052809291908181526020018280546115b2906143f3565b80156115ff5780601f106115d4576101008083540402835291602001916115ff565b820191906000526020600020905b8154815290600101906020018083116115e257829003601f168201915b5050505050612ae3565b8060050160009054906101000a900460ff16156116f5576116f4600560003373ffffffffffffffffffffffffffffffffffffffff1673ffffffffffffffffffffffffffffffffffffffff168152602001908152602001600020826000018054611671906143f3565b80601f016020809104026020016040519081016040528092919081815260200182805461169d906143f3565b80156116ea5780601f106116bf576101008083540402835291602001916116ea565b820191906000526020600020905b8154815290600101906020018083116116cd57829003601f168201915b5050505050612ae3565b5b6001600760003373ffffffffffffffffffffffffffffffffffffffff1673ffffffffffffffffffffffffffffffffffffffff16815260200190815260200160002060008282546117459190614912565b925050819055508060040154600860003373ffffffffffffffffffffffffffffffffffffffff1673ffffffffffffffffffffffffffffffffffffffff168152602001908152602001600020600082825461179f9190614912565b9250508190555060028383815181106117bb576117ba614395565b5b60200260200101516040516117d091906148fb565b9081526020016040518091039020600080820160006117ef919061337d565b60018201600090556002820160009055600382016000905560048201600090556005820160006101000a81549060ff02191690556005820160016101000a81549073ffffffffffffffffffffffffffffffffffffffff021916905560068201600061185a919061337d565b60078201600061186a919061337d565b60088201600061187a919061337d565b60098201600061188a919061337d565b600a8201600061189a91906133bd565b505050806118a79061450d565b9050611449565b5050565b60006001600086815260200190815260200160002090503373ffffffffffffffffffffffffffffffffffffffff168160050160009054906101000a900473ffffffffffffffffffffffffffffffffffffffff1673ffffffffffffffffffffffffffffffffffffffff161461195b576040517f08c379a0000000000000000000000000000000000000000000000000000000008152600401611952906148aa565b60405180910390fd5b838160010181905550828160040190816119759190614720565b50818160050160146101000a81548160ff0219169083600781111561199d5761199c613ceb565b5b02179055505050505050565b60076020528060005260406000206000915090505481565b60006002826040516119d391906148fb565b908152602001604051809103902090503373ffffffffffffffffffffffffffffffffffffffff168160050160019054906101000a900473ffffffffffffffffffffffffffffffffffffffff1673ffffffffffffffffffffffffffffffffffffffff1614611a75576040517f08c379a0000000000000000000000000000000000000000000000000000000008152600401611a6c906148aa565b60405180910390fd5b8060050160009054906101000a900460ff16611b1b57600560003373ffffffffffffffffffffffffffffffffffffffff1673ffffffffffffffffffffffffffffffffffffffff16815260200190815260200160002082908060018154018082558091505060019003906000526020600020016000909190919091509081611afc9190614720565b5060018160050160006101000a81548160ff0219169083151502179055505b5050565b60606000600360008473ffffffffffffffffffffffffffffffffffffffff1673ffffffffffffffffffffffffffffffffffffffff168152602001908152602001600020600085815260200190815260200160002080549050905060008167ffffffffffffffff811115611b9557611b94613967565b5b604051908082528060200260200182016040528015611bce57816020015b611bbb6133de565b815260200190600190039081611bb35790505b50905060005b82811015611df15760016000600360008873ffffffffffffffffffffffffffffffffffffffff1673ffffffffffffffffffffffffffffffffffffffff16815260200190815260200160002060008981526020019081526020016000208381548110611c4257611c41614395565b5b906000526020600020015481526020019081526020016000206040518060e00160405290816000820154815260200160018201548152602001600282015481526020016003820160009054906101000a900460ff16151515158152602001600482018054611caf906143f3565b80601f0160208091040260200160405190810160405280929190818152602001828054611cdb906143f3565b8015611d285780601f10611cfd57610100808354040283529160200191611d28565b820191906000526020600020905b815481529060010190602001808311611d0b57829003601f168201915b505050505081526020016005820160009054906101000a900473ffffffffffffffffffffffffffffffffffffffff1673ffffffffffffffffffffffffffffffffffffffff1673ffffffffffffffffffffffffffffffffffffffff1681526020016005820160149054906101000a900460ff166007811115611dac57611dab613ceb565b5b6007811115611dbe57611dbd613ceb565b5b81525050828281518110611dd557611dd4614395565b5b602002602001018190525080611dea9061450d565b9050611bd4565b50809250505092915050565b6000600282604051611e0f91906148fb565b908152602001604051809103902090503373ffffffffffffffffffffffffffffffffffffffff168160050160019054906101000a900473ffffffffffffffffffffffffffffffffffffffff1673ffffffffffffffffffffffffffffffffffffffff1614611eb1576040517f08c379a0000000000000000000000000000000000000000000000000000000008152600401611ea8906148aa565b60405180910390fd5b8060050160009054906101000a900460ff161561207557600080611fe3600560003373ffffffffffffffffffffffffffffffffffffffff1673ffffffffffffffffffffffffffffffffffffffff168152602001908152602001600020805480602002602001604051908101604052809291908181526020016000905b82821015611fd9578382906000526020600020018054611f4c906143f3565b80601f0160208091040260200160405190810160405280929190818152602001828054611f78906143f3565b8015611fc55780601f10611f9a57610100808354040283529160200191611fc5565b820191906000526020600020905b815481529060010190602001808311611fa857829003601f168201915b505050505081526020019060010190611f2d565b5050505085612c65565b91509150801561205557600560003373ffffffffffffffffffffffffffffffffffffffff1673ffffffffffffffffffffffffffffffffffffffff168152602001908152602001600020828154811061203e5761203d614395565b5b906000526020600020016000612054919061337d565b5b60008360050160006101000a81548160ff02191690831515021790555050505b5050565b600061209c3373ffffffffffffffffffffffffffffffffffffffff166014612ccd565b905060008311156122e1576000600160008581526020019081526020016000206040518060e00160405290816000820154815260200160018201548152602001600282015481526020016003820160009054906101000a900460ff16151515158152602001600482018054612110906143f3565b80601f016020809104026020016040519081016040528092919081815260200182805461213c906143f3565b80156121895780601f1061215e57610100808354040283529160200191612189565b820191906000526020600020905b81548152906001019060200180831161216c57829003601f168201915b505050505081526020016005820160009054906101000a900473ffffffffffffffffffffffffffffffffffffffff1673ffffffffffffffffffffffffffffffffffffffff1673ffffffffffffffffffffffffffffffffffffffff1681526020016005820160149054906101000a900460ff16600781111561220d5761220c613ceb565b5b600781111561221f5761221e613ceb565b5b81525050905060008160800151511161226d576040517f08c379a000000000000000000000000000000000000000000000000000000000815260040161226490614992565b60405180910390fd5b8060a0015173ffffffffffffffffffffffffffffffffffffffff163373ffffffffffffffffffffffffffffffffffffffff16146122df576040517f08c379a00000000000000000000000000000000000000000000000000000000081526004016122d6906148aa565b60405180910390fd5b505b60005b825181101561298e576000826122f986612f09565b85848151811061230c5761230b614395565b5b60200260200101516000015160405160200161232a939291906149b2565b6040516020818303038152906040529050600060028260405161234d91906148fb565b90815260200160405180910390209050600081600001805461236e906143f3565b90501115612591573373ffffffffffffffffffffffffffffffffffffffff168160050160019054906101000a900473ffffffffffffffffffffffffffffffffffffffff1673ffffffffffffffffffffffffffffffffffffffff1614612408576040517f08c379a00000000000000000000000000000000000000000000000000000000081526004016123ff906148aa565b60405180910390fd5b8060040154600860003373ffffffffffffffffffffffffffffffffffffffff1673ffffffffffffffffffffffffffffffffffffffff168152602001908152602001600020600082825461245b9190614912565b9250508190555084838151811061247557612474614395565b5b602002602001015160600151600860003373ffffffffffffffffffffffffffffffffffffffff1673ffffffffffffffffffffffffffffffffffffffff16815260200190815260200160002060008282546124cf9190614555565b9250508190555060018160020160008282546124eb9190614555565b9250508190555084838151811061250557612504614395565b5b602002602001015160600151816004018190555080600a01816008019080600181540180825580915050600190039060005260206000200160009091909190915090816125529190614a0e565b5084838151811061256657612565614395565b5b6020026020010151602001518160080190816125829190614720565b50428160030181905550612960565b604051806101800160405280838152602001878152602001600181526020014281526020018685815181106125c9576125c8614395565b5b60200260200101516060015181526020016000151581526020013373ffffffffffffffffffffffffffffffffffffffff16815260200186858151811061261257612611614395565b5b602002602001015160000151815260200186858151811061263657612635614395565b5b602002602001015160400151815260200186858151811061265a57612659614395565b5b6020026020010151602001518152602001604051806020016040528060008152508152602001600067ffffffffffffffff81111561269b5761269a613967565b5b6040519080825280602002602001820160405280156126ce57816020015b60608152602001906001900390816126b95790505b508152506002836040516126e291906148fb565b908152602001604051809103902060008201518160000190816127059190614720565b506020820151816001015560408201518160020155606082015181600301556080820151816004015560a08201518160050160006101000a81548160ff02191690831515021790555060c08201518160050160016101000a81548173ffffffffffffffffffffffffffffffffffffffff021916908373ffffffffffffffffffffffffffffffffffffffff16021790555060e08201518160060190816127aa9190614720565b506101008201518160070190816127c19190614720565b506101208201518160080190816127d89190614720565b506101408201518160090190816127ef9190614720565b5061016082015181600a01908051906020019061280d929190613445565b50905050600460003373ffffffffffffffffffffffffffffffffffffffff1673ffffffffffffffffffffffffffffffffffffffff1681526020019081526020016000206000878152602001908152602001600020829080600181540180825580915050600190039060005260206000200160009091909190915090816128939190614720565b506001600760003373ffffffffffffffffffffffffffffffffffffffff1673ffffffffffffffffffffffffffffffffffffffff16815260200190815260200160002060008282546128e49190614555565b925050819055508483815181106128fe576128fd614395565b5b602002602001015160600151600860003373ffffffffffffffffffffffffffffffffffffffff1673ffffffffffffffffffffffffffffffffffffffff16815260200190815260200160002060008282546129589190614555565b925050819055505b4260016000888152602001908152602001600020600201819055505050806129879061450d565b90506122e4565b50505050565b6000806129f0848054806020026020016040519081016040528092919081815260200182805480156129e557602002820191906000526020600020905b8154815260200190600101908083116129d1575b505050505084612a85565b915091508015612a7f57600184805490501115612a57578360018580549050612a199190614912565b81548110612a2a57612a29614395565b5b9060005260206000200154848381548110612a4857612a47614395565b5b90600052602060002001819055505b83805480612a6857612a67614af6565b5b600190038181906000526020600020016000905590555b50505050565b60008060005b8451811015612ad35783858281518110612aa857612aa7614395565b5b602002602001015103612ac2578060019250925050612adc565b80612acc9061450d565b9050612a8b565b50600080915091505b9250929050565b600080612bc084805480602002602001604051908101604052809291908181526020016000905b82821015612bb6578382906000526020600020018054612b29906143f3565b80601f0160208091040260200160405190810160405280929190818152602001828054612b55906143f3565b8015612ba25780601f10612b7757610100808354040283529160200191612ba2565b820191906000526020600020905b815481529060010190602001808311612b8557829003601f168201915b505050505081526020019060010190612b0a565b5050505084612c65565b915091508015612c5f57600184805490501115612c2f578360018580549050612be99190614912565b81548110612bfa57612bf9614395565b5b90600052602060002001848381548110612c1757612c16614395565b5b906000526020600020019081612c2d9190614a0e565b505b83805480612c4057612c3f614af6565b5b600190038181906000526020600020016000612c5c919061337d565b90555b50505050565b60008060005b8451811015612cbd576000612c9a868381518110612c8c57612c8b614395565b5b602002602001015186612fd7565b03612cac578060019250925050612cc6565b80612cb69061450d565b9050612c6b565b50600080915091505b9250929050565b606060006002836002612ce09190614b25565b612cea9190614555565b67ffffffffffffffff811115612d0357612d02613967565b5b6040519080825280601f01601f191660200182016040528015612d355781602001600182028036833780820191505090505b5090507f300000000000000000000000000000000000000000000000000000000000000081600081518110612d6d57612d6c614395565b5b60200101907effffffffffffffffffffffffffffffffffffffffffffffffffffffffffffff1916908160001a9053507f780000000000000000000000000000000000000000000000000000000000000081600181518110612dd157612dd0614395565b5b60200101907effffffffffffffffffffffffffffffffffffffffffffffffffffffffffffff1916908160001a90535060006001846002612e119190614b25565b612e1b9190614555565b90505b6001811115612ebb577f3031323334353637383961626364656600000000000000000000000000000000600f861660108110612e5d57612e5c614395565b5b1a60f81b828281518110612e7457612e73614395565b5b60200101907effffffffffffffffffffffffffffffffffffffffffffffffffffffffffffff1916908160001a905350600485901c945080612eb490614b7f565b9050612e1e565b5060008414612eff576040517f08c379a0000000000000000000000000000000000000000000000000000000008152600401612ef690614bf4565b60405180910390fd5b8091505092915050565b606060006001612f18846131b1565b01905060008167ffffffffffffffff811115612f3757612f36613967565b5b6040519080825280601f01601f191660200182016040528015612f695781602001600182028036833780820191505090505b509050600082602001820190505b600115612fcc578080600190039150507f3031323334353637383961626364656600000000000000000000000000000000600a86061a8153600a8581612fc057612fbf614c14565b5b04945060008503612f77575b819350505050919050565b60008083905060008390506000825190508082511015612ff657815190505b60005b818110156131575782818151811061301457613013614395565b5b602001015160f81c60f81b7effffffffffffffffffffffffffffffffffffffffffffffffffffffffffffff191684828151811061305457613053614395565b5b602001015160f81c60f81b7effffffffffffffffffffffffffffffffffffffffffffffffffffffffffffff191610156130b3577fffffffffffffffffffffffffffffffffffffffffffffffffffffffffffffffff9450505050506131ab565b8281815181106130c6576130c5614395565b5b602001015160f81c60f81b7effffffffffffffffffffffffffffffffffffffffffffffffffffffffffffff191684828151811061310657613105614395565b5b602001015160f81c60f81b7effffffffffffffffffffffffffffffffffffffffffffffffffffffffffffff191611156131465760019450505050506131ab565b806131509061450d565b9050612ff9565b5081518351101561318d577fffffffffffffffffffffffffffffffffffffffffffffffffffffffffffffffff93505050506131ab565b8151835111156131a357600193505050506131ab565b600093505050505b92915050565b600080600090507a184f03e93ff9f4daa797ed6e38ed64bf6a1f010000000000000000831061320f577a184f03e93ff9f4daa797ed6e38ed64bf6a1f010000000000000000838161320557613204614c14565b5b0492506040810190505b6d04ee2d6d415b85acef8100000000831061324c576d04ee2d6d415b85acef8100000000838161324257613241614c14565b5b0492506020810190505b662386f26fc10000831061327b57662386f26fc10000838161327157613270614c14565b5b0492506010810190505b6305f5e10083106132a4576305f5e100838161329a57613299614c14565b5b0492506008810190505b61271083106132c95761271083816132bf576132be614c14565b5b0492506004810190505b606483106132ec57606483816132e2576132e1614c14565b5b0492506002810190505b600a83106132fb576001810190505b80915050919050565b6040518061018001604052806060815260200160008152602001600081526020016000815260200160008152602001600015158152602001600073ffffffffffffffffffffffffffffffffffffffff16815260200160608152602001606081526020016060815260200160608152602001606081525090565b508054613389906143f3565b6000825580601f1061339b57506133ba565b601f0160209004906000526020600020908101906133b9919061349e565b5b50565b50805460008255906000526020600020908101906133db91906134bb565b50565b6040518060e0016040528060008152602001600081526020016000815260200160001515815260200160608152602001600073ffffffffffffffffffffffffffffffffffffffff1681526020016000600781111561343f5761343e613ceb565b5b81525090565b82805482825590600052602060002090810192821561348d579160200282015b8281111561348c57825182908161347c9190614720565b5091602001919060010190613465565b5b50905061349a91906134bb565b5090565b5b808211156134b757600081600090555060010161349f565b5090565b5b808211156134db57600081816134d2919061337d565b506001016134bc565b5090565b6000604051905090565b600080fd5b600080fd5b6000819050919050565b613506816134f3565b811461351157600080fd5b50565b600081359050613523816134fd565b92915050565b600073ffffffffffffffffffffffffffffffffffffffff82169050919050565b600061355482613529565b9050919050565b61356481613549565b811461356f57600080fd5b50565b6000813590506135818161355b565b92915050565b6000806040838503121561359e5761359d6134e9565b5b60006135ac85828601613514565b92505060206135bd85828601613572565b9150509250929050565b600081519050919050565b600082825260208201905092915050565b6000819050602082019050919050565b600081519050919050565b600082825260208201905092915050565b60005b8381101561362d578082015181840152602081019050613612565b60008484015250505050565b6000601f19601f8301169050919050565b6000613655826135f3565b61365f81856135fe565b935061366f81856020860161360f565b61367881613639565b840191505092915050565b61368c816134f3565b82525050565b60008115159050919050565b6136a781613692565b82525050565b6136b681613549565b82525050565b600081519050919050565b600082825260208201905092915050565b6000819050602082019050919050565b60006136f4838361364a565b905092915050565b6000602082019050919050565b6000613714826136bc565b61371e81856136c7565b935083602082028501613730856136d8565b8060005b8581101561376c578484038952815161374d85826136e8565b9450613758836136fc565b925060208a01995050600181019050613734565b50829750879550505050505092915050565b600061018083016000830151848203600086015261379c828261364a565b91505060208301516137b16020860182613683565b5060408301516137c46040860182613683565b5060608301516137d76060860182613683565b5060808301516137ea6080860182613683565b5060a08301516137fd60a086018261369e565b5060c083015161381060c08601826136ad565b5060e083015184820360e0860152613828828261364a565b915050610100830151848203610100860152613844828261364a565b915050610120830151848203610120860152613860828261364a565b91505061014083015184820361014086015261387c828261364a565b9150506101608301518482036101608601526138988282613709565b9150508091505092915050565b60006138b1838361377e565b905092915050565b6000602082019050919050565b60006138d1826135c7565b6138db81856135d2565b9350836020820285016138ed856135e3565b8060005b85811015613929578484038952815161390a85826138a5565b9450613915836138b9565b925060208a019950506001810190506138f1565b50829750879550505050505092915050565b6000602082019050818103600083015261395581846138c6565b905092915050565b600080fd5b600080fd5b7f4e487b7100000000000000000000000000000000000000000000000000000000600052604160045260246000fd5b61399f82613639565b810181811067ffffffffffffffff821117156139be576139bd613967565b5b80604052505050565b60006139d16134df565b90506139dd8282613996565b919050565b600067ffffffffffffffff8211156139fd576139fc613967565b5b613a0682613639565b9050602081019050919050565b82818337600083830152505050565b6000613a35613a30846139e2565b6139c7565b905082815260208101848484011115613a5157613a50613962565b5b613a5c848285613a13565b509392505050565b600082601f830112613a7957613a7861395d565b5b8135613a89848260208601613a22565b91505092915050565b60008060408385031215613aa957613aa86134e9565b5b6000613ab785828601613514565b925050602083013567ffffffffffffffff811115613ad857613ad76134ee565b5b613ae485828601613a64565b9150509250929050565b613af7816134f3565b82525050565b6000602082019050613b126000830184613aee565b92915050565b600067ffffffffffffffff821115613b3357613b32613967565b5b602082029050602081019050919050565b600080fd5b6000613b5c613b5784613b18565b6139c7565b90508083825260208201905060208402830185811115613b7f57613b7e613b44565b5b835b81811015613ba85780613b948882613514565b845260208401935050602081019050613b81565b5050509392505050565b600082601f830112613bc757613bc661395d565b5b8135613bd7848260208601613b49565b91505092915050565b600060208284031215613bf657613bf56134e9565b5b600082013567ffffffffffffffff811115613c1457613c136134ee565b5b613c2084828501613bb2565b91505092915050565b600060208284031215613c3f57613c3e6134e9565b5b6000613c4d84828501613572565b91505092915050565b600060208284031215613c6c57613c6b6134e9565b5b6000613c7a84828501613514565b91505092915050565b613c8c81613692565b82525050565b600082825260208201905092915050565b6000613cae826135f3565b613cb88185613c92565b9350613cc881856020860161360f565b613cd181613639565b840191505092915050565b613ce581613549565b82525050565b7f4e487b7100000000000000000000000000000000000000000000000000000000600052602160045260246000fd5b60088110613d2b57613d2a613ceb565b5b50565b6000819050613d3c82613d1a565b919050565b6000613d4c82613d2e565b9050919050565b613d5c81613d41565b82525050565b600060e082019050613d77600083018a613aee565b613d846020830189613aee565b613d916040830188613aee565b613d9e6060830187613c83565b8181036080830152613db08186613ca3565b9050613dbf60a0830185613cdc565b613dcc60c0830184613d53565b98975050505050505050565b600067ffffffffffffffff821115613df357613df2613967565b5b602082029050602081019050919050565b6000613e17613e1284613dd8565b6139c7565b90508083825260208201905060208402830185811115613e3a57613e39613b44565b5b835b81811015613e8157803567ffffffffffffffff811115613e5f57613e5e61395d565b5b808601613e6c8982613a64565b85526020850194505050602081019050613e3c565b5050509392505050565b600082601f830112613ea057613e9f61395d565b5b8135613eb0848260208601613e04565b91505092915050565b600060208284031215613ecf57613ece6134e9565b5b600082013567ffffffffffffffff811115613eed57613eec6134ee565b5b613ef984828501613e8b565b91505092915050565b60088110613f0f57600080fd5b50565b600081359050613f2181613f02565b92915050565b60008060008060808587031215613f4157613f406134e9565b5b6000613f4f87828801613514565b9450506020613f6087828801613514565b935050604085013567ffffffffffffffff811115613f8157613f806134ee565b5b613f8d87828801613a64565b9250506060613f9e87828801613f12565b91505092959194509250565b600060208284031215613fc057613fbf6134e9565b5b600082013567ffffffffffffffff811115613fde57613fdd6134ee565b5b613fea84828501613a64565b91505092915050565b600081519050919050565b600082825260208201905092915050565b6000819050602082019050919050565b61402881613d41565b82525050565b600060e0830160008301516140466000860182613683565b5060208301516140596020860182613683565b50604083015161406c6040860182613683565b50606083015161407f606086018261369e565b5060808301518482036080860152614097828261364a565b91505060a08301516140ac60a08601826136ad565b5060c08301516140bf60c086018261401f565b508091505092915050565b60006140d6838361402e565b905092915050565b6000602082019050919050565b60006140f682613ff3565b6141008185613ffe565b9350836020820285016141128561400f565b8060005b8581101561414e578484038952815161412f85826140ca565b945061413a836140de565b925060208a01995050600181019050614116565b50829750879550505050505092915050565b6000602082019050818103600083015261417a81846140eb565b905092915050565b600067ffffffffffffffff82111561419d5761419c613967565b5b602082029050602081019050919050565b600080fd5b600080fd5b6000608082840312156141ce576141cd6141ae565b5b6141d860806139c7565b9050600082013567ffffffffffffffff8111156141f8576141f76141b3565b5b61420484828501613a64565b600083015250602082013567ffffffffffffffff811115614228576142276141b3565b5b61423484828501613a64565b602083015250604082013567ffffffffffffffff811115614258576142576141b3565b5b61426484828501613a64565b604083015250606061427884828501613514565b60608301525092915050565b600061429761429284614182565b6139c7565b905080838252602082019050602084028301858111156142ba576142b9613b44565b5b835b8181101561430157803567ffffffffffffffff8111156142df576142de61395d565b5b8086016142ec89826141b8565b855260208501945050506020810190506142bc565b5050509392505050565b600082601f8301126143205761431f61395d565b5b8135614330848260208601614284565b91505092915050565b600080604083850312156143505761434f6134e9565b5b600061435e85828601613514565b925050602083013567ffffffffffffffff81111561437f5761437e6134ee565b5b61438b8582860161430b565b9150509250929050565b7f4e487b7100000000000000000000000000000000000000000000000000000000600052603260045260246000fd5b7f4e487b7100000000000000000000000000000000000000000000000000000000600052602260045260246000fd5b6000600282049050600182168061440b57607f821691505b60208210810361441e5761441d6143c4565b5b50919050565b600081905092915050565b60008190508160005260206000209050919050565b60008154614451816143f3565b61445b8186614424565b94506001821660008114614476576001811461448b576144be565b60ff19831686528115158202860193506144be565b6144948561442f565b60005b838110156144b657815481890152600182019150602081019050614497565b838801955050505b50505092915050565b60006144d38284614444565b915081905092915050565b7f4e487b7100000000000000000000000000000000000000000000000000000000600052601160045260246000fd5b6000614518826134f3565b91507fffffffffffffffffffffffffffffffffffffffffffffffffffffffffffffffff820361454a576145496144de565b5b600182019050919050565b6000614560826134f3565b915061456b836134f3565b9250828201905080821115614583576145826144de565b5b92915050565b60006020601f8301049050919050565b600082821b905092915050565b6000600883026145d67fffffffffffffffffffffffffffffffffffffffffffffffffffffffffffffffff82614599565b6145e08683614599565b95508019841693508086168417925050509392505050565b6000819050919050565b600061461d614618614613846134f3565b6145f8565b6134f3565b9050919050565b6000819050919050565b61463783614602565b61464b61464382614624565b8484546145a6565b825550505050565b600090565b614660614653565b61466b81848461462e565b505050565b5b8181101561468f57614684600082614658565b600181019050614671565b5050565b601f8211156146d4576146a58161442f565b6146ae84614589565b810160208510156146bd578190505b6146d16146c985614589565b830182614670565b50505b505050565b600082821c905092915050565b60006146f7600019846008026146d9565b1980831691505092915050565b600061471083836146e6565b9150826002028217905092915050565b614729826135f3565b67ffffffffffffffff81111561474257614741613967565b5b61474c82546143f3565b614757828285614693565b600060209050601f83116001811461478a5760008415614778578287015190505b6147828582614704565b8655506147ea565b601f1984166147988661442f565b60005b828110156147c05784890151825560018201915060208501945060208101905061479b565b868310156147dd57848901516147d9601f8916826146e6565b8355505b6001600288020188555050505b505050505050565b7f57726f6e67206469726563746f72792049440000000000000000000000000000600082015250565b6000614828601283613c92565b9150614833826147f2565b602082019050919050565b600060208201905081810360008301526148578161481b565b9050919050565b7f4e6f204163636573730000000000000000000000000000000000000000000000600082015250565b6000614894600983613c92565b915061489f8261485e565b602082019050919050565b600060208201905081810360008301526148c381614887565b9050919050565b60006148d5826135f3565b6148df8185614424565b93506148ef81856020860161360f565b80840191505092915050565b600061490782846148ca565b915081905092915050565b600061491d826134f3565b9150614928836134f3565b92508282039050818111156149405761493f6144de565b5b92915050565b7f4e6f2073756368206469726563746f7279000000000000000000000000000000600082015250565b600061497c601183613c92565b915061498782614946565b602082019050919050565b600060208201905081810360008301526149ab8161496f565b9050919050565b60006149be82866148ca565b91506149ca82856148ca565b91506149d682846148ca565b9150819050949350505050565b6000815490506149f2816143f3565b9050919050565b60008190508160005260206000209050919050565b818103614a1c575050614af4565b614a25826149e3565b67ffffffffffffffff811115614a3e57614a3d613967565b5b614a4882546143f3565b614a53828285614693565b6000601f831160018114614a825760008415614a70578287015490505b614a7a8582614704565b865550614aed565b601f198416614a90876149f9565b9650614a9b8661442f565b60005b82811015614ac357848901548255600182019150600185019450602081019050614a9e565b86831015614ae05784890154614adc601f8916826146e6565b8355505b6001600288020188555050505b5050505050505b565b7f4e487b7100000000000000000000000000000000000000000000000000000000600052603160045260246000fd5b6000614b30826134f3565b9150614b3b836134f3565b9250817fffffffffffffffffffffffffffffffffffffffffffffffffffffffffffffffff0483118215151615614b7457614b736144de565b5b828202905092915050565b6000614b8a826134f3565b915060008203614b9d57614b9c6144de565b5b600182039050919050565b7f537472696e67733a20686578206c656e67746820696e73756666696369656e74600082015250565b6000614bde602083613c92565b9150614be982614ba8565b602082019050919050565b60006020820190508181036000830152614c0d81614bd1565b9050919050565b7f4e487b7100000000000000000000000000000000000000000000000000000000600052601260045260246000fdfea2646970667358221220aaa48ccabb573e522f7e33da1bdad3059fe0f45e9354aaa483e929e067a61cce64736f6c63430008100033",
  "linkReferences": {},
  "deployedLinkReferences": {}
}