{
  "_format": "hh-sol-artifact-1",
  "contractName": "vStorageContract",
  "sourceName": "contracts/vStorage.sol",
  "abi": [
    {
      "inputs": [
        {
          "internalType": "uint256",
          "name": "_dirId",
          "type": "uint256"
        }
      ],
      "name": "addFavoriteDir",
      "outputs": [],
      "stateMutability": "nonpayable",
      "type": "function"
    },
    {
      "inputs": [
        {
          "internalType": "string",
          "name": "_fileId",
          "type": "string"
        }
      ],
      "name": "addFavoriteFile",
      "outputs": [],
      "stateMutability": "nonpayable",
      "type": "function"
    },
    {
      "inputs": [
        {
          "internalType": "uint256",
          "name": "_parentDir",
          "type": "uint256"
        },
        {
          "internalType": "string",
          "name": "_name",
          "type": "string"
        }
      ],
      "name": "createDir",
      "outputs": [],
      "stateMutability": "nonpayable",
      "type": "function"
    },
    {
      "inputs": [
        {
          "internalType": "uint256",
          "name": "",
          "type": "uint256"
        }
      ],
      "name": "dirs",
      "outputs": [
        {
          "internalType": "uint256",
          "name": "id",
          "type": "uint256"
        },
        {
          "internalType": "uint256",
          "name": "parentDir",
          "type": "uint256"
        },
        {
          "internalType": "uint256",
          "name": "updatedAt",
          "type": "uint256"
        },
        {
          "internalType": "bool",
          "name": "isFavorite",
          "type": "bool"
        },
        {
          "internalType": "string",
          "name": "name",
          "type": "string"
        },
        {
          "internalType": "address",
          "name": "owner",
          "type": "address"
        },
        {
          "internalType": "enum Utils.DirectoryColor",
          "name": "color",
          "type": "uint8"
        }
      ],
      "stateMutability": "view",
      "type": "function"
    },
    {
      "inputs": [
        {
          "internalType": "uint256",
          "name": "_dirId",
          "type": "uint256"
        },
        {
          "internalType": "address",
          "name": "_account",
          "type": "address"
        }
      ],
      "name": "getDirFiles",
      "outputs": [
        {
          "components": [
            {
              "internalType": "string",
              "name": "id",
              "type": "string"
            },
            {
              "internalType": "uint256",
              "name": "parentDir",
              "type": "uint256"
            },
            {
              "internalType": "uint256",
              "name": "version",
              "type": "uint256"
            },
            {
              "internalType": "uint256",
              "name": "updatedAt",
              "type": "uint256"
            },
            {
              "internalType": "uint256",
              "name": "size",
              "type": "uint256"
            },
            {
              "internalType": "bool",
              "name": "isFavorite",
              "type": "bool"
            },
            {
              "internalType": "address",
              "name": "owner",
              "type": "address"
            },
            {
              "internalType": "string",
              "name": "name",
              "type": "string"
            },
            {
              "internalType": "string",
              "name": "mimeType",
              "type": "string"
            },
            {
              "internalType": "string",
              "name": "ipfsHash",
              "type": "string"
            },
            {
              "internalType": "string",
              "name": "shareHash",
              "type": "string"
            },
            {
              "internalType": "string[]",
              "name": "versionHistory",
              "type": "string[]"
            }
          ],
          "internalType": "struct vStorageContract.File[]",
          "name": "",
          "type": "tuple[]"
        }
      ],
      "stateMutability": "view",
      "type": "function"
    },
    {
      "inputs": [
        {
          "internalType": "uint256",
          "name": "_dirId",
          "type": "uint256"
        },
        {
          "internalType": "address",
          "name": "_account",
          "type": "address"
        }
      ],
      "name": "getDirSubDirs",
      "outputs": [
        {
          "components": [
            {
              "internalType": "uint256",
              "name": "id",
              "type": "uint256"
            },
            {
              "internalType": "uint256",
              "name": "parentDir",
              "type": "uint256"
            },
            {
              "internalType": "uint256",
              "name": "updatedAt",
              "type": "uint256"
            },
            {
              "internalType": "bool",
              "name": "isFavorite",
              "type": "bool"
            },
            {
              "internalType": "string",
              "name": "name",
              "type": "string"
            },
            {
              "internalType": "address",
              "name": "owner",
              "type": "address"
            },
            {
              "internalType": "enum Utils.DirectoryColor",
              "name": "color",
              "type": "uint8"
            }
          ],
          "internalType": "struct vStorageContract.Directory[]",
          "name": "",
          "type": "tuple[]"
        }
      ],
      "stateMutability": "view",
      "type": "function"
    },
    {
      "inputs": [
        {
          "internalType": "address",
          "name": "_account",
          "type": "address"
        }
      ],
      "name": "getFavoriteDirs",
      "outputs": [
        {
          "components": [
            {
              "internalType": "uint256",
              "name": "id",
              "type": "uint256"
            },
            {
              "internalType": "uint256",
              "name": "parentDir",
              "type": "uint256"
            },
            {
              "internalType": "uint256",
              "name": "updatedAt",
              "type": "uint256"
            },
            {
              "internalType": "bool",
              "name": "isFavorite",
              "type": "bool"
            },
            {
              "internalType": "string",
              "name": "name",
              "type": "string"
            },
            {
              "internalType": "address",
              "name": "owner",
              "type": "address"
            },
            {
              "internalType": "enum Utils.DirectoryColor",
              "name": "color",
              "type": "uint8"
            }
          ],
          "internalType": "struct vStorageContract.Directory[]",
          "name": "",
          "type": "tuple[]"
        }
      ],
      "stateMutability": "view",
      "type": "function"
    },
    {
      "inputs": [
        {
          "internalType": "address",
          "name": "_account",
          "type": "address"
        }
      ],
      "name": "getFavoriteFiles",
      "outputs": [
        {
          "components": [
            {
              "internalType": "string",
              "name": "id",
              "type": "string"
            },
            {
              "internalType": "uint256",
              "name": "parentDir",
              "type": "uint256"
            },
            {
              "internalType": "uint256",
              "name": "version",
              "type": "uint256"
            },
            {
              "internalType": "uint256",
              "name": "updatedAt",
              "type": "uint256"
            },
            {
              "internalType": "uint256",
              "name": "size",
              "type": "uint256"
            },
            {
              "internalType": "bool",
              "name": "isFavorite",
              "type": "bool"
            },
            {
              "internalType": "address",
              "name": "owner",
              "type": "address"
            },
            {
              "internalType": "string",
              "name": "name",
              "type": "string"
            },
            {
              "internalType": "string",
              "name": "mimeType",
              "type": "string"
            },
            {
              "internalType": "string",
              "name": "ipfsHash",
              "type": "string"
            },
            {
              "internalType": "string",
              "name": "shareHash",
              "type": "string"
            },
            {
              "internalType": "string[]",
              "name": "versionHistory",
              "type": "string[]"
            }
          ],
          "internalType": "struct vStorageContract.File[]",
          "name": "",
          "type": "tuple[]"
        }
      ],
      "stateMutability": "view",
      "type": "function"
    },
    {
      "inputs": [
        {
          "internalType": "uint256[]",
          "name": "_idList",
          "type": "uint256[]"
        }
      ],
      "name": "removeDirs",
      "outputs": [],
      "stateMutability": "nonpayable",
      "type": "function"
    },
    {
      "inputs": [
        {
          "internalType": "uint256",
          "name": "_dirId",
          "type": "uint256"
        }
      ],
      "name": "removeFavoriteDir",
      "outputs": [],
      "stateMutability": "nonpayable",
      "type": "function"
    },
    {
      "inputs": [
        {
          "internalType": "string",
          "name": "_fileId",
          "type": "string"
        }
      ],
      "name": "removeFavoriteFile",
      "outputs": [],
      "stateMutability": "nonpayable",
      "type": "function"
    },
    {
      "inputs": [
        {
          "internalType": "string[]",
          "name": "_idList",
          "type": "string[]"
        }
      ],
      "name": "removeFiles",
      "outputs": [],
      "stateMutability": "nonpayable",
      "type": "function"
    },
    {
      "inputs": [],
      "name": "totalDirs",
      "outputs": [
        {
          "internalType": "uint256",
          "name": "",
          "type": "uint256"
        }
      ],
      "stateMutability": "view",
      "type": "function"
    },
    {
      "inputs": [
        {
          "internalType": "uint256",
          "name": "_id",
          "type": "uint256"
        },
        {
          "internalType": "uint256",
          "name": "_parentDir",
          "type": "uint256"
        },
        {
          "internalType": "string",
          "name": "_name",
          "type": "string"
        },
        {
          "internalType": "enum Utils.DirectoryColor",
          "name": "_color",
          "type": "uint8"
        }
      ],
      "name": "updateDir",
      "outputs": [],
      "stateMutability": "nonpayable",
      "type": "function"
    },
    {
      "inputs": [
        {
          "internalType": "uint256",
          "name": "_dirId",
          "type": "uint256"
        },
        {
          "components": [
            {
              "internalType": "string",
              "name": "name",
              "type": "string"
            },
            {
              "internalType": "string",
              "name": "ipfsHash",
              "type": "string"
            },
            {
              "internalType": "string",
              "name": "mimeType",
              "type": "string"
            },
            {
              "internalType": "uint256",
              "name": "size",
              "type": "uint256"
            }
          ],
          "internalType": "struct vStorageContract.FileUpload[]",
          "name": "_uploadFiles",
          "type": "tuple[]"
        }
      ],
      "name": "uploadFiles",
      "outputs": [],
      "stateMutability": "nonpayable",
      "type": "function"
    },
    {
      "inputs": [
        {
          "internalType": "address",
          "name": "",
          "type": "address"
        }
      ],
      "name": "userFilesCount",
      "outputs": [
        {
          "internalType": "uint256",
          "name": "",
          "type": "uint256"
        }
      ],
      "stateMutability": "view",
      "type": "function"
    },
    {
      "inputs": [
        {
          "internalType": "address",
          "name": "",
          "type": "address"
        }
      ],
      "name": "userFilesSize",
      "outputs": [
        {
          "internalType": "uint256",
          "name": "",
          "type": "uint256"
        }
      ],
      "stateMutability": "view",
      "type": "function"
    }
  ],
  "bytecode": "0x608060405234801561001057600080fd5b50615560806100206000396000f3fe608060405234801561001057600080fd5b506004361061010b5760003560e01c80637b8501cc116100a2578063a14171bf11610071578063a14171bf146102cc578063accfa769146102fc578063dda49e2d14610318578063df06669a14610348578063fd21e3de146103645761010b565b80637b8501cc146102425780637fa88c861461025e578063907083a2146102945780639a822900146102b05761010b565b806355943e6b116100de57806355943e6b14610196578063567e9e2e146101c657806356fa14e7146101e25780636d9ae5bd146102125761010b565b8063040b7bd1146101105780632bdd64d4146101405780632bfb8c321461015c5780635119a03d1461017a575b600080fd5b61012a60048036038101906101259190613e6e565b610380565b6040516101379190614222565b60405180910390f35b61015a60048036038101906101559190614379565b610959565b005b610164610b32565b60405161017191906143e4565b60405180910390f35b610194600480360381019061018f91906144c7565b610b38565b005b6101b060048036038101906101ab9190614510565b611071565b6040516101bd91906143e4565b60405180910390f35b6101e060048036038101906101db919061453d565b611089565b005b6101fc60048036038101906101f79190614510565b611271565b6040516102099190614222565b60405180910390f35b61022c60048036038101906102279190614510565b611827565b604051610239919061473f565b60405180910390f35b61025c6004803603810190610257919061453d565b611ae2565b005b6102786004803603810190610273919061453d565b611c29565b60405161028b97969594939291906147d8565b60405180910390f35b6102ae60048036038101906102a9919061492f565b611d2d565b005b6102ca60048036038101906102c5919061499d565b612199565b005b6102e660048036038101906102e19190614510565b612290565b6040516102f391906143e4565b60405180910390f35b61031660048036038101906103119190614a20565b6122a8565b005b610332600480360381019061032d9190613e6e565b612406565b60405161033f919061473f565b60405180910390f35b610362600480360381019061035d9190614a20565b6126e4565b005b61037e60048036038101906103799190614c20565b612960565b005b60606000600460008473ffffffffffffffffffffffffffffffffffffffff1673ffffffffffffffffffffffffffffffffffffffff168152602001908152602001600020600085815260200190815260200160002080549050905060008167ffffffffffffffff8111156103f6576103f561424e565b5b60405190808252806020026020018201604052801561042f57816020015b61041c613beb565b8152602001906001900390816104145790505b50905060005b8281101561094d576002600460008773ffffffffffffffffffffffffffffffffffffffff1673ffffffffffffffffffffffffffffffffffffffff168152602001908152602001600020600088815260200190815260200160002082815481106104a1576104a0614c7c565b5b906000526020600020016040516104b89190614dae565b9081526020016040518091039020604051806101800160405290816000820180546104e290614cda565b80601f016020809104026020016040519081016040528092919081815260200182805461050e90614cda565b801561055b5780601f106105305761010080835404028352916020019161055b565b820191906000526020600020905b81548152906001019060200180831161053e57829003601f168201915b50505050508152602001600182015481526020016002820154815260200160038201548152602001600482015481526020016005820160009054906101000a900460ff161515151581526020016005820160019054906101000a900473ffffffffffffffffffffffffffffffffffffffff1673ffffffffffffffffffffffffffffffffffffffff1673ffffffffffffffffffffffffffffffffffffffff16815260200160068201805461060d90614cda565b80601f016020809104026020016040519081016040528092919081815260200182805461063990614cda565b80156106865780601f1061065b57610100808354040283529160200191610686565b820191906000526020600020905b81548152906001019060200180831161066957829003601f168201915b5050505050815260200160078201805461069f90614cda565b80601f01602080910402602001604051908101604052809291908181526020018280546106cb90614cda565b80156107185780601f106106ed57610100808354040283529160200191610718565b820191906000526020600020905b8154815290600101906020018083116106fb57829003601f168201915b5050505050815260200160088201805461073190614cda565b80601f016020809104026020016040519081016040528092919081815260200182805461075d90614cda565b80156107aa5780601f1061077f576101008083540402835291602001916107aa565b820191906000526020600020905b81548152906001019060200180831161078d57829003601f168201915b505050505081526020016009820180546107c390614cda565b80601f01602080910402602001604051908101604052809291908181526020018280546107ef90614cda565b801561083c5780601f106108115761010080835404028352916020019161083c565b820191906000526020600020905b81548152906001019060200180831161081f57829003601f168201915b50505050508152602001600a8201805480602002602001604051908101604052809291908181526020016000905b8282101561091657838290600052602060002001805461088990614cda565b80601f01602080910402602001604051908101604052809291908181526020018280546108b590614cda565b80156109025780601f106108d757610100808354040283529160200191610902565b820191906000526020600020905b8154815290600101906020018083116108e557829003601f168201915b50505050508152602001906001019061086a565b505050508152505082828151811061093157610930614c7c565b5b60200260200101819052508061094690614df4565b9050610435565b50809250505092915050565b600160008082825461096b9190614e3c565b925050819055506040518060e0016040528060005481526020018381526020014281526020016000151581526020018281526020013373ffffffffffffffffffffffffffffffffffffffff168152602001600060078111156109d0576109cf614596565b5b815250600160008054815260200190815260200160002060008201518160000155602082015181600101556040820151816002015560608201518160030160006101000a81548160ff0219169083151502179055506080820151816004019081610a3a9190615007565b5060a08201518160050160006101000a81548173ffffffffffffffffffffffffffffffffffffffff021916908373ffffffffffffffffffffffffffffffffffffffff16021790555060c08201518160050160146101000a81548160ff02191690836007811115610aad57610aac614596565b5b0217905550905050600360003373ffffffffffffffffffffffffffffffffffffffff1673ffffffffffffffffffffffffffffffffffffffff168152602001908152602001600020600083815260200190815260200160002060005490806001815401808255809150506001900390600052602060002001600090919091909150555050565b60005481565b60005b815181101561106d576000828281518110610b5957610b58614c7c565b5b602002602001015111610ba1576040517f08c379a0000000000000000000000000000000000000000000000000000000008152600401610b9890615125565b60405180910390fd5b600060016000848481518110610bba57610bb9614c7c565b5b6020026020010151815260200190815260200160002090503373ffffffffffffffffffffffffffffffffffffffff168160050160009054906101000a900473ffffffffffffffffffffffffffffffffffffffff1673ffffffffffffffffffffffffffffffffffffffff1614610c64576040517f08c379a0000000000000000000000000000000000000000000000000000000008152600401610c5b90615191565b60405180910390fd5b610cc5600360003373ffffffffffffffffffffffffffffffffffffffff1673ffffffffffffffffffffffffffffffffffffffff168152602001908152602001600020600083600101548152602001908152602001600020826000015461327b565b8060030160009054906101000a900460ff1615610d2957610d28600660003373ffffffffffffffffffffffffffffffffffffffff1673ffffffffffffffffffffffffffffffffffffffff168152602001908152602001600020826000015461327b565b5b6000600360003373ffffffffffffffffffffffffffffffffffffffff1673ffffffffffffffffffffffffffffffffffffffff1681526020019081526020016000206000858581518110610d7f57610d7e614c7c565b5b60200260200101518152602001908152602001600020805480602002602001604051908101604052809291908181526020018280548015610ddf57602002820191906000526020600020905b815481526020019060010190808311610dcb575b50505050509050600081511115610dfa57610df981610b38565b5b6000600460003373ffffffffffffffffffffffffffffffffffffffff1673ffffffffffffffffffffffffffffffffffffffff1681526020019081526020016000206000868681518110610e5057610e4f614c7c565b5b60200260200101518152602001908152602001600020805490501115610fb357610fb2600460003373ffffffffffffffffffffffffffffffffffffffff1673ffffffffffffffffffffffffffffffffffffffff1681526020019081526020016000206000868681518110610ec757610ec6614c7c565b5b60200260200101518152602001908152602001600020805480602002602001604051908101604052809291908181526020016000905b82821015610fa9578382906000526020600020018054610f1c90614cda565b80601f0160208091040260200160405190810160405280929190818152602001828054610f4890614cda565b8015610f955780601f10610f6a57610100808354040283529160200191610f95565b820191906000526020600020905b815481529060010190602001808311610f7857829003601f168201915b505050505081526020019060010190610efd565b50505050611d2d565b5b60016000858581518110610fca57610fc9614c7c565b5b60200260200101518152602001908152602001600020600080820160009055600182016000905560028201600090556003820160006101000a81549060ff021916905560048201600061101d9190613c64565b6005820160006101000a81549073ffffffffffffffffffffffffffffffffffffffff02191690556005820160146101000a81549060ff0219169055505050508061106690614df4565b9050610b3b565b5050565b60086020528060005260406000206000915090505481565b60006001600083815260200190815260200160002090503373ffffffffffffffffffffffffffffffffffffffff168160050160009054906101000a900473ffffffffffffffffffffffffffffffffffffffff1673ffffffffffffffffffffffffffffffffffffffff1614611132576040517f08c379a000000000000000000000000000000000000000000000000000000000815260040161112990615191565b60405180910390fd5b8060030160009054906101000a900460ff161561126d576000806111e3600660003373ffffffffffffffffffffffffffffffffffffffff1673ffffffffffffffffffffffffffffffffffffffff1681526020019081526020016000208054806020026020016040519081016040528092919081815260200182805480156111d857602002820191906000526020600020905b8154815260200190600101908083116111c4575b50505050508561336c565b91509150801561124d57600660003373ffffffffffffffffffffffffffffffffffffffff1673ffffffffffffffffffffffffffffffffffffffff168152602001908152602001600020828154811061123e5761123d614c7c565b5b90600052602060002001600090555b60008360030160006101000a81548160ff02191690831515021790555050505b5050565b60606000600560008473ffffffffffffffffffffffffffffffffffffffff1673ffffffffffffffffffffffffffffffffffffffff16815260200190815260200160002080549050905060008167ffffffffffffffff8111156112d6576112d561424e565b5b60405190808252806020026020018201604052801561130f57816020015b6112fc613beb565b8152602001906001900390816112f45790505b50905060005b8281101561181c576002600560008773ffffffffffffffffffffffffffffffffffffffff1673ffffffffffffffffffffffffffffffffffffffff16815260200190815260200160002082815481106113705761136f614c7c565b5b906000526020600020016040516113879190614dae565b9081526020016040518091039020604051806101800160405290816000820180546113b190614cda565b80601f01602080910402602001604051908101604052809291908181526020018280546113dd90614cda565b801561142a5780601f106113ff5761010080835404028352916020019161142a565b820191906000526020600020905b81548152906001019060200180831161140d57829003601f168201915b50505050508152602001600182015481526020016002820154815260200160038201548152602001600482015481526020016005820160009054906101000a900460ff161515151581526020016005820160019054906101000a900473ffffffffffffffffffffffffffffffffffffffff1673ffffffffffffffffffffffffffffffffffffffff1673ffffffffffffffffffffffffffffffffffffffff1681526020016006820180546114dc90614cda565b80601f016020809104026020016040519081016040528092919081815260200182805461150890614cda565b80156115555780601f1061152a57610100808354040283529160200191611555565b820191906000526020600020905b81548152906001019060200180831161153857829003601f168201915b5050505050815260200160078201805461156e90614cda565b80601f016020809104026020016040519081016040528092919081815260200182805461159a90614cda565b80156115e75780601f106115bc576101008083540402835291602001916115e7565b820191906000526020600020905b8154815290600101906020018083116115ca57829003601f168201915b5050505050815260200160088201805461160090614cda565b80601f016020809104026020016040519081016040528092919081815260200182805461162c90614cda565b80156116795780601f1061164e57610100808354040283529160200191611679565b820191906000526020600020905b81548152906001019060200180831161165c57829003601f168201915b5050505050815260200160098201805461169290614cda565b80601f01602080910402602001604051908101604052809291908181526020018280546116be90614cda565b801561170b5780601f106116e05761010080835404028352916020019161170b565b820191906000526020600020905b8154815290600101906020018083116116ee57829003601f168201915b50505050508152602001600a8201805480602002602001604051908101604052809291908181526020016000905b828210156117e557838290600052602060002001805461175890614cda565b80601f016020809104026020016040519081016040528092919081815260200182805461178490614cda565b80156117d15780601f106117a6576101008083540402835291602001916117d1565b820191906000526020600020905b8154815290600101906020018083116117b457829003601f168201915b505050505081526020019060010190611739565b5050505081525050828281518110611800576117ff614c7c565b5b60200260200101819052508061181590614df4565b9050611315565b508092505050919050565b60606000600660008473ffffffffffffffffffffffffffffffffffffffff1673ffffffffffffffffffffffffffffffffffffffff16815260200190815260200160002080549050905060008167ffffffffffffffff81111561188c5761188b61424e565b5b6040519080825280602002602001820160405280156118c557816020015b6118b2613ca4565b8152602001906001900390816118aa5790505b50905060005b82811015611ad75760016000600660008873ffffffffffffffffffffffffffffffffffffffff1673ffffffffffffffffffffffffffffffffffffffff168152602001908152602001600020838154811061192857611927614c7c565b5b906000526020600020015481526020019081526020016000206040518060e00160405290816000820154815260200160018201548152602001600282015481526020016003820160009054906101000a900460ff1615151515815260200160048201805461199590614cda565b80601f01602080910402602001604051908101604052809291908181526020018280546119c190614cda565b8015611a0e5780601f106119e357610100808354040283529160200191611a0e565b820191906000526020600020905b8154815290600101906020018083116119f157829003601f168201915b505050505081526020016005820160009054906101000a900473ffffffffffffffffffffffffffffffffffffffff1673ffffffffffffffffffffffffffffffffffffffff1673ffffffffffffffffffffffffffffffffffffffff1681526020016005820160149054906101000a900460ff166007811115611a9257611a91614596565b5b6007811115611aa457611aa3614596565b5b81525050828281518110611abb57611aba614c7c565b5b602002602001018190525080611ad090614df4565b90506118cb565b508092505050919050565b60006001600083815260200190815260200160002090503373ffffffffffffffffffffffffffffffffffffffff168160050160009054906101000a900473ffffffffffffffffffffffffffffffffffffffff1673ffffffffffffffffffffffffffffffffffffffff1614611b8b576040517f08c379a0000000000000000000000000000000000000000000000000000000008152600401611b8290615191565b60405180910390fd5b8060030160009054906101000a900460ff16611c2557600660003373ffffffffffffffffffffffffffffffffffffffff1673ffffffffffffffffffffffffffffffffffffffff16815260200190815260200160002082908060018154018082558091505060019003906000526020600020016000909190919091505560018160030160006101000a81548160ff0219169083151502179055505b5050565b60016020528060005260406000206000915090508060000154908060010154908060020154908060030160009054906101000a900460ff1690806004018054611c7190614cda565b80601f0160208091040260200160405190810160405280929190818152602001828054611c9d90614cda565b8015611cea5780601f10611cbf57610100808354040283529160200191611cea565b820191906000526020600020905b815481529060010190602001808311611ccd57829003601f168201915b5050505050908060050160009054906101000a900473ffffffffffffffffffffffffffffffffffffffff16908060050160149054906101000a900460ff16905087565b60005b81518110156121955760006002838381518110611d5057611d4f614c7c565b5b6020026020010151604051611d6591906151e2565b908152602001604051809103902090503373ffffffffffffffffffffffffffffffffffffffff168160050160019054906101000a900473ffffffffffffffffffffffffffffffffffffffff1673ffffffffffffffffffffffffffffffffffffffff1614611e07576040517f08c379a0000000000000000000000000000000000000000000000000000000008152600401611dfe90615191565b60405180910390fd5b611ef0600460003373ffffffffffffffffffffffffffffffffffffffff1673ffffffffffffffffffffffffffffffffffffffff168152602001908152602001600020600083600101548152602001908152602001600020826000018054611e6d90614cda565b80601f0160208091040260200160405190810160405280929190818152602001828054611e9990614cda565b8015611ee65780601f10611ebb57610100808354040283529160200191611ee6565b820191906000526020600020905b815481529060010190602001808311611ec957829003601f168201915b50505050506133ca565b8060050160009054906101000a900460ff1615611fdc57611fdb600560003373ffffffffffffffffffffffffffffffffffffffff1673ffffffffffffffffffffffffffffffffffffffff168152602001908152602001600020826000018054611f5890614cda565b80601f0160208091040260200160405190810160405280929190818152602001828054611f8490614cda565b8015611fd15780601f10611fa657610100808354040283529160200191611fd1565b820191906000526020600020905b815481529060010190602001808311611fb457829003601f168201915b50505050506133ca565b5b6001600760003373ffffffffffffffffffffffffffffffffffffffff1673ffffffffffffffffffffffffffffffffffffffff168152602001908152602001600020600082825461202c91906151f9565b925050819055508060040154600860003373ffffffffffffffffffffffffffffffffffffffff1673ffffffffffffffffffffffffffffffffffffffff168152602001908152602001600020600082825461208691906151f9565b9250508190555060028383815181106120a2576120a1614c7c565b5b60200260200101516040516120b791906151e2565b9081526020016040518091039020600080820160006120d69190613c64565b60018201600090556002820160009055600382016000905560048201600090556005820160006101000a81549060ff02191690556005820160016101000a81549073ffffffffffffffffffffffffffffffffffffffff02191690556006820160006121419190613c64565b6007820160006121519190613c64565b6008820160006121619190613c64565b6009820160006121719190613c64565b600a820160006121819190613d0b565b5050508061218e90614df4565b9050611d30565b5050565b60006001600086815260200190815260200160002090503373ffffffffffffffffffffffffffffffffffffffff168160050160009054906101000a900473ffffffffffffffffffffffffffffffffffffffff1673ffffffffffffffffffffffffffffffffffffffff1614612242576040517f08c379a000000000000000000000000000000000000000000000000000000000815260040161223990615191565b60405180910390fd5b8381600101819055508281600401908161225c9190615007565b50818160050160146101000a81548160ff0219169083600781111561228457612283614596565b5b02179055505050505050565b60076020528060005260406000206000915090505481565b60006002826040516122ba91906151e2565b908152602001604051809103902090503373ffffffffffffffffffffffffffffffffffffffff168160050160019054906101000a900473ffffffffffffffffffffffffffffffffffffffff1673ffffffffffffffffffffffffffffffffffffffff161461235c576040517f08c379a000000000000000000000000000000000000000000000000000000000815260040161235390615191565b60405180910390fd5b8060050160009054906101000a900460ff1661240257600560003373ffffffffffffffffffffffffffffffffffffffff1673ffffffffffffffffffffffffffffffffffffffff168152602001908152602001600020829080600181540180825580915050600190039060005260206000200160009091909190915090816123e39190615007565b5060018160050160006101000a81548160ff0219169083151502179055505b5050565b60606000600360008473ffffffffffffffffffffffffffffffffffffffff1673ffffffffffffffffffffffffffffffffffffffff168152602001908152602001600020600085815260200190815260200160002080549050905060008167ffffffffffffffff81111561247c5761247b61424e565b5b6040519080825280602002602001820160405280156124b557816020015b6124a2613ca4565b81526020019060019003908161249a5790505b50905060005b828110156126d85760016000600360008873ffffffffffffffffffffffffffffffffffffffff1673ffffffffffffffffffffffffffffffffffffffff1681526020019081526020016000206000898152602001908152602001600020838154811061252957612528614c7c565b5b906000526020600020015481526020019081526020016000206040518060e00160405290816000820154815260200160018201548152602001600282015481526020016003820160009054906101000a900460ff1615151515815260200160048201805461259690614cda565b80601f01602080910402602001604051908101604052809291908181526020018280546125c290614cda565b801561260f5780601f106125e45761010080835404028352916020019161260f565b820191906000526020600020905b8154815290600101906020018083116125f257829003601f168201915b505050505081526020016005820160009054906101000a900473ffffffffffffffffffffffffffffffffffffffff1673ffffffffffffffffffffffffffffffffffffffff1673ffffffffffffffffffffffffffffffffffffffff1681526020016005820160149054906101000a900460ff16600781111561269357612692614596565b5b60078111156126a5576126a4614596565b5b815250508282815181106126bc576126bb614c7c565b5b6020026020010181905250806126d190614df4565b90506124bb565b50809250505092915050565b60006002826040516126f691906151e2565b908152602001604051809103902090503373ffffffffffffffffffffffffffffffffffffffff168160050160019054906101000a900473ffffffffffffffffffffffffffffffffffffffff1673ffffffffffffffffffffffffffffffffffffffff1614612798576040517f08c379a000000000000000000000000000000000000000000000000000000000815260040161278f90615191565b60405180910390fd5b8060050160009054906101000a900460ff161561295c576000806128ca600560003373ffffffffffffffffffffffffffffffffffffffff1673ffffffffffffffffffffffffffffffffffffffff168152602001908152602001600020805480602002602001604051908101604052809291908181526020016000905b828210156128c057838290600052602060002001805461283390614cda565b80601f016020809104026020016040519081016040528092919081815260200182805461285f90614cda565b80156128ac5780601f10612881576101008083540402835291602001916128ac565b820191906000526020600020905b81548152906001019060200180831161288f57829003601f168201915b505050505081526020019060010190612814565b505050508561354c565b91509150801561293c57600560003373ffffffffffffffffffffffffffffffffffffffff1673ffffffffffffffffffffffffffffffffffffffff168152602001908152602001600020828154811061292557612924614c7c565b5b90600052602060002001600061293b9190613c64565b5b60008360050160006101000a81548160ff02191690831515021790555050505b5050565b60006129833373ffffffffffffffffffffffffffffffffffffffff1660146135b4565b90506000831115612bc8576000600160008581526020019081526020016000206040518060e00160405290816000820154815260200160018201548152602001600282015481526020016003820160009054906101000a900460ff161515151581526020016004820180546129f790614cda565b80601f0160208091040260200160405190810160405280929190818152602001828054612a2390614cda565b8015612a705780601f10612a4557610100808354040283529160200191612a70565b820191906000526020600020905b815481529060010190602001808311612a5357829003601f168201915b505050505081526020016005820160009054906101000a900473ffffffffffffffffffffffffffffffffffffffff1673ffffffffffffffffffffffffffffffffffffffff1673ffffffffffffffffffffffffffffffffffffffff1681526020016005820160149054906101000a900460ff166007811115612af457612af3614596565b5b6007811115612b0657612b05614596565b5b815250509050600081608001515111612b54576040517f08c379a0000000000000000000000000000000000000000000000000000000008152600401612b4b90615279565b60405180910390fd5b8060a0015173ffffffffffffffffffffffffffffffffffffffff163373ffffffffffffffffffffffffffffffffffffffff1614612bc6576040517f08c379a0000000000000000000000000000000000000000000000000000000008152600401612bbd90615191565b60405180910390fd5b505b60005b825181101561327557600082612be0866137f0565b858481518110612bf357612bf2614c7c565b5b602002602001015160000151604051602001612c1193929190615299565b60405160208183030381529060405290506000600282604051612c3491906151e2565b908152602001604051809103902090506000816000018054612c5590614cda565b90501115612e78573373ffffffffffffffffffffffffffffffffffffffff168160050160019054906101000a900473ffffffffffffffffffffffffffffffffffffffff1673ffffffffffffffffffffffffffffffffffffffff1614612cef576040517f08c379a0000000000000000000000000000000000000000000000000000000008152600401612ce690615191565b60405180910390fd5b8060040154600860003373ffffffffffffffffffffffffffffffffffffffff1673ffffffffffffffffffffffffffffffffffffffff1681526020019081526020016000206000828254612d4291906151f9565b92505081905550848381518110612d5c57612d5b614c7c565b5b602002602001015160600151600860003373ffffffffffffffffffffffffffffffffffffffff1673ffffffffffffffffffffffffffffffffffffffff1681526020019081526020016000206000828254612db69190614e3c565b925050819055506001816002016000828254612dd29190614e3c565b92505081905550848381518110612dec57612deb614c7c565b5b602002602001015160600151816004018190555080600a0181600801908060018154018082558091505060019003906000526020600020016000909190919091509081612e3991906152f5565b50848381518110612e4d57612e4c614c7c565b5b602002602001015160200151816008019081612e699190615007565b50428160030181905550613247565b60405180610180016040528083815260200187815260200160018152602001428152602001868581518110612eb057612eaf614c7c565b5b60200260200101516060015181526020016000151581526020013373ffffffffffffffffffffffffffffffffffffffff168152602001868581518110612ef957612ef8614c7c565b5b6020026020010151600001518152602001868581518110612f1d57612f1c614c7c565b5b6020026020010151604001518152602001868581518110612f4157612f40614c7c565b5b6020026020010151602001518152602001604051806020016040528060008152508152602001600067ffffffffffffffff811115612f8257612f8161424e565b5b604051908082528060200260200182016040528015612fb557816020015b6060815260200190600190039081612fa05790505b50815250600283604051612fc991906151e2565b90815260200160405180910390206000820151816000019081612fec9190615007565b506020820151816001015560408201518160020155606082015181600301556080820151816004015560a08201518160050160006101000a81548160ff02191690831515021790555060c08201518160050160016101000a81548173ffffffffffffffffffffffffffffffffffffffff021916908373ffffffffffffffffffffffffffffffffffffffff16021790555060e08201518160060190816130919190615007565b506101008201518160070190816130a89190615007565b506101208201518160080190816130bf9190615007565b506101408201518160090190816130d69190615007565b5061016082015181600a0190805190602001906130f4929190613d2c565b50905050600460003373ffffffffffffffffffffffffffffffffffffffff1673ffffffffffffffffffffffffffffffffffffffff16815260200190815260200160002060008781526020019081526020016000208290806001815401808255809150506001900390600052602060002001600090919091909150908161317a9190615007565b506001600760003373ffffffffffffffffffffffffffffffffffffffff1673ffffffffffffffffffffffffffffffffffffffff16815260200190815260200160002060008282546131cb9190614e3c565b925050819055508483815181106131e5576131e4614c7c565b5b602002602001015160600151600860003373ffffffffffffffffffffffffffffffffffffffff1673ffffffffffffffffffffffffffffffffffffffff168152602001908152602001600020600082825461323f9190614e3c565b925050819055505b42600160008881526020019081526020016000206002018190555050508061326e90614df4565b9050612bcb565b50505050565b6000806132d7848054806020026020016040519081016040528092919081815260200182805480156132cc57602002820191906000526020600020905b8154815260200190600101908083116132b8575b50505050508461336c565b9150915080156133665760018480549050111561333e57836001858054905061330091906151f9565b8154811061331157613310614c7c565b5b906000526020600020015484838154811061332f5761332e614c7c565b5b90600052602060002001819055505b8380548061334f5761334e6153dd565b5b600190038181906000526020600020016000905590555b50505050565b60008060005b84518110156133ba578385828151811061338f5761338e614c7c565b5b6020026020010151036133a95780600192509250506133c3565b806133b390614df4565b9050613372565b50600080915091505b9250929050565b6000806134a784805480602002602001604051908101604052809291908181526020016000905b8282101561349d57838290600052602060002001805461341090614cda565b80601f016020809104026020016040519081016040528092919081815260200182805461343c90614cda565b80156134895780601f1061345e57610100808354040283529160200191613489565b820191906000526020600020905b81548152906001019060200180831161346c57829003601f168201915b5050505050815260200190600101906133f1565b505050508461354c565b915091508015613546576001848054905011156135165783600185805490506134d091906151f9565b815481106134e1576134e0614c7c565b5b906000526020600020018483815481106134fe576134fd614c7c565b5b90600052602060002001908161351491906152f5565b505b83805480613527576135266153dd565b5b6001900381819060005260206000200160006135439190613c64565b90555b50505050565b60008060005b84518110156135a457600061358186838151811061357357613572614c7c565b5b6020026020010151866138be565b036135935780600192509250506135ad565b8061359d90614df4565b9050613552565b50600080915091505b9250929050565b6060600060028360026135c7919061540c565b6135d19190614e3c565b67ffffffffffffffff8111156135ea576135e961424e565b5b6040519080825280601f01601f19166020018201604052801561361c5781602001600182028036833780820191505090505b5090507f30000000000000000000000000000000000000000000000000000000000000008160008151811061365457613653614c7c565b5b60200101907effffffffffffffffffffffffffffffffffffffffffffffffffffffffffffff1916908160001a9053507f7800000000000000000000000000000000000000000000000000000000000000816001815181106136b8576136b7614c7c565b5b60200101907effffffffffffffffffffffffffffffffffffffffffffffffffffffffffffff1916908160001a905350600060018460026136f8919061540c565b6137029190614e3c565b90505b60018111156137a2577f3031323334353637383961626364656600000000000000000000000000000000600f86166010811061374457613743614c7c565b5b1a60f81b82828151811061375b5761375a614c7c565b5b60200101907effffffffffffffffffffffffffffffffffffffffffffffffffffffffffffff1916908160001a905350600485901c94508061379b90615466565b9050613705565b50600084146137e6576040517f08c379a00000000000000000000000000000000000000000000000000000000081526004016137dd906154db565b60405180910390fd5b8091505092915050565b6060600060016137ff84613a98565b01905060008167ffffffffffffffff81111561381e5761381d61424e565b5b6040519080825280601f01601f1916602001820160405280156138505781602001600182028036833780820191505090505b509050600082602001820190505b6001156138b3578080600190039150507f3031323334353637383961626364656600000000000000000000000000000000600a86061a8153600a85816138a7576138a66154fb565b5b0494506000850361385e575b819350505050919050565b600080839050600083905060008251905080825110156138dd57815190505b60005b81811015613a3e578281815181106138fb576138fa614c7c565b5b602001015160f81c60f81b7effffffffffffffffffffffffffffffffffffffffffffffffffffffffffffff191684828151811061393b5761393a614c7c565b5b602001015160f81c60f81b7effffffffffffffffffffffffffffffffffffffffffffffffffffffffffffff1916101561399a577fffffffffffffffffffffffffffffffffffffffffffffffffffffffffffffffff945050505050613a92565b8281815181106139ad576139ac614c7c565b5b602001015160f81c60f81b7effffffffffffffffffffffffffffffffffffffffffffffffffffffffffffff19168482815181106139ed576139ec614c7c565b5b602001015160f81c60f81b7effffffffffffffffffffffffffffffffffffffffffffffffffffffffffffff19161115613a2d576001945050505050613a92565b80613a3790614df4565b90506138e0565b50815183511015613a74577fffffffffffffffffffffffffffffffffffffffffffffffffffffffffffffffff9350505050613a92565b815183511115613a8a5760019350505050613a92565b600093505050505b92915050565b600080600090507a184f03e93ff9f4daa797ed6e38ed64bf6a1f0100000000000000008310613af6577a184f03e93ff9f4daa797ed6e38ed64bf6a1f0100000000000000008381613aec57613aeb6154fb565b5b0492506040810190505b6d04ee2d6d415b85acef81000000008310613b33576d04ee2d6d415b85acef81000000008381613b2957613b286154fb565b5b0492506020810190505b662386f26fc100008310613b6257662386f26fc100008381613b5857613b576154fb565b5b0492506010810190505b6305f5e1008310613b8b576305f5e1008381613b8157613b806154fb565b5b0492506008810190505b6127108310613bb0576127108381613ba657613ba56154fb565b5b0492506004810190505b60648310613bd35760648381613bc957613bc86154fb565b5b0492506002810190505b600a8310613be2576001810190505b80915050919050565b6040518061018001604052806060815260200160008152602001600081526020016000815260200160008152602001600015158152602001600073ffffffffffffffffffffffffffffffffffffffff16815260200160608152602001606081526020016060815260200160608152602001606081525090565b508054613c7090614cda565b6000825580601f10613c825750613ca1565b601f016020900490600052602060002090810190613ca09190613d85565b5b50565b6040518060e0016040528060008152602001600081526020016000815260200160001515815260200160608152602001600073ffffffffffffffffffffffffffffffffffffffff16815260200160006007811115613d0557613d04614596565b5b81525090565b5080546000825590600052602060002090810190613d299190613da2565b50565b828054828255906000526020600020908101928215613d74579160200282015b82811115613d73578251829081613d639190615007565b5091602001919060010190613d4c565b5b509050613d819190613da2565b5090565b5b80821115613d9e576000816000905550600101613d86565b5090565b5b80821115613dc25760008181613db99190613c64565b50600101613da3565b5090565b6000604051905090565b600080fd5b600080fd5b6000819050919050565b613ded81613dda565b8114613df857600080fd5b50565b600081359050613e0a81613de4565b92915050565b600073ffffffffffffffffffffffffffffffffffffffff82169050919050565b6000613e3b82613e10565b9050919050565b613e4b81613e30565b8114613e5657600080fd5b50565b600081359050613e6881613e42565b92915050565b60008060408385031215613e8557613e84613dd0565b5b6000613e9385828601613dfb565b9250506020613ea485828601613e59565b9150509250929050565b600081519050919050565b600082825260208201905092915050565b6000819050602082019050919050565b600081519050919050565b600082825260208201905092915050565b60005b83811015613f14578082015181840152602081019050613ef9565b60008484015250505050565b6000601f19601f8301169050919050565b6000613f3c82613eda565b613f468185613ee5565b9350613f56818560208601613ef6565b613f5f81613f20565b840191505092915050565b613f7381613dda565b82525050565b60008115159050919050565b613f8e81613f79565b82525050565b613f9d81613e30565b82525050565b600081519050919050565b600082825260208201905092915050565b6000819050602082019050919050565b6000613fdb8383613f31565b905092915050565b6000602082019050919050565b6000613ffb82613fa3565b6140058185613fae565b93508360208202850161401785613fbf565b8060005b8581101561405357848403895281516140348582613fcf565b945061403f83613fe3565b925060208a0199505060018101905061401b565b50829750879550505050505092915050565b60006101808301600083015184820360008601526140838282613f31565b91505060208301516140986020860182613f6a565b5060408301516140ab6040860182613f6a565b5060608301516140be6060860182613f6a565b5060808301516140d16080860182613f6a565b5060a08301516140e460a0860182613f85565b5060c08301516140f760c0860182613f94565b5060e083015184820360e086015261410f8282613f31565b91505061010083015184820361010086015261412b8282613f31565b9150506101208301518482036101208601526141478282613f31565b9150506101408301518482036101408601526141638282613f31565b91505061016083015184820361016086015261417f8282613ff0565b9150508091505092915050565b60006141988383614065565b905092915050565b6000602082019050919050565b60006141b882613eae565b6141c28185613eb9565b9350836020820285016141d485613eca565b8060005b8581101561421057848403895281516141f1858261418c565b94506141fc836141a0565b925060208a019950506001810190506141d8565b50829750879550505050505092915050565b6000602082019050818103600083015261423c81846141ad565b905092915050565b600080fd5b600080fd5b7f4e487b7100000000000000000000000000000000000000000000000000000000600052604160045260246000fd5b61428682613f20565b810181811067ffffffffffffffff821117156142a5576142a461424e565b5b80604052505050565b60006142b8613dc6565b90506142c4828261427d565b919050565b600067ffffffffffffffff8211156142e4576142e361424e565b5b6142ed82613f20565b9050602081019050919050565b82818337600083830152505050565b600061431c614317846142c9565b6142ae565b90508281526020810184848401111561433857614337614249565b5b6143438482856142fa565b509392505050565b600082601f8301126143605761435f614244565b5b8135614370848260208601614309565b91505092915050565b600080604083850312156143905761438f613dd0565b5b600061439e85828601613dfb565b925050602083013567ffffffffffffffff8111156143bf576143be613dd5565b5b6143cb8582860161434b565b9150509250929050565b6143de81613dda565b82525050565b60006020820190506143f960008301846143d5565b92915050565b600067ffffffffffffffff82111561441a5761441961424e565b5b602082029050602081019050919050565b600080fd5b600061444361443e846143ff565b6142ae565b905080838252602082019050602084028301858111156144665761446561442b565b5b835b8181101561448f578061447b8882613dfb565b845260208401935050602081019050614468565b5050509392505050565b600082601f8301126144ae576144ad614244565b5b81356144be848260208601614430565b91505092915050565b6000602082840312156144dd576144dc613dd0565b5b600082013567ffffffffffffffff8111156144fb576144fa613dd5565b5b61450784828501614499565b91505092915050565b60006020828403121561452657614525613dd0565b5b600061453484828501613e59565b91505092915050565b60006020828403121561455357614552613dd0565b5b600061456184828501613dfb565b91505092915050565b600081519050919050565b600082825260208201905092915050565b6000819050602082019050919050565b7f4e487b7100000000000000000000000000000000000000000000000000000000600052602160045260246000fd5b600881106145d6576145d5614596565b5b50565b60008190506145e7826145c5565b919050565b60006145f7826145d9565b9050919050565b614607816145ec565b82525050565b600060e0830160008301516146256000860182613f6a565b5060208301516146386020860182613f6a565b50604083015161464b6040860182613f6a565b50606083015161465e6060860182613f85565b50608083015184820360808601526146768282613f31565b91505060a083015161468b60a0860182613f94565b5060c083015161469e60c08601826145fe565b508091505092915050565b60006146b5838361460d565b905092915050565b6000602082019050919050565b60006146d58261456a565b6146df8185614575565b9350836020820285016146f185614586565b8060005b8581101561472d578484038952815161470e85826146a9565b9450614719836146bd565b925060208a019950506001810190506146f5565b50829750879550505050505092915050565b6000602082019050818103600083015261475981846146ca565b905092915050565b61476a81613f79565b82525050565b600082825260208201905092915050565b600061478c82613eda565b6147968185614770565b93506147a6818560208601613ef6565b6147af81613f20565b840191505092915050565b6147c381613e30565b82525050565b6147d2816145ec565b82525050565b600060e0820190506147ed600083018a6143d5565b6147fa60208301896143d5565b61480760408301886143d5565b6148146060830187614761565b81810360808301526148268186614781565b905061483560a08301856147ba565b61484260c08301846147c9565b98975050505050505050565b600067ffffffffffffffff8211156148695761486861424e565b5b602082029050602081019050919050565b600061488d6148888461484e565b6142ae565b905080838252602082019050602084028301858111156148b0576148af61442b565b5b835b818110156148f757803567ffffffffffffffff8111156148d5576148d4614244565b5b8086016148e2898261434b565b855260208501945050506020810190506148b2565b5050509392505050565b600082601f83011261491657614915614244565b5b813561492684826020860161487a565b91505092915050565b60006020828403121561494557614944613dd0565b5b600082013567ffffffffffffffff81111561496357614962613dd5565b5b61496f84828501614901565b91505092915050565b6008811061498557600080fd5b50565b60008135905061499781614978565b92915050565b600080600080608085870312156149b7576149b6613dd0565b5b60006149c587828801613dfb565b94505060206149d687828801613dfb565b935050604085013567ffffffffffffffff8111156149f7576149f6613dd5565b5b614a038782880161434b565b9250506060614a1487828801614988565b91505092959194509250565b600060208284031215614a3657614a35613dd0565b5b600082013567ffffffffffffffff811115614a5457614a53613dd5565b5b614a608482850161434b565b91505092915050565b600067ffffffffffffffff821115614a8457614a8361424e565b5b602082029050602081019050919050565b600080fd5b600080fd5b600060808284031215614ab557614ab4614a95565b5b614abf60806142ae565b9050600082013567ffffffffffffffff811115614adf57614ade614a9a565b5b614aeb8482850161434b565b600083015250602082013567ffffffffffffffff811115614b0f57614b0e614a9a565b5b614b1b8482850161434b565b602083015250604082013567ffffffffffffffff811115614b3f57614b3e614a9a565b5b614b4b8482850161434b565b6040830152506060614b5f84828501613dfb565b60608301525092915050565b6000614b7e614b7984614a69565b6142ae565b90508083825260208201905060208402830185811115614ba157614ba061442b565b5b835b81811015614be857803567ffffffffffffffff811115614bc657614bc5614244565b5b808601614bd38982614a9f565b85526020850194505050602081019050614ba3565b5050509392505050565b600082601f830112614c0757614c06614244565b5b8135614c17848260208601614b6b565b91505092915050565b60008060408385031215614c3757614c36613dd0565b5b6000614c4585828601613dfb565b925050602083013567ffffffffffffffff811115614c6657614c65613dd5565b5b614c7285828601614bf2565b9150509250929050565b7f4e487b7100000000000000000000000000000000000000000000000000000000600052603260045260246000fd5b7f4e487b7100000000000000000000000000000000000000000000000000000000600052602260045260246000fd5b60006002820490506001821680614cf257607f821691505b602082108103614d0557614d04614cab565b5b50919050565b600081905092915050565b60008190508160005260206000209050919050565b60008154614d3881614cda565b614d428186614d0b565b94506001821660008114614d5d5760018114614d7257614da5565b60ff1983168652811515820286019350614da5565b614d7b85614d16565b60005b83811015614d9d57815481890152600182019150602081019050614d7e565b838801955050505b50505092915050565b6000614dba8284614d2b565b915081905092915050565b7f4e487b7100000000000000000000000000000000000000000000000000000000600052601160045260246000fd5b6000614dff82613dda565b91507fffffffffffffffffffffffffffffffffffffffffffffffffffffffffffffffff8203614e3157614e30614dc5565b5b600182019050919050565b6000614e4782613dda565b9150614e5283613dda565b9250828201905080821115614e6a57614e69614dc5565b5b92915050565b60006020601f8301049050919050565b600082821b905092915050565b600060088302614ebd7fffffffffffffffffffffffffffffffffffffffffffffffffffffffffffffffff82614e80565b614ec78683614e80565b95508019841693508086168417925050509392505050565b6000819050919050565b6000614f04614eff614efa84613dda565b614edf565b613dda565b9050919050565b6000819050919050565b614f1e83614ee9565b614f32614f2a82614f0b565b848454614e8d565b825550505050565b600090565b614f47614f3a565b614f52818484614f15565b505050565b5b81811015614f7657614f6b600082614f3f565b600181019050614f58565b5050565b601f821115614fbb57614f8c81614d16565b614f9584614e70565b81016020851015614fa4578190505b614fb8614fb085614e70565b830182614f57565b50505b505050565b600082821c905092915050565b6000614fde60001984600802614fc0565b1980831691505092915050565b6000614ff78383614fcd565b9150826002028217905092915050565b61501082613eda565b67ffffffffffffffff8111156150295761502861424e565b5b6150338254614cda565b61503e828285614f7a565b600060209050601f831160018114615071576000841561505f578287015190505b6150698582614feb565b8655506150d1565b601f19841661507f86614d16565b60005b828110156150a757848901518255600182019150602085019450602081019050615082565b868310156150c457848901516150c0601f891682614fcd565b8355505b6001600288020188555050505b505050505050565b7f57726f6e67206469726563746f72792049440000000000000000000000000000600082015250565b600061510f601283614770565b915061511a826150d9565b602082019050919050565b6000602082019050818103600083015261513e81615102565b9050919050565b7f4e6f204163636573730000000000000000000000000000000000000000000000600082015250565b600061517b600983614770565b915061518682615145565b602082019050919050565b600060208201905081810360008301526151aa8161516e565b9050919050565b60006151bc82613eda565b6151c68185614d0b565b93506151d6818560208601613ef6565b80840191505092915050565b60006151ee82846151b1565b915081905092915050565b600061520482613dda565b915061520f83613dda565b925082820390508181111561522757615226614dc5565b5b92915050565b7f4e6f2073756368206469726563746f7279000000000000000000000000000000600082015250565b6000615263601183614770565b915061526e8261522d565b602082019050919050565b6000602082019050818103600083015261529281615256565b9050919050565b60006152a582866151b1565b91506152b182856151b1565b91506152bd82846151b1565b9150819050949350505050565b6000815490506152d981614cda565b9050919050565b60008190508160005260206000209050919050565b8181036153035750506153db565b61530c826152ca565b67ffffffffffffffff8111156153255761532461424e565b5b61532f8254614cda565b61533a828285614f7a565b6000601f8311600181146153695760008415615357578287015490505b6153618582614feb565b8655506153d4565b601f198416615377876152e0565b965061538286614d16565b60005b828110156153aa57848901548255600182019150600185019450602081019050615385565b868310156153c757848901546153c3601f891682614fcd565b8355505b6001600288020188555050505b5050505050505b565b7f4e487b7100000000000000000000000000000000000000000000000000000000600052603160045260246000fd5b600061541782613dda565b915061542283613dda565b9250817fffffffffffffffffffffffffffffffffffffffffffffffffffffffffffffffff048311821515161561545b5761545a614dc5565b5b828202905092915050565b600061547182613dda565b91506000820361548457615483614dc5565b5b600182039050919050565b7f537472696e67733a20686578206c656e67746820696e73756666696369656e74600082015250565b60006154c5602083614770565b91506154d08261548f565b602082019050919050565b600060208201905081810360008301526154f4816154b8565b9050919050565b7f4e487b7100000000000000000000000000000000000000000000000000000000600052601260045260246000fdfea2646970667358221220d00d897c36a098e38769c93dbbcfea85f93a66200d5fa38fa771c988c99c0d9664736f6c63430008100033",
  "linkReferences": {},
  "deployedLinkReferences": {}
}