{
  "_format": "hh-sol-artifact-1",
  "contractName": "vStorageContract",
  "sourceName": "contracts/vStorage.sol",
  "abi": [
    {
      "inputs": [
        {
          "internalType": "uint256",
          "name": "_parentDir",
          "type": "uint256"
        },
        {
          "internalType": "string",
          "name": "_name",
          "type": "string"
        }
      ],
      "name": "createDir",
      "outputs": [],
      "stateMutability": "nonpayable",
      "type": "function"
    },
    {
      "inputs": [
        {
          "internalType": "uint256",
          "name": "",
          "type": "uint256"
        }
      ],
      "name": "dirs",
      "outputs": [
        {
          "internalType": "uint256",
          "name": "id",
          "type": "uint256"
        },
        {
          "internalType": "uint256",
          "name": "parentDir",
          "type": "uint256"
        },
        {
          "internalType": "uint256",
          "name": "updatedAt",
          "type": "uint256"
        },
        {
          "internalType": "bool",
          "name": "isFavorite",
          "type": "bool"
        },
        {
          "internalType": "string",
          "name": "name",
          "type": "string"
        },
        {
          "internalType": "address",
          "name": "owner",
          "type": "address"
        },
        {
          "internalType": "enum Utils.DirectoryColor",
          "name": "color",
          "type": "uint8"
        }
      ],
      "stateMutability": "view",
      "type": "function"
    },
    {
      "inputs": [
        {
          "internalType": "uint256",
          "name": "_dirId",
          "type": "uint256"
        },
        {
          "internalType": "address",
          "name": "_account",
          "type": "address"
        }
      ],
      "name": "getDirFiles",
      "outputs": [
        {
          "components": [
            {
              "internalType": "string",
              "name": "id",
              "type": "string"
            },
            {
              "internalType": "uint256",
              "name": "parentDir",
              "type": "uint256"
            },
            {
              "internalType": "uint256",
              "name": "version",
              "type": "uint256"
            },
            {
              "internalType": "uint256",
              "name": "updatedAt",
              "type": "uint256"
            },
            {
              "internalType": "uint256",
              "name": "size",
              "type": "uint256"
            },
            {
              "internalType": "bool",
              "name": "isFavorite",
              "type": "bool"
            },
            {
              "internalType": "address",
              "name": "owner",
              "type": "address"
            },
            {
              "internalType": "string",
              "name": "name",
              "type": "string"
            },
            {
              "internalType": "string",
              "name": "mimeType",
              "type": "string"
            },
            {
              "internalType": "string",
              "name": "ipfsHash",
              "type": "string"
            },
            {
              "internalType": "string",
              "name": "shareHash",
              "type": "string"
            },
            {
              "internalType": "string[]",
              "name": "versionHistory",
              "type": "string[]"
            }
          ],
          "internalType": "struct vStorageContract.File[]",
          "name": "",
          "type": "tuple[]"
        }
      ],
      "stateMutability": "view",
      "type": "function"
    },
    {
      "inputs": [
        {
          "internalType": "uint256",
          "name": "_dirId",
          "type": "uint256"
        },
        {
          "internalType": "address",
          "name": "_account",
          "type": "address"
        }
      ],
      "name": "getDirSubDirs",
      "outputs": [
        {
          "components": [
            {
              "internalType": "uint256",
              "name": "id",
              "type": "uint256"
            },
            {
              "internalType": "uint256",
              "name": "parentDir",
              "type": "uint256"
            },
            {
              "internalType": "uint256",
              "name": "updatedAt",
              "type": "uint256"
            },
            {
              "internalType": "bool",
              "name": "isFavorite",
              "type": "bool"
            },
            {
              "internalType": "string",
              "name": "name",
              "type": "string"
            },
            {
              "internalType": "address",
              "name": "owner",
              "type": "address"
            },
            {
              "internalType": "enum Utils.DirectoryColor",
              "name": "color",
              "type": "uint8"
            }
          ],
          "internalType": "struct vStorageContract.Directory[]",
          "name": "",
          "type": "tuple[]"
        }
      ],
      "stateMutability": "view",
      "type": "function"
    },
    {
      "inputs": [
        {
          "internalType": "uint256[]",
          "name": "_idList",
          "type": "uint256[]"
        }
      ],
      "name": "removeDirs",
      "outputs": [],
      "stateMutability": "nonpayable",
      "type": "function"
    },
    {
      "inputs": [
        {
          "internalType": "string[]",
          "name": "_idList",
          "type": "string[]"
        }
      ],
      "name": "removeFiles",
      "outputs": [],
      "stateMutability": "nonpayable",
      "type": "function"
    },
    {
      "inputs": [],
      "name": "totalDirs",
      "outputs": [
        {
          "internalType": "uint256",
          "name": "",
          "type": "uint256"
        }
      ],
      "stateMutability": "view",
      "type": "function"
    },
    {
      "inputs": [
        {
          "internalType": "uint256",
          "name": "_id",
          "type": "uint256"
        },
        {
          "internalType": "uint256",
          "name": "_parentDir",
          "type": "uint256"
        },
        {
          "internalType": "string",
          "name": "_name",
          "type": "string"
        },
        {
          "internalType": "enum Utils.DirectoryColor",
          "name": "_color",
          "type": "uint8"
        }
      ],
      "name": "updateDir",
      "outputs": [],
      "stateMutability": "nonpayable",
      "type": "function"
    },
    {
      "inputs": [
        {
          "internalType": "uint256",
          "name": "_dirId",
          "type": "uint256"
        },
        {
          "components": [
            {
              "internalType": "string",
              "name": "name",
              "type": "string"
            },
            {
              "internalType": "string",
              "name": "ipfsHash",
              "type": "string"
            },
            {
              "internalType": "string",
              "name": "mimeType",
              "type": "string"
            },
            {
              "internalType": "uint256",
              "name": "size",
              "type": "uint256"
            }
          ],
          "internalType": "struct vStorageContract.FileUpload[]",
          "name": "_uploadFiles",
          "type": "tuple[]"
        }
      ],
      "name": "uploadFiles",
      "outputs": [],
      "stateMutability": "nonpayable",
      "type": "function"
    },
    {
      "inputs": [
        {
          "internalType": "address",
          "name": "",
          "type": "address"
        }
      ],
      "name": "userFilesCount",
      "outputs": [
        {
          "internalType": "uint256",
          "name": "",
          "type": "uint256"
        }
      ],
      "stateMutability": "view",
      "type": "function"
    },
    {
      "inputs": [
        {
          "internalType": "address",
          "name": "",
          "type": "address"
        }
      ],
      "name": "userFilesSize",
      "outputs": [
        {
          "internalType": "uint256",
          "name": "",
          "type": "uint256"
        }
      ],
      "stateMutability": "view",
      "type": "function"
    }
  ],
  "bytecode": "0x608060405234801561001057600080fd5b5061446b806100206000396000f3fe608060405234801561001057600080fd5b50600436106100a95760003560e01c80637fa88c86116100715780637fa88c8614610164578063907083a21461019a5780639a822900146101b6578063a14171bf146101d2578063dda49e2d14610202578063fd21e3de14610232576100a9565b8063040b7bd1146100ae5780632bdd64d4146100de5780632bfb8c32146100fa5780635119a03d1461011857806355943e6b14610134575b600080fd5b6100c860048036038101906100c39190612dc2565b61024e565b6040516100d59190613176565b60405180910390f35b6100f860048036038101906100f391906132cd565b610827565b005b610102610a00565b60405161010f9190613338565b60405180910390f35b610132600480360381019061012d919061341b565b610a06565b005b61014e60048036038101906101499190613464565b610f3f565b60405161015b9190613338565b60405180910390f35b61017e60048036038101906101799190613491565b610f57565b604051610191979695949392919061359d565b60405180910390f35b6101b460048036038101906101af91906136f4565b61105b565b005b6101d060048036038101906101cb9190613762565b6114c7565b005b6101ec60048036038101906101e79190613464565b6115be565b6040516101f99190613338565b60405180910390f35b61021c60048036038101906102179190612dc2565b6115d6565b6040516102299190613952565b60405180910390f35b61024c60048036038101906102479190613b2b565b6118b4565b005b60606000600460008473ffffffffffffffffffffffffffffffffffffffff1673ffffffffffffffffffffffffffffffffffffffff168152602001908152602001600020600085815260200190815260200160002080549050905060008167ffffffffffffffff8111156102c4576102c36131a2565b5b6040519080825280602002602001820160405280156102fd57816020015b6102ea612b3f565b8152602001906001900390816102e25790505b50905060005b8281101561081b576002600460008773ffffffffffffffffffffffffffffffffffffffff1673ffffffffffffffffffffffffffffffffffffffff1681526020019081526020016000206000888152602001908152602001600020828154811061036f5761036e613b87565b5b906000526020600020016040516103869190613cb9565b9081526020016040518091039020604051806101800160405290816000820180546103b090613be5565b80601f01602080910402602001604051908101604052809291908181526020018280546103dc90613be5565b80156104295780601f106103fe57610100808354040283529160200191610429565b820191906000526020600020905b81548152906001019060200180831161040c57829003601f168201915b50505050508152602001600182015481526020016002820154815260200160038201548152602001600482015481526020016005820160009054906101000a900460ff161515151581526020016005820160019054906101000a900473ffffffffffffffffffffffffffffffffffffffff1673ffffffffffffffffffffffffffffffffffffffff1673ffffffffffffffffffffffffffffffffffffffff1681526020016006820180546104db90613be5565b80601f016020809104026020016040519081016040528092919081815260200182805461050790613be5565b80156105545780601f1061052957610100808354040283529160200191610554565b820191906000526020600020905b81548152906001019060200180831161053757829003601f168201915b5050505050815260200160078201805461056d90613be5565b80601f016020809104026020016040519081016040528092919081815260200182805461059990613be5565b80156105e65780601f106105bb576101008083540402835291602001916105e6565b820191906000526020600020905b8154815290600101906020018083116105c957829003601f168201915b505050505081526020016008820180546105ff90613be5565b80601f016020809104026020016040519081016040528092919081815260200182805461062b90613be5565b80156106785780601f1061064d57610100808354040283529160200191610678565b820191906000526020600020905b81548152906001019060200180831161065b57829003601f168201915b5050505050815260200160098201805461069190613be5565b80601f01602080910402602001604051908101604052809291908181526020018280546106bd90613be5565b801561070a5780601f106106df5761010080835404028352916020019161070a565b820191906000526020600020905b8154815290600101906020018083116106ed57829003601f168201915b50505050508152602001600a8201805480602002602001604051908101604052809291908181526020016000905b828210156107e457838290600052602060002001805461075790613be5565b80601f016020809104026020016040519081016040528092919081815260200182805461078390613be5565b80156107d05780601f106107a5576101008083540402835291602001916107d0565b820191906000526020600020905b8154815290600101906020018083116107b357829003601f168201915b505050505081526020019060010190610738565b50505050815250508282815181106107ff576107fe613b87565b5b60200260200101819052508061081490613cff565b9050610303565b50809250505092915050565b60016000808282546108399190613d47565b925050819055506040518060e0016040528060005481526020018381526020014281526020016000151581526020018281526020013373ffffffffffffffffffffffffffffffffffffffff1681526020016000600781111561089e5761089d613526565b5b815250600160008054815260200190815260200160002060008201518160000155602082015181600101556040820151816002015560608201518160030160006101000a81548160ff02191690831515021790555060808201518160040190816109089190613f12565b5060a08201518160050160006101000a81548173ffffffffffffffffffffffffffffffffffffffff021916908373ffffffffffffffffffffffffffffffffffffffff16021790555060c08201518160050160146101000a81548160ff0219169083600781111561097b5761097a613526565b5b0217905550905050600360003373ffffffffffffffffffffffffffffffffffffffff1673ffffffffffffffffffffffffffffffffffffffff168152602001908152602001600020600083815260200190815260200160002060005490806001815401808255809150506001900390600052602060002001600090919091909150555050565b60005481565b60005b8151811015610f3b576000828281518110610a2757610a26613b87565b5b602002602001015111610a6f576040517f08c379a0000000000000000000000000000000000000000000000000000000008152600401610a6690614030565b60405180910390fd5b600060016000848481518110610a8857610a87613b87565b5b6020026020010151815260200190815260200160002090503373ffffffffffffffffffffffffffffffffffffffff168160050160009054906101000a900473ffffffffffffffffffffffffffffffffffffffff1673ffffffffffffffffffffffffffffffffffffffff1614610b32576040517f08c379a0000000000000000000000000000000000000000000000000000000008152600401610b299061409c565b60405180910390fd5b610b93600360003373ffffffffffffffffffffffffffffffffffffffff1673ffffffffffffffffffffffffffffffffffffffff16815260200190815260200160002060008360010154815260200190815260200160002082600001546121cf565b8060030160009054906101000a900460ff1615610bf757610bf6600660003373ffffffffffffffffffffffffffffffffffffffff1673ffffffffffffffffffffffffffffffffffffffff16815260200190815260200160002082600001546121cf565b5b6000600360003373ffffffffffffffffffffffffffffffffffffffff1673ffffffffffffffffffffffffffffffffffffffff1681526020019081526020016000206000858581518110610c4d57610c4c613b87565b5b60200260200101518152602001908152602001600020805480602002602001604051908101604052809291908181526020018280548015610cad57602002820191906000526020600020905b815481526020019060010190808311610c99575b50505050509050600081511115610cc857610cc781610a06565b5b6000600460003373ffffffffffffffffffffffffffffffffffffffff1673ffffffffffffffffffffffffffffffffffffffff1681526020019081526020016000206000868681518110610d1e57610d1d613b87565b5b60200260200101518152602001908152602001600020805490501115610e8157610e80600460003373ffffffffffffffffffffffffffffffffffffffff1673ffffffffffffffffffffffffffffffffffffffff1681526020019081526020016000206000868681518110610d9557610d94613b87565b5b60200260200101518152602001908152602001600020805480602002602001604051908101604052809291908181526020016000905b82821015610e77578382906000526020600020018054610dea90613be5565b80601f0160208091040260200160405190810160405280929190818152602001828054610e1690613be5565b8015610e635780601f10610e3857610100808354040283529160200191610e63565b820191906000526020600020905b815481529060010190602001808311610e4657829003601f168201915b505050505081526020019060010190610dcb565b5050505061105b565b5b60016000858581518110610e9857610e97613b87565b5b60200260200101518152602001908152602001600020600080820160009055600182016000905560028201600090556003820160006101000a81549060ff0219169055600482016000610eeb9190612bb8565b6005820160006101000a81549073ffffffffffffffffffffffffffffffffffffffff02191690556005820160146101000a81549060ff02191690555050505080610f3490613cff565b9050610a09565b5050565b60086020528060005260406000206000915090505481565b60016020528060005260406000206000915090508060000154908060010154908060020154908060030160009054906101000a900460ff1690806004018054610f9f90613be5565b80601f0160208091040260200160405190810160405280929190818152602001828054610fcb90613be5565b80156110185780601f10610fed57610100808354040283529160200191611018565b820191906000526020600020905b815481529060010190602001808311610ffb57829003601f168201915b5050505050908060050160009054906101000a900473ffffffffffffffffffffffffffffffffffffffff16908060050160149054906101000a900460ff16905087565b60005b81518110156114c3576000600283838151811061107e5761107d613b87565b5b602002602001015160405161109391906140ed565b908152602001604051809103902090503373ffffffffffffffffffffffffffffffffffffffff168160050160019054906101000a900473ffffffffffffffffffffffffffffffffffffffff1673ffffffffffffffffffffffffffffffffffffffff1614611135576040517f08c379a000000000000000000000000000000000000000000000000000000000815260040161112c9061409c565b60405180910390fd5b61121e600460003373ffffffffffffffffffffffffffffffffffffffff1673ffffffffffffffffffffffffffffffffffffffff16815260200190815260200160002060008360010154815260200190815260200160002082600001805461119b90613be5565b80601f01602080910402602001604051908101604052809291908181526020018280546111c790613be5565b80156112145780601f106111e957610100808354040283529160200191611214565b820191906000526020600020905b8154815290600101906020018083116111f757829003601f168201915b50505050506122c0565b8060050160009054906101000a900460ff161561130a57611309600560003373ffffffffffffffffffffffffffffffffffffffff1673ffffffffffffffffffffffffffffffffffffffff16815260200190815260200160002082600001805461128690613be5565b80601f01602080910402602001604051908101604052809291908181526020018280546112b290613be5565b80156112ff5780601f106112d4576101008083540402835291602001916112ff565b820191906000526020600020905b8154815290600101906020018083116112e257829003601f168201915b50505050506122c0565b5b6001600760003373ffffffffffffffffffffffffffffffffffffffff1673ffffffffffffffffffffffffffffffffffffffff168152602001908152602001600020600082825461135a9190614104565b925050819055508060040154600860003373ffffffffffffffffffffffffffffffffffffffff1673ffffffffffffffffffffffffffffffffffffffff16815260200190815260200160002060008282546113b49190614104565b9250508190555060028383815181106113d0576113cf613b87565b5b60200260200101516040516113e591906140ed565b9081526020016040518091039020600080820160006114049190612bb8565b60018201600090556002820160009055600382016000905560048201600090556005820160006101000a81549060ff02191690556005820160016101000a81549073ffffffffffffffffffffffffffffffffffffffff021916905560068201600061146f9190612bb8565b60078201600061147f9190612bb8565b60088201600061148f9190612bb8565b60098201600061149f9190612bb8565b600a820160006114af9190612bf8565b505050806114bc90613cff565b905061105e565b5050565b60006001600086815260200190815260200160002090503373ffffffffffffffffffffffffffffffffffffffff168160050160009054906101000a900473ffffffffffffffffffffffffffffffffffffffff1673ffffffffffffffffffffffffffffffffffffffff1614611570576040517f08c379a00000000000000000000000000000000000000000000000000000000081526004016115679061409c565b60405180910390fd5b8381600101819055508281600401908161158a9190613f12565b50818160050160146101000a81548160ff021916908360078111156115b2576115b1613526565b5b02179055505050505050565b60076020528060005260406000206000915090505481565b60606000600360008473ffffffffffffffffffffffffffffffffffffffff1673ffffffffffffffffffffffffffffffffffffffff168152602001908152602001600020600085815260200190815260200160002080549050905060008167ffffffffffffffff81111561164c5761164b6131a2565b5b60405190808252806020026020018201604052801561168557816020015b611672612c19565b81526020019060019003908161166a5790505b50905060005b828110156118a85760016000600360008873ffffffffffffffffffffffffffffffffffffffff1673ffffffffffffffffffffffffffffffffffffffff168152602001908152602001600020600089815260200190815260200160002083815481106116f9576116f8613b87565b5b906000526020600020015481526020019081526020016000206040518060e00160405290816000820154815260200160018201548152602001600282015481526020016003820160009054906101000a900460ff1615151515815260200160048201805461176690613be5565b80601f016020809104026020016040519081016040528092919081815260200182805461179290613be5565b80156117df5780601f106117b4576101008083540402835291602001916117df565b820191906000526020600020905b8154815290600101906020018083116117c257829003601f168201915b505050505081526020016005820160009054906101000a900473ffffffffffffffffffffffffffffffffffffffff1673ffffffffffffffffffffffffffffffffffffffff1673ffffffffffffffffffffffffffffffffffffffff1681526020016005820160149054906101000a900460ff16600781111561186357611862613526565b5b600781111561187557611874613526565b5b8152505082828151811061188c5761188b613b87565b5b6020026020010181905250806118a190613cff565b905061168b565b50809250505092915050565b60006118d73373ffffffffffffffffffffffffffffffffffffffff166014612442565b90506000831115611b1c576000600160008581526020019081526020016000206040518060e00160405290816000820154815260200160018201548152602001600282015481526020016003820160009054906101000a900460ff1615151515815260200160048201805461194b90613be5565b80601f016020809104026020016040519081016040528092919081815260200182805461197790613be5565b80156119c45780601f10611999576101008083540402835291602001916119c4565b820191906000526020600020905b8154815290600101906020018083116119a757829003601f168201915b505050505081526020016005820160009054906101000a900473ffffffffffffffffffffffffffffffffffffffff1673ffffffffffffffffffffffffffffffffffffffff1673ffffffffffffffffffffffffffffffffffffffff1681526020016005820160149054906101000a900460ff166007811115611a4857611a47613526565b5b6007811115611a5a57611a59613526565b5b815250509050600081608001515111611aa8576040517f08c379a0000000000000000000000000000000000000000000000000000000008152600401611a9f90614184565b60405180910390fd5b8060a0015173ffffffffffffffffffffffffffffffffffffffff163373ffffffffffffffffffffffffffffffffffffffff1614611b1a576040517f08c379a0000000000000000000000000000000000000000000000000000000008152600401611b119061409c565b60405180910390fd5b505b60005b82518110156121c957600082611b348661267e565b858481518110611b4757611b46613b87565b5b602002602001015160000151604051602001611b65939291906141a4565b60405160208183030381529060405290506000600282604051611b8891906140ed565b908152602001604051809103902090506000816000018054611ba990613be5565b90501115611dcc573373ffffffffffffffffffffffffffffffffffffffff168160050160019054906101000a900473ffffffffffffffffffffffffffffffffffffffff1673ffffffffffffffffffffffffffffffffffffffff1614611c43576040517f08c379a0000000000000000000000000000000000000000000000000000000008152600401611c3a9061409c565b60405180910390fd5b8060040154600860003373ffffffffffffffffffffffffffffffffffffffff1673ffffffffffffffffffffffffffffffffffffffff1681526020019081526020016000206000828254611c969190614104565b92505081905550848381518110611cb057611caf613b87565b5b602002602001015160600151600860003373ffffffffffffffffffffffffffffffffffffffff1673ffffffffffffffffffffffffffffffffffffffff1681526020019081526020016000206000828254611d0a9190613d47565b925050819055506001816002016000828254611d269190613d47565b92505081905550848381518110611d4057611d3f613b87565b5b602002602001015160600151816004018190555080600a0181600801908060018154018082558091505060019003906000526020600020016000909190919091509081611d8d9190614200565b50848381518110611da157611da0613b87565b5b602002602001015160200151816008019081611dbd9190613f12565b5042816003018190555061219b565b60405180610180016040528083815260200187815260200160018152602001428152602001868581518110611e0457611e03613b87565b5b60200260200101516060015181526020016000151581526020013373ffffffffffffffffffffffffffffffffffffffff168152602001868581518110611e4d57611e4c613b87565b5b6020026020010151600001518152602001868581518110611e7157611e70613b87565b5b6020026020010151604001518152602001868581518110611e9557611e94613b87565b5b6020026020010151602001518152602001604051806020016040528060008152508152602001600067ffffffffffffffff811115611ed657611ed56131a2565b5b604051908082528060200260200182016040528015611f0957816020015b6060815260200190600190039081611ef45790505b50815250600283604051611f1d91906140ed565b90815260200160405180910390206000820151816000019081611f409190613f12565b506020820151816001015560408201518160020155606082015181600301556080820151816004015560a08201518160050160006101000a81548160ff02191690831515021790555060c08201518160050160016101000a81548173ffffffffffffffffffffffffffffffffffffffff021916908373ffffffffffffffffffffffffffffffffffffffff16021790555060e0820151816006019081611fe59190613f12565b50610100820151816007019081611ffc9190613f12565b506101208201518160080190816120139190613f12565b5061014082015181600901908161202a9190613f12565b5061016082015181600a019080519060200190612048929190612c80565b50905050600460003373ffffffffffffffffffffffffffffffffffffffff1673ffffffffffffffffffffffffffffffffffffffff1681526020019081526020016000206000878152602001908152602001600020829080600181540180825580915050600190039060005260206000200160009091909190915090816120ce9190613f12565b506001600760003373ffffffffffffffffffffffffffffffffffffffff1673ffffffffffffffffffffffffffffffffffffffff168152602001908152602001600020600082825461211f9190613d47565b9250508190555084838151811061213957612138613b87565b5b602002602001015160600151600860003373ffffffffffffffffffffffffffffffffffffffff1673ffffffffffffffffffffffffffffffffffffffff16815260200190815260200160002060008282546121939190613d47565b925050819055505b4260016000888152602001908152602001600020600201819055505050806121c290613cff565b9050611b1f565b50505050565b60008061222b8480548060200260200160405190810160405280929190818152602001828054801561222057602002820191906000526020600020905b81548152602001906001019080831161220c575b50505050508461274c565b9150915080156122ba576001848054905011156122925783600185805490506122549190614104565b8154811061226557612264613b87565b5b906000526020600020015484838154811061228357612282613b87565b5b90600052602060002001819055505b838054806122a3576122a26142e8565b5b600190038181906000526020600020016000905590555b50505050565b60008061239d84805480602002602001604051908101604052809291908181526020016000905b8282101561239357838290600052602060002001805461230690613be5565b80601f016020809104026020016040519081016040528092919081815260200182805461233290613be5565b801561237f5780601f106123545761010080835404028352916020019161237f565b820191906000526020600020905b81548152906001019060200180831161236257829003601f168201915b5050505050815260200190600101906122e7565b50505050846127aa565b91509150801561243c5760018480549050111561240c5783600185805490506123c69190614104565b815481106123d7576123d6613b87565b5b906000526020600020018483815481106123f4576123f3613b87565b5b90600052602060002001908161240a9190614200565b505b8380548061241d5761241c6142e8565b5b6001900381819060005260206000200160006124399190612bb8565b90555b50505050565b6060600060028360026124559190614317565b61245f9190613d47565b67ffffffffffffffff811115612478576124776131a2565b5b6040519080825280601f01601f1916602001820160405280156124aa5781602001600182028036833780820191505090505b5090507f3000000000000000000000000000000000000000000000000000000000000000816000815181106124e2576124e1613b87565b5b60200101907effffffffffffffffffffffffffffffffffffffffffffffffffffffffffffff1916908160001a9053507f78000000000000000000000000000000000000000000000000000000000000008160018151811061254657612545613b87565b5b60200101907effffffffffffffffffffffffffffffffffffffffffffffffffffffffffffff1916908160001a905350600060018460026125869190614317565b6125909190613d47565b90505b6001811115612630577f3031323334353637383961626364656600000000000000000000000000000000600f8616601081106125d2576125d1613b87565b5b1a60f81b8282815181106125e9576125e8613b87565b5b60200101907effffffffffffffffffffffffffffffffffffffffffffffffffffffffffffff1916908160001a905350600485901c94508061262990614371565b9050612593565b5060008414612674576040517f08c379a000000000000000000000000000000000000000000000000000000000815260040161266b906143e6565b60405180910390fd5b8091505092915050565b60606000600161268d84612812565b01905060008167ffffffffffffffff8111156126ac576126ab6131a2565b5b6040519080825280601f01601f1916602001820160405280156126de5781602001600182028036833780820191505090505b509050600082602001820190505b600115612741578080600190039150507f3031323334353637383961626364656600000000000000000000000000000000600a86061a8153600a858161273557612734614406565b5b049450600085036126ec575b819350505050919050565b60008060005b845181101561279a578385828151811061276f5761276e613b87565b5b6020026020010151036127895780600192509250506127a3565b8061279390613cff565b9050612752565b50600080915091505b9250929050565b60008060005b84518110156128025760006127df8683815181106127d1576127d0613b87565b5b602002602001015186612965565b036127f157806001925092505061280b565b806127fb90613cff565b90506127b0565b50600080915091505b9250929050565b600080600090507a184f03e93ff9f4daa797ed6e38ed64bf6a1f0100000000000000008310612870577a184f03e93ff9f4daa797ed6e38ed64bf6a1f010000000000000000838161286657612865614406565b5b0492506040810190505b6d04ee2d6d415b85acef810000000083106128ad576d04ee2d6d415b85acef810000000083816128a3576128a2614406565b5b0492506020810190505b662386f26fc1000083106128dc57662386f26fc1000083816128d2576128d1614406565b5b0492506010810190505b6305f5e1008310612905576305f5e10083816128fb576128fa614406565b5b0492506008810190505b612710831061292a5761271083816129205761291f614406565b5b0492506004810190505b6064831061294d576064838161294357612942614406565b5b0492506002810190505b600a831061295c576001810190505b80915050919050565b6000808390506000839050600082519050808251101561298457815190505b60005b81811015612ae5578281815181106129a2576129a1613b87565b5b602001015160f81c60f81b7effffffffffffffffffffffffffffffffffffffffffffffffffffffffffffff19168482815181106129e2576129e1613b87565b5b602001015160f81c60f81b7effffffffffffffffffffffffffffffffffffffffffffffffffffffffffffff19161015612a41577fffffffffffffffffffffffffffffffffffffffffffffffffffffffffffffffff945050505050612b39565b828181518110612a5457612a53613b87565b5b602001015160f81c60f81b7effffffffffffffffffffffffffffffffffffffffffffffffffffffffffffff1916848281518110612a9457612a93613b87565b5b602001015160f81c60f81b7effffffffffffffffffffffffffffffffffffffffffffffffffffffffffffff19161115612ad4576001945050505050612b39565b80612ade90613cff565b9050612987565b50815183511015612b1b577fffffffffffffffffffffffffffffffffffffffffffffffffffffffffffffffff9350505050612b39565b815183511115612b315760019350505050612b39565b600093505050505b92915050565b6040518061018001604052806060815260200160008152602001600081526020016000815260200160008152602001600015158152602001600073ffffffffffffffffffffffffffffffffffffffff16815260200160608152602001606081526020016060815260200160608152602001606081525090565b508054612bc490613be5565b6000825580601f10612bd65750612bf5565b601f016020900490600052602060002090810190612bf49190612cd9565b5b50565b5080546000825590600052602060002090810190612c169190612cf6565b50565b6040518060e0016040528060008152602001600081526020016000815260200160001515815260200160608152602001600073ffffffffffffffffffffffffffffffffffffffff16815260200160006007811115612c7a57612c79613526565b5b81525090565b828054828255906000526020600020908101928215612cc8579160200282015b82811115612cc7578251829081612cb79190613f12565b5091602001919060010190612ca0565b5b509050612cd59190612cf6565b5090565b5b80821115612cf2576000816000905550600101612cda565b5090565b5b80821115612d165760008181612d0d9190612bb8565b50600101612cf7565b5090565b6000604051905090565b600080fd5b600080fd5b6000819050919050565b612d4181612d2e565b8114612d4c57600080fd5b50565b600081359050612d5e81612d38565b92915050565b600073ffffffffffffffffffffffffffffffffffffffff82169050919050565b6000612d8f82612d64565b9050919050565b612d9f81612d84565b8114612daa57600080fd5b50565b600081359050612dbc81612d96565b92915050565b60008060408385031215612dd957612dd8612d24565b5b6000612de785828601612d4f565b9250506020612df885828601612dad565b9150509250929050565b600081519050919050565b600082825260208201905092915050565b6000819050602082019050919050565b600081519050919050565b600082825260208201905092915050565b60005b83811015612e68578082015181840152602081019050612e4d565b60008484015250505050565b6000601f19601f8301169050919050565b6000612e9082612e2e565b612e9a8185612e39565b9350612eaa818560208601612e4a565b612eb381612e74565b840191505092915050565b612ec781612d2e565b82525050565b60008115159050919050565b612ee281612ecd565b82525050565b612ef181612d84565b82525050565b600081519050919050565b600082825260208201905092915050565b6000819050602082019050919050565b6000612f2f8383612e85565b905092915050565b6000602082019050919050565b6000612f4f82612ef7565b612f598185612f02565b935083602082028501612f6b85612f13565b8060005b85811015612fa75784840389528151612f888582612f23565b9450612f9383612f37565b925060208a01995050600181019050612f6f565b50829750879550505050505092915050565b6000610180830160008301518482036000860152612fd78282612e85565b9150506020830151612fec6020860182612ebe565b506040830151612fff6040860182612ebe565b5060608301516130126060860182612ebe565b5060808301516130256080860182612ebe565b5060a083015161303860a0860182612ed9565b5060c083015161304b60c0860182612ee8565b5060e083015184820360e08601526130638282612e85565b91505061010083015184820361010086015261307f8282612e85565b91505061012083015184820361012086015261309b8282612e85565b9150506101408301518482036101408601526130b78282612e85565b9150506101608301518482036101608601526130d38282612f44565b9150508091505092915050565b60006130ec8383612fb9565b905092915050565b6000602082019050919050565b600061310c82612e02565b6131168185612e0d565b93508360208202850161312885612e1e565b8060005b85811015613164578484038952815161314585826130e0565b9450613150836130f4565b925060208a0199505060018101905061312c565b50829750879550505050505092915050565b600060208201905081810360008301526131908184613101565b905092915050565b600080fd5b600080fd5b7f4e487b7100000000000000000000000000000000000000000000000000000000600052604160045260246000fd5b6131da82612e74565b810181811067ffffffffffffffff821117156131f9576131f86131a2565b5b80604052505050565b600061320c612d1a565b905061321882826131d1565b919050565b600067ffffffffffffffff821115613238576132376131a2565b5b61324182612e74565b9050602081019050919050565b82818337600083830152505050565b600061327061326b8461321d565b613202565b90508281526020810184848401111561328c5761328b61319d565b5b61329784828561324e565b509392505050565b600082601f8301126132b4576132b3613198565b5b81356132c484826020860161325d565b91505092915050565b600080604083850312156132e4576132e3612d24565b5b60006132f285828601612d4f565b925050602083013567ffffffffffffffff81111561331357613312612d29565b5b61331f8582860161329f565b9150509250929050565b61333281612d2e565b82525050565b600060208201905061334d6000830184613329565b92915050565b600067ffffffffffffffff82111561336e5761336d6131a2565b5b602082029050602081019050919050565b600080fd5b600061339761339284613353565b613202565b905080838252602082019050602084028301858111156133ba576133b961337f565b5b835b818110156133e357806133cf8882612d4f565b8452602084019350506020810190506133bc565b5050509392505050565b600082601f83011261340257613401613198565b5b8135613412848260208601613384565b91505092915050565b60006020828403121561343157613430612d24565b5b600082013567ffffffffffffffff81111561344f5761344e612d29565b5b61345b848285016133ed565b91505092915050565b60006020828403121561347a57613479612d24565b5b600061348884828501612dad565b91505092915050565b6000602082840312156134a7576134a6612d24565b5b60006134b584828501612d4f565b91505092915050565b6134c781612ecd565b82525050565b600082825260208201905092915050565b60006134e982612e2e565b6134f381856134cd565b9350613503818560208601612e4a565b61350c81612e74565b840191505092915050565b61352081612d84565b82525050565b7f4e487b7100000000000000000000000000000000000000000000000000000000600052602160045260246000fd5b6008811061356657613565613526565b5b50565b600081905061357782613555565b919050565b600061358782613569565b9050919050565b6135978161357c565b82525050565b600060e0820190506135b2600083018a613329565b6135bf6020830189613329565b6135cc6040830188613329565b6135d960608301876134be565b81810360808301526135eb81866134de565b90506135fa60a0830185613517565b61360760c083018461358e565b98975050505050505050565b600067ffffffffffffffff82111561362e5761362d6131a2565b5b602082029050602081019050919050565b600061365261364d84613613565b613202565b905080838252602082019050602084028301858111156136755761367461337f565b5b835b818110156136bc57803567ffffffffffffffff81111561369a57613699613198565b5b8086016136a7898261329f565b85526020850194505050602081019050613677565b5050509392505050565b600082601f8301126136db576136da613198565b5b81356136eb84826020860161363f565b91505092915050565b60006020828403121561370a57613709612d24565b5b600082013567ffffffffffffffff81111561372857613727612d29565b5b613734848285016136c6565b91505092915050565b6008811061374a57600080fd5b50565b60008135905061375c8161373d565b92915050565b6000806000806080858703121561377c5761377b612d24565b5b600061378a87828801612d4f565b945050602061379b87828801612d4f565b935050604085013567ffffffffffffffff8111156137bc576137bb612d29565b5b6137c88782880161329f565b92505060606137d98782880161374d565b91505092959194509250565b600081519050919050565b600082825260208201905092915050565b6000819050602082019050919050565b61381a8161357c565b82525050565b600060e0830160008301516138386000860182612ebe565b50602083015161384b6020860182612ebe565b50604083015161385e6040860182612ebe565b5060608301516138716060860182612ed9565b50608083015184820360808601526138898282612e85565b91505060a083015161389e60a0860182612ee8565b5060c08301516138b160c0860182613811565b508091505092915050565b60006138c88383613820565b905092915050565b6000602082019050919050565b60006138e8826137e5565b6138f281856137f0565b93508360208202850161390485613801565b8060005b85811015613940578484038952815161392185826138bc565b945061392c836138d0565b925060208a01995050600181019050613908565b50829750879550505050505092915050565b6000602082019050818103600083015261396c81846138dd565b905092915050565b600067ffffffffffffffff82111561398f5761398e6131a2565b5b602082029050602081019050919050565b600080fd5b600080fd5b6000608082840312156139c0576139bf6139a0565b5b6139ca6080613202565b9050600082013567ffffffffffffffff8111156139ea576139e96139a5565b5b6139f68482850161329f565b600083015250602082013567ffffffffffffffff811115613a1a57613a196139a5565b5b613a268482850161329f565b602083015250604082013567ffffffffffffffff811115613a4a57613a496139a5565b5b613a568482850161329f565b6040830152506060613a6a84828501612d4f565b60608301525092915050565b6000613a89613a8484613974565b613202565b90508083825260208201905060208402830185811115613aac57613aab61337f565b5b835b81811015613af357803567ffffffffffffffff811115613ad157613ad0613198565b5b808601613ade89826139aa565b85526020850194505050602081019050613aae565b5050509392505050565b600082601f830112613b1257613b11613198565b5b8135613b22848260208601613a76565b91505092915050565b60008060408385031215613b4257613b41612d24565b5b6000613b5085828601612d4f565b925050602083013567ffffffffffffffff811115613b7157613b70612d29565b5b613b7d85828601613afd565b9150509250929050565b7f4e487b7100000000000000000000000000000000000000000000000000000000600052603260045260246000fd5b7f4e487b7100000000000000000000000000000000000000000000000000000000600052602260045260246000fd5b60006002820490506001821680613bfd57607f821691505b602082108103613c1057613c0f613bb6565b5b50919050565b600081905092915050565b60008190508160005260206000209050919050565b60008154613c4381613be5565b613c4d8186613c16565b94506001821660008114613c685760018114613c7d57613cb0565b60ff1983168652811515820286019350613cb0565b613c8685613c21565b60005b83811015613ca857815481890152600182019150602081019050613c89565b838801955050505b50505092915050565b6000613cc58284613c36565b915081905092915050565b7f4e487b7100000000000000000000000000000000000000000000000000000000600052601160045260246000fd5b6000613d0a82612d2e565b91507fffffffffffffffffffffffffffffffffffffffffffffffffffffffffffffffff8203613d3c57613d3b613cd0565b5b600182019050919050565b6000613d5282612d2e565b9150613d5d83612d2e565b9250828201905080821115613d7557613d74613cd0565b5b92915050565b60006020601f8301049050919050565b600082821b905092915050565b600060088302613dc87fffffffffffffffffffffffffffffffffffffffffffffffffffffffffffffffff82613d8b565b613dd28683613d8b565b95508019841693508086168417925050509392505050565b6000819050919050565b6000613e0f613e0a613e0584612d2e565b613dea565b612d2e565b9050919050565b6000819050919050565b613e2983613df4565b613e3d613e3582613e16565b848454613d98565b825550505050565b600090565b613e52613e45565b613e5d818484613e20565b505050565b5b81811015613e8157613e76600082613e4a565b600181019050613e63565b5050565b601f821115613ec657613e9781613c21565b613ea084613d7b565b81016020851015613eaf578190505b613ec3613ebb85613d7b565b830182613e62565b50505b505050565b600082821c905092915050565b6000613ee960001984600802613ecb565b1980831691505092915050565b6000613f028383613ed8565b9150826002028217905092915050565b613f1b82612e2e565b67ffffffffffffffff811115613f3457613f336131a2565b5b613f3e8254613be5565b613f49828285613e85565b600060209050601f831160018114613f7c5760008415613f6a578287015190505b613f748582613ef6565b865550613fdc565b601f198416613f8a86613c21565b60005b82811015613fb257848901518255600182019150602085019450602081019050613f8d565b86831015613fcf5784890151613fcb601f891682613ed8565b8355505b6001600288020188555050505b505050505050565b7f57726f6e67206469726563746f72792049440000000000000000000000000000600082015250565b600061401a6012836134cd565b915061402582613fe4565b602082019050919050565b600060208201905081810360008301526140498161400d565b9050919050565b7f4e6f204163636573730000000000000000000000000000000000000000000000600082015250565b60006140866009836134cd565b915061409182614050565b602082019050919050565b600060208201905081810360008301526140b581614079565b9050919050565b60006140c782612e2e565b6140d18185613c16565b93506140e1818560208601612e4a565b80840191505092915050565b60006140f982846140bc565b915081905092915050565b600061410f82612d2e565b915061411a83612d2e565b925082820390508181111561413257614131613cd0565b5b92915050565b7f4e6f2073756368206469726563746f7279000000000000000000000000000000600082015250565b600061416e6011836134cd565b915061417982614138565b602082019050919050565b6000602082019050818103600083015261419d81614161565b9050919050565b60006141b082866140bc565b91506141bc82856140bc565b91506141c882846140bc565b9150819050949350505050565b6000815490506141e481613be5565b9050919050565b60008190508160005260206000209050919050565b81810361420e5750506142e6565b614217826141d5565b67ffffffffffffffff8111156142305761422f6131a2565b5b61423a8254613be5565b614245828285613e85565b6000601f8311600181146142745760008415614262578287015490505b61426c8582613ef6565b8655506142df565b601f198416614282876141eb565b965061428d86613c21565b60005b828110156142b557848901548255600182019150600185019450602081019050614290565b868310156142d257848901546142ce601f891682613ed8565b8355505b6001600288020188555050505b5050505050505b565b7f4e487b7100000000000000000000000000000000000000000000000000000000600052603160045260246000fd5b600061432282612d2e565b915061432d83612d2e565b9250817fffffffffffffffffffffffffffffffffffffffffffffffffffffffffffffffff048311821515161561436657614365613cd0565b5b828202905092915050565b600061437c82612d2e565b91506000820361438f5761438e613cd0565b5b600182039050919050565b7f537472696e67733a20686578206c656e67746820696e73756666696369656e74600082015250565b60006143d06020836134cd565b91506143db8261439a565b602082019050919050565b600060208201905081810360008301526143ff816143c3565b9050919050565b7f4e487b7100000000000000000000000000000000000000000000000000000000600052601260045260246000fdfea2646970667358221220ac71793ff3e8163b8ef4f1a062595e455313bc105479cf5701595ecbc281007464736f6c63430008100033",
  "linkReferences": {},
  "deployedLinkReferences": {}
}