{
  "_format": "hh-sol-artifact-1",
  "contractName": "vStoreContract",
  "sourceName": "contracts/vStore.sol",
  "abi": [
    {
      "inputs": [
        {
          "internalType": "uint256",
          "name": "_parentDir",
          "type": "uint256"
        },
        {
          "internalType": "string",
          "name": "_name",
          "type": "string"
        }
      ],
      "name": "createDirectory",
      "outputs": [],
      "stateMutability": "nonpayable",
      "type": "function"
    },
    {
      "inputs": [
        {
          "internalType": "uint256",
          "name": "_dirId",
          "type": "uint256"
        }
      ],
      "name": "getDirFiles",
      "outputs": [
        {
          "components": [
            {
              "internalType": "string",
              "name": "id",
              "type": "string"
            },
            {
              "internalType": "uint256",
              "name": "parentDir",
              "type": "uint256"
            },
            {
              "internalType": "uint256",
              "name": "version",
              "type": "uint256"
            },
            {
              "internalType": "uint256",
              "name": "updatedAt",
              "type": "uint256"
            },
            {
              "internalType": "bool",
              "name": "isFavorite",
              "type": "bool"
            },
            {
              "internalType": "address",
              "name": "owner",
              "type": "address"
            },
            {
              "internalType": "string",
              "name": "name",
              "type": "string"
            },
            {
              "internalType": "string",
              "name": "ipfsHash",
              "type": "string"
            },
            {
              "internalType": "string",
              "name": "shareHash",
              "type": "string"
            },
            {
              "internalType": "string[]",
              "name": "versionHistory",
              "type": "string[]"
            }
          ],
          "internalType": "struct vStoreContract.File[]",
          "name": "",
          "type": "tuple[]"
        }
      ],
      "stateMutability": "view",
      "type": "function"
    },
    {
      "inputs": [
        {
          "internalType": "uint256",
          "name": "_dirId",
          "type": "uint256"
        }
      ],
      "name": "getDirSubDirs",
      "outputs": [
        {
          "components": [
            {
              "internalType": "uint256",
              "name": "id",
              "type": "uint256"
            },
            {
              "internalType": "uint256",
              "name": "parentDir",
              "type": "uint256"
            },
            {
              "internalType": "bool",
              "name": "isFavorite",
              "type": "bool"
            },
            {
              "internalType": "string",
              "name": "name",
              "type": "string"
            },
            {
              "internalType": "address",
              "name": "owner",
              "type": "address"
            },
            {
              "internalType": "enum Utils.DirectoryColor",
              "name": "color",
              "type": "uint8"
            }
          ],
          "internalType": "struct vStoreContract.Directory[]",
          "name": "",
          "type": "tuple[]"
        }
      ],
      "stateMutability": "view",
      "type": "function"
    },
    {
      "inputs": [
        {
          "internalType": "uint256",
          "name": "_id",
          "type": "uint256"
        }
      ],
      "name": "removeDirectory",
      "outputs": [],
      "stateMutability": "nonpayable",
      "type": "function"
    },
    {
      "inputs": [
        {
          "internalType": "string[]",
          "name": "_idList",
          "type": "string[]"
        }
      ],
      "name": "removeFiles",
      "outputs": [],
      "stateMutability": "nonpayable",
      "type": "function"
    },
    {
      "inputs": [
        {
          "internalType": "uint256",
          "name": "_id",
          "type": "uint256"
        },
        {
          "internalType": "uint256",
          "name": "_parentDir",
          "type": "uint256"
        },
        {
          "internalType": "string",
          "name": "_name",
          "type": "string"
        },
        {
          "internalType": "enum Utils.DirectoryColor",
          "name": "_color",
          "type": "uint8"
        }
      ],
      "name": "updateDirectory",
      "outputs": [],
      "stateMutability": "nonpayable",
      "type": "function"
    },
    {
      "inputs": [
        {
          "internalType": "uint256",
          "name": "_dirId",
          "type": "uint256"
        },
        {
          "components": [
            {
              "internalType": "string",
              "name": "name",
              "type": "string"
            },
            {
              "internalType": "string",
              "name": "ipfsHash",
              "type": "string"
            }
          ],
          "internalType": "struct vStoreContract.FileUpload[]",
          "name": "_files",
          "type": "tuple[]"
        }
      ],
      "name": "uploadFiles",
      "outputs": [],
      "stateMutability": "nonpayable",
      "type": "function"
    }
  ],
  "bytecode": "0x608060405234801561001057600080fd5b50613aaf806100206000396000f3fe608060405234801561001057600080fd5b506004361061007d5760003560e01c806348d389171161005b57806348d38917146100d6578063907083a214610106578063a40523dc14610122578063d5599ad1146101525761007d565b806314f610c01461008257806327c0eb401461009e57806343d3520f146100ba575b600080fd5b61009c60048036038101906100979190612999565b61016e565b005b6100b860048036038101906100b391906129f5565b61083a565b005b6100d460048036038101906100cf9190612a76565b610a03565b005b6100f060048036038101906100eb9190612af9565b610afa565b6040516100fd9190612e8a565b60405180910390f35b610120600480360381019061011b9190612f8d565b611036565b005b61013c60048036038101906101379190612af9565b6113d9565b6040516101499190613198565b60405180910390f35b61016c60048036038101906101679190612af9565b6116ac565b005b60006101913373ffffffffffffffffffffffffffffffffffffffff166014611b5b565b905060008311156103cc576000600160008581526020019081526020016000206040518060c001604052908160008201548152602001600182015481526020016002820160009054906101000a900460ff161515151581526020016003820180546101fb906131e9565b80601f0160208091040260200160405190810160405280929190818152602001828054610227906131e9565b80156102745780601f1061024957610100808354040283529160200191610274565b820191906000526020600020905b81548152906001019060200180831161025757829003601f168201915b505050505081526020016004820160009054906101000a900473ffffffffffffffffffffffffffffffffffffffff1673ffffffffffffffffffffffffffffffffffffffff1673ffffffffffffffffffffffffffffffffffffffff1681526020016004820160149054906101000a900460ff1660078111156102f8576102f7613002565b5b600781111561030a57610309613002565b5b815250509050600081606001515111610358576040517f08c379a000000000000000000000000000000000000000000000000000000000815260040161034f90613277565b60405180910390fd5b806080015173ffffffffffffffffffffffffffffffffffffffff163373ffffffffffffffffffffffffffffffffffffffff16146103ca576040517f08c379a00000000000000000000000000000000000000000000000000000000081526004016103c1906132e3565b60405180910390fd5b505b60005b8251811015610834576000826103e486611d97565b8584815181106103f7576103f6613303565b5b6020026020010151600001516040516020016104159392919061336e565b60405160208183030381529060405290506000600282604051610438919061339f565b908152602001604051809103902090506000816000018054610459906131e9565b90501115610587573373ffffffffffffffffffffffffffffffffffffffff168160040160019054906101000a900473ffffffffffffffffffffffffffffffffffffffff1673ffffffffffffffffffffffffffffffffffffffff16146104f3576040517f08c379a00000000000000000000000000000000000000000000000000000000081526004016104ea906132e3565b60405180910390fd5b600181600201600082825461050891906133e5565b92505081905550806008018160060190806001815401808255809150506001900390600052602060002001600090919091909150908161054891906135f0565b5084838151811061055c5761055b613303565b5b60200260200101516020015181600601908161057891906136d8565b50428160030181905550610821565b604051806101400160405280838152602001878152602001600181526020014281526020016000151581526020013373ffffffffffffffffffffffffffffffffffffffff1681526020018685815181106105e4576105e3613303565b5b602002602001015160000151815260200186858151811061060857610607613303565b5b6020026020010151602001518152602001604051806020016040528060008152508152602001600067ffffffffffffffff811115610649576106486126f1565b5b60405190808252806020026020018201604052801561067c57816020015b60608152602001906001900390816106675790505b50815250600283604051610690919061339f565b908152602001604051809103902060008201518160000190816106b391906136d8565b5060208201518160010155604082015181600201556060820151816003015560808201518160040160006101000a81548160ff02191690831515021790555060a08201518160040160016101000a81548173ffffffffffffffffffffffffffffffffffffffff021916908373ffffffffffffffffffffffffffffffffffffffff16021790555060c082015181600501908161074e91906136d8565b5060e082015181600601908161076491906136d8565b5061010082015181600701908161077b91906136d8565b506101208201518160080190805190602001906107999291906124cb565b50905050600460003373ffffffffffffffffffffffffffffffffffffffff1673ffffffffffffffffffffffffffffffffffffffff16815260200190815260200160002060008781526020019081526020016000208290806001815401808255809150506001900390600052602060002001600090919091909150908161081f91906136d8565b505b50508061082d906137aa565b90506103cf565b50505050565b600160008082825461084c91906133e5565b925050819055506040518060c0016040528060005481526020018381526020016000151581526020018281526020013373ffffffffffffffffffffffffffffffffffffffff168152602001600060078111156108ab576108aa613002565b5b8152506001600080548152602001908152602001600020600082015181600001556020820151816001015560408201518160020160006101000a81548160ff021916908315150217905550606082015181600301908161090b91906136d8565b5060808201518160040160006101000a81548173ffffffffffffffffffffffffffffffffffffffff021916908373ffffffffffffffffffffffffffffffffffffffff16021790555060a08201518160040160146101000a81548160ff0219169083600781111561097e5761097d613002565b5b0217905550905050600360003373ffffffffffffffffffffffffffffffffffffffff1673ffffffffffffffffffffffffffffffffffffffff168152602001908152602001600020600083815260200190815260200160002060005490806001815401808255809150506001900390600052602060002001600090919091909150555050565b60006001600086815260200190815260200160002090503373ffffffffffffffffffffffffffffffffffffffff168160040160009054906101000a900473ffffffffffffffffffffffffffffffffffffffff1673ffffffffffffffffffffffffffffffffffffffff1614610aac576040517f08c379a0000000000000000000000000000000000000000000000000000000008152600401610aa3906132e3565b60405180910390fd5b83816001018190555082816003019081610ac691906136d8565b50818160040160146101000a81548160ff02191690836007811115610aee57610aed613002565b5b02179055505050505050565b60606000600460003373ffffffffffffffffffffffffffffffffffffffff1673ffffffffffffffffffffffffffffffffffffffff168152602001908152602001600020600084815260200190815260200160002080549050905060008167ffffffffffffffff811115610b7057610b6f6126f1565b5b604051908082528060200260200182016040528015610ba957816020015b610b96612524565b815260200190600190039081610b8e5790505b50905060005b8281101561102b576002600460003373ffffffffffffffffffffffffffffffffffffffff1673ffffffffffffffffffffffffffffffffffffffff16815260200190815260200160002060008781526020019081526020016000208281548110610c1b57610c1a613303565b5b90600052602060002001604051610c329190613875565b908152602001604051809103902060405180610140016040529081600082018054610c5c906131e9565b80601f0160208091040260200160405190810160405280929190818152602001828054610c88906131e9565b8015610cd55780601f10610caa57610100808354040283529160200191610cd5565b820191906000526020600020905b815481529060010190602001808311610cb857829003601f168201915b505050505081526020016001820154815260200160028201548152602001600382015481526020016004820160009054906101000a900460ff161515151581526020016004820160019054906101000a900473ffffffffffffffffffffffffffffffffffffffff1673ffffffffffffffffffffffffffffffffffffffff1673ffffffffffffffffffffffffffffffffffffffff168152602001600582018054610d7d906131e9565b80601f0160208091040260200160405190810160405280929190818152602001828054610da9906131e9565b8015610df65780601f10610dcb57610100808354040283529160200191610df6565b820191906000526020600020905b815481529060010190602001808311610dd957829003601f168201915b50505050508152602001600682018054610e0f906131e9565b80601f0160208091040260200160405190810160405280929190818152602001828054610e3b906131e9565b8015610e885780601f10610e5d57610100808354040283529160200191610e88565b820191906000526020600020905b815481529060010190602001808311610e6b57829003601f168201915b50505050508152602001600782018054610ea1906131e9565b80601f0160208091040260200160405190810160405280929190818152602001828054610ecd906131e9565b8015610f1a5780601f10610eef57610100808354040283529160200191610f1a565b820191906000526020600020905b815481529060010190602001808311610efd57829003601f168201915b5050505050815260200160088201805480602002602001604051908101604052809291908181526020016000905b82821015610ff4578382906000526020600020018054610f67906131e9565b80601f0160208091040260200160405190810160405280929190818152602001828054610f93906131e9565b8015610fe05780601f10610fb557610100808354040283529160200191610fe0565b820191906000526020600020905b815481529060010190602001808311610fc357829003601f168201915b505050505081526020019060010190610f48565b505050508152505082828151811061100f5761100e613303565b5b602002602001018190525080611024906137aa565b9050610baf565b508092505050919050565b60005b81518110156113d5576000600283838151811061105957611058613303565b5b602002602001015160405161106e919061339f565b908152602001604051809103902090503373ffffffffffffffffffffffffffffffffffffffff168160040160019054906101000a900473ffffffffffffffffffffffffffffffffffffffff1673ffffffffffffffffffffffffffffffffffffffff1614611110576040517f08c379a0000000000000000000000000000000000000000000000000000000008152600401611107906132e3565b60405180910390fd5b6111f9600460003373ffffffffffffffffffffffffffffffffffffffff1673ffffffffffffffffffffffffffffffffffffffff168152602001908152602001600020600083600101548152602001908152602001600020826000018054611176906131e9565b80601f01602080910402602001604051908101604052809291908181526020018280546111a2906131e9565b80156111ef5780601f106111c4576101008083540402835291602001916111ef565b820191906000526020600020905b8154815290600101906020018083116111d257829003601f168201915b5050505050611e65565b8060040160009054906101000a900460ff16156112e5576112e4600560003373ffffffffffffffffffffffffffffffffffffffff1673ffffffffffffffffffffffffffffffffffffffff168152602001908152602001600020826000018054611261906131e9565b80601f016020809104026020016040519081016040528092919081815260200182805461128d906131e9565b80156112da5780601f106112af576101008083540402835291602001916112da565b820191906000526020600020905b8154815290600101906020018083116112bd57829003601f168201915b5050505050611e65565b5b60028383815181106112fa576112f9613303565b5b602002602001015160405161130f919061339f565b90815260200160405180910390206000808201600061132e919061258f565b6001820160009055600282016000905560038201600090556004820160006101000a81549060ff02191690556004820160016101000a81549073ffffffffffffffffffffffffffffffffffffffff0219169055600582016000611391919061258f565b6006820160006113a1919061258f565b6007820160006113b1919061258f565b6008820160006113c191906125cf565b505050806113ce906137aa565b9050611039565b5050565b60606000600360003373ffffffffffffffffffffffffffffffffffffffff1673ffffffffffffffffffffffffffffffffffffffff168152602001908152602001600020600084815260200190815260200160002080549050905060008167ffffffffffffffff81111561144f5761144e6126f1565b5b60405190808252806020026020018201604052801561148857816020015b6114756125f0565b81526020019060019003908161146d5790505b50905060005b828110156116a15760016000600360003373ffffffffffffffffffffffffffffffffffffffff1673ffffffffffffffffffffffffffffffffffffffff168152602001908152602001600020600088815260200190815260200160002083815481106114fc576114fb613303565b5b906000526020600020015481526020019081526020016000206040518060c001604052908160008201548152602001600182015481526020016002820160009054906101000a900460ff1615151515815260200160038201805461155f906131e9565b80601f016020809104026020016040519081016040528092919081815260200182805461158b906131e9565b80156115d85780601f106115ad576101008083540402835291602001916115d8565b820191906000526020600020905b8154815290600101906020018083116115bb57829003601f168201915b505050505081526020016004820160009054906101000a900473ffffffffffffffffffffffffffffffffffffffff1673ffffffffffffffffffffffffffffffffffffffff1673ffffffffffffffffffffffffffffffffffffffff1681526020016004820160149054906101000a900460ff16600781111561165c5761165b613002565b5b600781111561166e5761166d613002565b5b8152505082828151811061168557611684613303565b5b60200260200101819052508061169a906137aa565b905061148e565b508092505050919050565b600060016000838152602001908152602001600020905060008211611706576040517f08c379a00000000000000000000000000000000000000000000000000000000081526004016116fd906138d8565b60405180910390fd5b3373ffffffffffffffffffffffffffffffffffffffff168160040160009054906101000a900473ffffffffffffffffffffffffffffffffffffffff1673ffffffffffffffffffffffffffffffffffffffff1614611798576040517f08c379a000000000000000000000000000000000000000000000000000000000815260040161178f906132e3565b60405180910390fd5b6117f9600360003373ffffffffffffffffffffffffffffffffffffffff1673ffffffffffffffffffffffffffffffffffffffff1681526020019081526020016000206000836001015481526020019081526020016000208260000154611fe7565b8060020160009054906101000a900460ff161561185d5761185c600660003373ffffffffffffffffffffffffffffffffffffffff1673ffffffffffffffffffffffffffffffffffffffff1681526020019081526020016000208260000154611fe7565b5b6000600360003373ffffffffffffffffffffffffffffffffffffffff1673ffffffffffffffffffffffffffffffffffffffff16815260200190815260200160002060008481526020019081526020016000208054806020026020016040519081016040528092919081815260200182805480156118f957602002820191906000526020600020905b8154815260200190600101908083116118e5575b5050505050905060008151111561194c5760005b815181101561194a5761193982828151811061192c5761192b613303565b5b60200260200101516116ac565b80611943906137aa565b905061190d565b505b6000600460003373ffffffffffffffffffffffffffffffffffffffff1673ffffffffffffffffffffffffffffffffffffffff1681526020019081526020016000206000858152602001908152602001600020805490501115611ad157611ad0600460003373ffffffffffffffffffffffffffffffffffffffff1673ffffffffffffffffffffffffffffffffffffffff1681526020019081526020016000206000858152602001908152602001600020805480602002602001604051908101604052809291908181526020016000905b82821015611ac7578382906000526020600020018054611a3a906131e9565b80601f0160208091040260200160405190810160405280929190818152602001828054611a66906131e9565b8015611ab35780601f10611a8857610100808354040283529160200191611ab3565b820191906000526020600020905b815481529060010190602001808311611a9657829003601f168201915b505050505081526020019060010190611a1b565b50505050611036565b5b6001600084815260200190815260200160002060008082016000905560018201600090556002820160006101000a81549060ff0219169055600382016000611b19919061258f565b6004820160006101000a81549073ffffffffffffffffffffffffffffffffffffffff02191690556004820160146101000a81549060ff02191690555050505050565b606060006002836002611b6e91906138f8565b611b7891906133e5565b67ffffffffffffffff811115611b9157611b906126f1565b5b6040519080825280601f01601f191660200182016040528015611bc35781602001600182028036833780820191505090505b5090507f300000000000000000000000000000000000000000000000000000000000000081600081518110611bfb57611bfa613303565b5b60200101907effffffffffffffffffffffffffffffffffffffffffffffffffffffffffffff1916908160001a9053507f780000000000000000000000000000000000000000000000000000000000000081600181518110611c5f57611c5e613303565b5b60200101907effffffffffffffffffffffffffffffffffffffffffffffffffffffffffffff1916908160001a90535060006001846002611c9f91906138f8565b611ca991906133e5565b90505b6001811115611d49577f3031323334353637383961626364656600000000000000000000000000000000600f861660108110611ceb57611cea613303565b5b1a60f81b828281518110611d0257611d01613303565b5b60200101907effffffffffffffffffffffffffffffffffffffffffffffffffffffffffffff1916908160001a905350600485901c945080611d4290613952565b9050611cac565b5060008414611d8d576040517f08c379a0000000000000000000000000000000000000000000000000000000008152600401611d84906139c7565b60405180910390fd5b8091505092915050565b606060006001611da6846120d8565b01905060008167ffffffffffffffff811115611dc557611dc46126f1565b5b6040519080825280601f01601f191660200182016040528015611df75781602001600182028036833780820191505090505b509050600082602001820190505b600115611e5a578080600190039150507f3031323334353637383961626364656600000000000000000000000000000000600a86061a8153600a8581611e4e57611e4d6139e7565b5b04945060008503611e05575b819350505050919050565b600080611f4284805480602002602001604051908101604052809291908181526020016000905b82821015611f38578382906000526020600020018054611eab906131e9565b80601f0160208091040260200160405190810160405280929190818152602001828054611ed7906131e9565b8015611f245780601f10611ef957610100808354040283529160200191611f24565b820191906000526020600020905b815481529060010190602001808311611f0757829003601f168201915b505050505081526020019060010190611e8c565b505050508461222b565b915091508015611fe157600184805490501115611fb1578360018580549050611f6b9190613a16565b81548110611f7c57611f7b613303565b5b90600052602060002001848381548110611f9957611f98613303565b5b906000526020600020019081611faf91906135f0565b505b83805480611fc257611fc1613a4a565b5b600190038181906000526020600020016000611fde919061258f565b90555b50505050565b6000806120438480548060200260200160405190810160405280929190818152602001828054801561203857602002820191906000526020600020905b815481526020019060010190808311612024575b505050505084612293565b9150915080156120d2576001848054905011156120aa57836001858054905061206c9190613a16565b8154811061207d5761207c613303565b5b906000526020600020015484838154811061209b5761209a613303565b5b90600052602060002001819055505b838054806120bb576120ba613a4a565b5b600190038181906000526020600020016000905590555b50505050565b600080600090507a184f03e93ff9f4daa797ed6e38ed64bf6a1f0100000000000000008310612136577a184f03e93ff9f4daa797ed6e38ed64bf6a1f010000000000000000838161212c5761212b6139e7565b5b0492506040810190505b6d04ee2d6d415b85acef81000000008310612173576d04ee2d6d415b85acef81000000008381612169576121686139e7565b5b0492506020810190505b662386f26fc1000083106121a257662386f26fc100008381612198576121976139e7565b5b0492506010810190505b6305f5e10083106121cb576305f5e10083816121c1576121c06139e7565b5b0492506008810190505b61271083106121f05761271083816121e6576121e56139e7565b5b0492506004810190505b606483106122135760648381612209576122086139e7565b5b0492506002810190505b600a8310612222576001810190505b80915050919050565b60008060005b845181101561228357600061226086838151811061225257612251613303565b5b6020026020010151866122f1565b0361227257806001925092505061228c565b8061227c906137aa565b9050612231565b50600080915091505b9250929050565b60008060005b84518110156122e157838582815181106122b6576122b5613303565b5b6020026020010151036122d05780600192509250506122ea565b806122da906137aa565b9050612299565b50600080915091505b9250929050565b6000808390506000839050600082519050808251101561231057815190505b60005b818110156124715782818151811061232e5761232d613303565b5b602001015160f81c60f81b7effffffffffffffffffffffffffffffffffffffffffffffffffffffffffffff191684828151811061236e5761236d613303565b5b602001015160f81c60f81b7effffffffffffffffffffffffffffffffffffffffffffffffffffffffffffff191610156123cd577fffffffffffffffffffffffffffffffffffffffffffffffffffffffffffffffff9450505050506124c5565b8281815181106123e0576123df613303565b5b602001015160f81c60f81b7effffffffffffffffffffffffffffffffffffffffffffffffffffffffffffff19168482815181106124205761241f613303565b5b602001015160f81c60f81b7effffffffffffffffffffffffffffffffffffffffffffffffffffffffffffff191611156124605760019450505050506124c5565b8061246a906137aa565b9050612313565b508151835110156124a7577fffffffffffffffffffffffffffffffffffffffffffffffffffffffffffffffff93505050506124c5565b8151835111156124bd57600193505050506124c5565b600093505050505b92915050565b828054828255906000526020600020908101928215612513579160200282015b8281111561251257825182908161250291906136d8565b50916020019190600101906124eb565b5b5090506125209190612650565b5090565b60405180610140016040528060608152602001600081526020016000815260200160008152602001600015158152602001600073ffffffffffffffffffffffffffffffffffffffff168152602001606081526020016060815260200160608152602001606081525090565b50805461259b906131e9565b6000825580601f106125ad57506125cc565b601f0160209004906000526020600020908101906125cb9190612674565b5b50565b50805460008255906000526020600020908101906125ed9190612650565b50565b6040518060c00160405280600081526020016000815260200160001515815260200160608152602001600073ffffffffffffffffffffffffffffffffffffffff1681526020016000600781111561264a57612649613002565b5b81525090565b5b808211156126705760008181612667919061258f565b50600101612651565b5090565b5b8082111561268d576000816000905550600101612675565b5090565b6000604051905090565b600080fd5b600080fd5b6000819050919050565b6126b8816126a5565b81146126c357600080fd5b50565b6000813590506126d5816126af565b92915050565b600080fd5b6000601f19601f8301169050919050565b7f4e487b7100000000000000000000000000000000000000000000000000000000600052604160045260246000fd5b612729826126e0565b810181811067ffffffffffffffff82111715612748576127476126f1565b5b80604052505050565b600061275b612691565b90506127678282612720565b919050565b600067ffffffffffffffff821115612787576127866126f1565b5b602082029050602081019050919050565b600080fd5b600080fd5b600080fd5b600080fd5b600067ffffffffffffffff8211156127c7576127c66126f1565b5b6127d0826126e0565b9050602081019050919050565b82818337600083830152505050565b60006127ff6127fa846127ac565b612751565b90508281526020810184848401111561281b5761281a6127a7565b5b6128268482856127dd565b509392505050565b600082601f830112612843576128426126db565b5b81356128538482602086016127ec565b91505092915050565b6000604082840312156128725761287161279d565b5b61287c6040612751565b9050600082013567ffffffffffffffff81111561289c5761289b6127a2565b5b6128a88482850161282e565b600083015250602082013567ffffffffffffffff8111156128cc576128cb6127a2565b5b6128d88482850161282e565b60208301525092915050565b60006128f76128f28461276c565b612751565b9050808382526020820190506020840283018581111561291a57612919612798565b5b835b8181101561296157803567ffffffffffffffff81111561293f5761293e6126db565b5b80860161294c898261285c565b8552602085019450505060208101905061291c565b5050509392505050565b600082601f8301126129805761297f6126db565b5b81356129908482602086016128e4565b91505092915050565b600080604083850312156129b0576129af61269b565b5b60006129be858286016126c6565b925050602083013567ffffffffffffffff8111156129df576129de6126a0565b5b6129eb8582860161296b565b9150509250929050565b60008060408385031215612a0c57612a0b61269b565b5b6000612a1a858286016126c6565b925050602083013567ffffffffffffffff811115612a3b57612a3a6126a0565b5b612a478582860161282e565b9150509250929050565b60088110612a5e57600080fd5b50565b600081359050612a7081612a51565b92915050565b60008060008060808587031215612a9057612a8f61269b565b5b6000612a9e878288016126c6565b9450506020612aaf878288016126c6565b935050604085013567ffffffffffffffff811115612ad057612acf6126a0565b5b612adc8782880161282e565b9250506060612aed87828801612a61565b91505092959194509250565b600060208284031215612b0f57612b0e61269b565b5b6000612b1d848285016126c6565b91505092915050565b600081519050919050565b600082825260208201905092915050565b6000819050602082019050919050565b600081519050919050565b600082825260208201905092915050565b60005b83811015612b8c578082015181840152602081019050612b71565b60008484015250505050565b6000612ba382612b52565b612bad8185612b5d565b9350612bbd818560208601612b6e565b612bc6816126e0565b840191505092915050565b612bda816126a5565b82525050565b60008115159050919050565b612bf581612be0565b82525050565b600073ffffffffffffffffffffffffffffffffffffffff82169050919050565b6000612c2682612bfb565b9050919050565b612c3681612c1b565b82525050565b600081519050919050565b600082825260208201905092915050565b6000819050602082019050919050565b6000612c748383612b98565b905092915050565b6000602082019050919050565b6000612c9482612c3c565b612c9e8185612c47565b935083602082028501612cb085612c58565b8060005b85811015612cec5784840389528151612ccd8582612c68565b9450612cd883612c7c565b925060208a01995050600181019050612cb4565b50829750879550505050505092915050565b6000610140830160008301518482036000860152612d1c8282612b98565b9150506020830151612d316020860182612bd1565b506040830151612d446040860182612bd1565b506060830151612d576060860182612bd1565b506080830151612d6a6080860182612bec565b5060a0830151612d7d60a0860182612c2d565b5060c083015184820360c0860152612d958282612b98565b91505060e083015184820360e0860152612daf8282612b98565b915050610100830151848203610100860152612dcb8282612b98565b915050610120830151848203610120860152612de78282612c89565b9150508091505092915050565b6000612e008383612cfe565b905092915050565b6000602082019050919050565b6000612e2082612b26565b612e2a8185612b31565b935083602082028501612e3c85612b42565b8060005b85811015612e785784840389528151612e598582612df4565b9450612e6483612e08565b925060208a01995050600181019050612e40565b50829750879550505050505092915050565b60006020820190508181036000830152612ea48184612e15565b905092915050565b600067ffffffffffffffff821115612ec757612ec66126f1565b5b602082029050602081019050919050565b6000612eeb612ee684612eac565b612751565b90508083825260208201905060208402830185811115612f0e57612f0d612798565b5b835b81811015612f5557803567ffffffffffffffff811115612f3357612f326126db565b5b808601612f40898261282e565b85526020850194505050602081019050612f10565b5050509392505050565b600082601f830112612f7457612f736126db565b5b8135612f84848260208601612ed8565b91505092915050565b600060208284031215612fa357612fa261269b565b5b600082013567ffffffffffffffff811115612fc157612fc06126a0565b5b612fcd84828501612f5f565b91505092915050565b600081519050919050565b600082825260208201905092915050565b6000819050602082019050919050565b7f4e487b7100000000000000000000000000000000000000000000000000000000600052602160045260246000fd5b6008811061304257613041613002565b5b50565b600081905061305382613031565b919050565b600061306382613045565b9050919050565b61307381613058565b82525050565b600060c0830160008301516130916000860182612bd1565b5060208301516130a46020860182612bd1565b5060408301516130b76040860182612bec565b50606083015184820360608601526130cf8282612b98565b91505060808301516130e46080860182612c2d565b5060a08301516130f760a086018261306a565b508091505092915050565b600061310e8383613079565b905092915050565b6000602082019050919050565b600061312e82612fd6565b6131388185612fe1565b93508360208202850161314a85612ff2565b8060005b8581101561318657848403895281516131678582613102565b945061317283613116565b925060208a0199505060018101905061314e565b50829750879550505050505092915050565b600060208201905081810360008301526131b28184613123565b905092915050565b7f4e487b7100000000000000000000000000000000000000000000000000000000600052602260045260246000fd5b6000600282049050600182168061320157607f821691505b602082108103613214576132136131ba565b5b50919050565b600082825260208201905092915050565b7f4e6f2073756368206469726563746f7279000000000000000000000000000000600082015250565b600061326160118361321a565b915061326c8261322b565b602082019050919050565b6000602082019050818103600083015261329081613254565b9050919050565b7f4e6f204163636573730000000000000000000000000000000000000000000000600082015250565b60006132cd60098361321a565b91506132d882613297565b602082019050919050565b600060208201905081810360008301526132fc816132c0565b9050919050565b7f4e487b7100000000000000000000000000000000000000000000000000000000600052603260045260246000fd5b600081905092915050565b600061334882612b52565b6133528185613332565b9350613362818560208601612b6e565b80840191505092915050565b600061337a828661333d565b9150613386828561333d565b9150613392828461333d565b9150819050949350505050565b60006133ab828461333d565b915081905092915050565b7f4e487b7100000000000000000000000000000000000000000000000000000000600052601160045260246000fd5b60006133f0826126a5565b91506133fb836126a5565b9250828201905080821115613413576134126133b6565b5b92915050565b600081549050613428816131e9565b9050919050565b60008190508160005260206000209050919050565b60008190508160005260206000209050919050565b60006020601f8301049050919050565b600082821b905092915050565b6000600883026134a67fffffffffffffffffffffffffffffffffffffffffffffffffffffffffffffffff82613469565b6134b08683613469565b95508019841693508086168417925050509392505050565b6000819050919050565b60006134ed6134e86134e3846126a5565b6134c8565b6126a5565b9050919050565b6000819050919050565b613507836134d2565b61351b613513826134f4565b848454613476565b825550505050565b600090565b613530613523565b61353b8184846134fe565b505050565b5b8181101561355f57613554600082613528565b600181019050613541565b5050565b601f8211156135a4576135758161342f565b61357e84613459565b8101602085101561358d578190505b6135a161359985613459565b830182613540565b50505b505050565b600082821c905092915050565b60006135c7600019846008026135a9565b1980831691505092915050565b60006135e083836135b6565b9150826002028217905092915050565b8181036135fe5750506136d6565b61360782613419565b67ffffffffffffffff8111156136205761361f6126f1565b5b61362a82546131e9565b613635828285613563565b6000601f8311600181146136645760008415613652578287015490505b61365c85826135d4565b8655506136cf565b601f19841661367287613444565b965061367d8661342f565b60005b828110156136a557848901548255600182019150600185019450602081019050613680565b868310156136c257848901546136be601f8916826135b6565b8355505b6001600288020188555050505b5050505050505b565b6136e182612b52565b67ffffffffffffffff8111156136fa576136f96126f1565b5b61370482546131e9565b61370f828285613563565b600060209050601f8311600181146137425760008415613730578287015190505b61373a85826135d4565b8655506137a2565b601f1984166137508661342f565b60005b8281101561377857848901518255600182019150602085019450602081019050613753565b868310156137955784890151613791601f8916826135b6565b8355505b6001600288020188555050505b505050505050565b60006137b5826126a5565b91507fffffffffffffffffffffffffffffffffffffffffffffffffffffffffffffffff82036137e7576137e66133b6565b5b600182019050919050565b600081546137ff816131e9565b6138098186613332565b9450600182166000811461382457600181146138395761386c565b60ff198316865281151582028601935061386c565b6138428561342f565b60005b8381101561386457815481890152600182019150602081019050613845565b838801955050505b50505092915050565b600061388182846137f2565b915081905092915050565b7f57726f6e67206469726563746f72792049440000000000000000000000000000600082015250565b60006138c260128361321a565b91506138cd8261388c565b602082019050919050565b600060208201905081810360008301526138f1816138b5565b9050919050565b6000613903826126a5565b915061390e836126a5565b9250817fffffffffffffffffffffffffffffffffffffffffffffffffffffffffffffffff0483118215151615613947576139466133b6565b5b828202905092915050565b600061395d826126a5565b9150600082036139705761396f6133b6565b5b600182039050919050565b7f537472696e67733a20686578206c656e67746820696e73756666696369656e74600082015250565b60006139b160208361321a565b91506139bc8261397b565b602082019050919050565b600060208201905081810360008301526139e0816139a4565b9050919050565b7f4e487b7100000000000000000000000000000000000000000000000000000000600052601260045260246000fd5b6000613a21826126a5565b9150613a2c836126a5565b9250828203905081811115613a4457613a436133b6565b5b92915050565b7f4e487b7100000000000000000000000000000000000000000000000000000000600052603160045260246000fdfea26469706673582212203b47731df163df50c859c554fe874a54d68fb31954c9f39b746ffc69a9558ef264736f6c63430008100033",
  "linkReferences": {},
  "deployedLinkReferences": {}
}