{
  "_format": "hh-sol-artifact-1",
  "contractName": "vStoreContract",
  "sourceName": "contracts/vStore.sol",
  "abi": [
    {
      "inputs": [
        {
          "internalType": "uint256",
          "name": "_parentDir",
          "type": "uint256"
        },
        {
          "internalType": "string",
          "name": "_name",
          "type": "string"
        }
      ],
      "name": "createDirectory",
      "outputs": [],
      "stateMutability": "nonpayable",
      "type": "function"
    },
    {
      "inputs": [
        {
          "internalType": "uint256",
          "name": "",
          "type": "uint256"
        }
      ],
      "name": "dirs",
      "outputs": [
        {
          "internalType": "uint256",
          "name": "id",
          "type": "uint256"
        },
        {
          "internalType": "uint256",
          "name": "parentDir",
          "type": "uint256"
        },
        {
          "internalType": "uint256",
          "name": "updatedAt",
          "type": "uint256"
        },
        {
          "internalType": "bool",
          "name": "isFavorite",
          "type": "bool"
        },
        {
          "internalType": "string",
          "name": "name",
          "type": "string"
        },
        {
          "internalType": "address",
          "name": "owner",
          "type": "address"
        },
        {
          "internalType": "enum Utils.DirectoryColor",
          "name": "color",
          "type": "uint8"
        }
      ],
      "stateMutability": "view",
      "type": "function"
    },
    {
      "inputs": [
        {
          "internalType": "uint256",
          "name": "_dirId",
          "type": "uint256"
        },
        {
          "internalType": "address",
          "name": "_account",
          "type": "address"
        }
      ],
      "name": "getDirFiles",
      "outputs": [
        {
          "components": [
            {
              "internalType": "string",
              "name": "id",
              "type": "string"
            },
            {
              "internalType": "uint256",
              "name": "parentDir",
              "type": "uint256"
            },
            {
              "internalType": "uint256",
              "name": "version",
              "type": "uint256"
            },
            {
              "internalType": "uint256",
              "name": "updatedAt",
              "type": "uint256"
            },
            {
              "internalType": "uint256",
              "name": "size",
              "type": "uint256"
            },
            {
              "internalType": "bool",
              "name": "isFavorite",
              "type": "bool"
            },
            {
              "internalType": "address",
              "name": "owner",
              "type": "address"
            },
            {
              "internalType": "string",
              "name": "name",
              "type": "string"
            },
            {
              "internalType": "string",
              "name": "mimeType",
              "type": "string"
            },
            {
              "internalType": "string",
              "name": "ipfsHash",
              "type": "string"
            },
            {
              "internalType": "string",
              "name": "shareHash",
              "type": "string"
            },
            {
              "internalType": "string[]",
              "name": "versionHistory",
              "type": "string[]"
            }
          ],
          "internalType": "struct vStoreContract.File[]",
          "name": "",
          "type": "tuple[]"
        }
      ],
      "stateMutability": "view",
      "type": "function"
    },
    {
      "inputs": [
        {
          "internalType": "uint256",
          "name": "_dirId",
          "type": "uint256"
        },
        {
          "internalType": "address",
          "name": "_account",
          "type": "address"
        }
      ],
      "name": "getDirSubDirs",
      "outputs": [
        {
          "components": [
            {
              "internalType": "uint256",
              "name": "id",
              "type": "uint256"
            },
            {
              "internalType": "uint256",
              "name": "parentDir",
              "type": "uint256"
            },
            {
              "internalType": "uint256",
              "name": "updatedAt",
              "type": "uint256"
            },
            {
              "internalType": "bool",
              "name": "isFavorite",
              "type": "bool"
            },
            {
              "internalType": "string",
              "name": "name",
              "type": "string"
            },
            {
              "internalType": "address",
              "name": "owner",
              "type": "address"
            },
            {
              "internalType": "enum Utils.DirectoryColor",
              "name": "color",
              "type": "uint8"
            }
          ],
          "internalType": "struct vStoreContract.Directory[]",
          "name": "",
          "type": "tuple[]"
        }
      ],
      "stateMutability": "view",
      "type": "function"
    },
    {
      "inputs": [
        {
          "internalType": "uint256",
          "name": "_id",
          "type": "uint256"
        }
      ],
      "name": "removeDirectory",
      "outputs": [],
      "stateMutability": "nonpayable",
      "type": "function"
    },
    {
      "inputs": [
        {
          "internalType": "string[]",
          "name": "_idList",
          "type": "string[]"
        }
      ],
      "name": "removeFiles",
      "outputs": [],
      "stateMutability": "nonpayable",
      "type": "function"
    },
    {
      "inputs": [],
      "name": "totalDirs",
      "outputs": [
        {
          "internalType": "uint256",
          "name": "",
          "type": "uint256"
        }
      ],
      "stateMutability": "view",
      "type": "function"
    },
    {
      "inputs": [
        {
          "internalType": "uint256",
          "name": "_id",
          "type": "uint256"
        },
        {
          "internalType": "uint256",
          "name": "_parentDir",
          "type": "uint256"
        },
        {
          "internalType": "string",
          "name": "_name",
          "type": "string"
        },
        {
          "internalType": "enum Utils.DirectoryColor",
          "name": "_color",
          "type": "uint8"
        }
      ],
      "name": "updateDirectory",
      "outputs": [],
      "stateMutability": "nonpayable",
      "type": "function"
    },
    {
      "inputs": [
        {
          "internalType": "uint256",
          "name": "_dirId",
          "type": "uint256"
        },
        {
          "components": [
            {
              "internalType": "string",
              "name": "name",
              "type": "string"
            },
            {
              "internalType": "string",
              "name": "ipfsHash",
              "type": "string"
            },
            {
              "internalType": "string",
              "name": "mimeType",
              "type": "string"
            },
            {
              "internalType": "uint256",
              "name": "size",
              "type": "uint256"
            }
          ],
          "internalType": "struct vStoreContract.FileUpload[]",
          "name": "_uploadFiles",
          "type": "tuple[]"
        }
      ],
      "name": "uploadFiles",
      "outputs": [],
      "stateMutability": "nonpayable",
      "type": "function"
    },
    {
      "inputs": [
        {
          "internalType": "address",
          "name": "",
          "type": "address"
        }
      ],
      "name": "userFilesCount",
      "outputs": [
        {
          "internalType": "uint256",
          "name": "",
          "type": "uint256"
        }
      ],
      "stateMutability": "view",
      "type": "function"
    },
    {
      "inputs": [
        {
          "internalType": "address",
          "name": "",
          "type": "address"
        }
      ],
      "name": "userFilesSize",
      "outputs": [
        {
          "internalType": "uint256",
          "name": "",
          "type": "uint256"
        }
      ],
      "stateMutability": "view",
      "type": "function"
    }
  ],
  "bytecode": "0x608060405234801561001057600080fd5b506142dd806100206000396000f3fe608060405234801561001057600080fd5b50600436106100a95760003560e01c80637fa88c86116100715780637fa88c8614610164578063907083a21461019a578063a14171bf146101b6578063d5599ad1146101e6578063dda49e2d14610202578063fd21e3de14610232576100a9565b8063040b7bd1146100ae57806327c0eb40146100de5780632bfb8c32146100fa57806343d3520f1461011857806355943e6b14610134575b600080fd5b6100c860048036038101906100c39190612d40565b61024e565b6040516100d591906130f4565b60405180910390f35b6100f860048036038101906100f3919061324b565b610827565b005b610102610a00565b60405161010f91906132b6565b60405180910390f35b610132600480360381019061012d91906132f6565b610a06565b005b61014e60048036038101906101499190613379565b610afd565b60405161015b91906132b6565b60405180910390f35b61017e600480360381019061017991906133a6565b610b15565b60405161019197969594939291906134b2565b60405180910390f35b6101b460048036038101906101af919061360e565b610c19565b005b6101d060048036038101906101cb9190613379565b611085565b6040516101dd91906132b6565b60405180910390f35b61020060048036038101906101fb91906133a6565b61109d565b005b61021c60048036038101906102179190612d40565b611554565b60405161022991906137c4565b60405180910390f35b61024c6004803603810190610247919061399d565b611832565b005b60606000600460008473ffffffffffffffffffffffffffffffffffffffff1673ffffffffffffffffffffffffffffffffffffffff168152602001908152602001600020600085815260200190815260200160002080549050905060008167ffffffffffffffff8111156102c4576102c3613120565b5b6040519080825280602002602001820160405280156102fd57816020015b6102ea612abd565b8152602001906001900390816102e25790505b50905060005b8281101561081b576002600460008773ffffffffffffffffffffffffffffffffffffffff1673ffffffffffffffffffffffffffffffffffffffff1681526020019081526020016000206000888152602001908152602001600020828154811061036f5761036e6139f9565b5b906000526020600020016040516103869190613b2b565b9081526020016040518091039020604051806101800160405290816000820180546103b090613a57565b80601f01602080910402602001604051908101604052809291908181526020018280546103dc90613a57565b80156104295780601f106103fe57610100808354040283529160200191610429565b820191906000526020600020905b81548152906001019060200180831161040c57829003601f168201915b50505050508152602001600182015481526020016002820154815260200160038201548152602001600482015481526020016005820160009054906101000a900460ff161515151581526020016005820160019054906101000a900473ffffffffffffffffffffffffffffffffffffffff1673ffffffffffffffffffffffffffffffffffffffff1673ffffffffffffffffffffffffffffffffffffffff1681526020016006820180546104db90613a57565b80601f016020809104026020016040519081016040528092919081815260200182805461050790613a57565b80156105545780601f1061052957610100808354040283529160200191610554565b820191906000526020600020905b81548152906001019060200180831161053757829003601f168201915b5050505050815260200160078201805461056d90613a57565b80601f016020809104026020016040519081016040528092919081815260200182805461059990613a57565b80156105e65780601f106105bb576101008083540402835291602001916105e6565b820191906000526020600020905b8154815290600101906020018083116105c957829003601f168201915b505050505081526020016008820180546105ff90613a57565b80601f016020809104026020016040519081016040528092919081815260200182805461062b90613a57565b80156106785780601f1061064d57610100808354040283529160200191610678565b820191906000526020600020905b81548152906001019060200180831161065b57829003601f168201915b5050505050815260200160098201805461069190613a57565b80601f01602080910402602001604051908101604052809291908181526020018280546106bd90613a57565b801561070a5780601f106106df5761010080835404028352916020019161070a565b820191906000526020600020905b8154815290600101906020018083116106ed57829003601f168201915b50505050508152602001600a8201805480602002602001604051908101604052809291908181526020016000905b828210156107e457838290600052602060002001805461075790613a57565b80601f016020809104026020016040519081016040528092919081815260200182805461078390613a57565b80156107d05780601f106107a5576101008083540402835291602001916107d0565b820191906000526020600020905b8154815290600101906020018083116107b357829003601f168201915b505050505081526020019060010190610738565b50505050815250508282815181106107ff576107fe6139f9565b5b60200260200101819052508061081490613b71565b9050610303565b50809250505092915050565b60016000808282546108399190613bb9565b925050819055506040518060e0016040528060005481526020018381526020014281526020016000151581526020018281526020013373ffffffffffffffffffffffffffffffffffffffff1681526020016000600781111561089e5761089d61343b565b5b815250600160008054815260200190815260200160002060008201518160000155602082015181600101556040820151816002015560608201518160030160006101000a81548160ff02191690831515021790555060808201518160040190816109089190613d84565b5060a08201518160050160006101000a81548173ffffffffffffffffffffffffffffffffffffffff021916908373ffffffffffffffffffffffffffffffffffffffff16021790555060c08201518160050160146101000a81548160ff0219169083600781111561097b5761097a61343b565b5b0217905550905050600360003373ffffffffffffffffffffffffffffffffffffffff1673ffffffffffffffffffffffffffffffffffffffff168152602001908152602001600020600083815260200190815260200160002060005490806001815401808255809150506001900390600052602060002001600090919091909150555050565b60005481565b60006001600086815260200190815260200160002090503373ffffffffffffffffffffffffffffffffffffffff168160050160009054906101000a900473ffffffffffffffffffffffffffffffffffffffff1673ffffffffffffffffffffffffffffffffffffffff1614610aaf576040517f08c379a0000000000000000000000000000000000000000000000000000000008152600401610aa690613ea2565b60405180910390fd5b83816001018190555082816004019081610ac99190613d84565b50818160050160146101000a81548160ff02191690836007811115610af157610af061343b565b5b02179055505050505050565b60086020528060005260406000206000915090505481565b60016020528060005260406000206000915090508060000154908060010154908060020154908060030160009054906101000a900460ff1690806004018054610b5d90613a57565b80601f0160208091040260200160405190810160405280929190818152602001828054610b8990613a57565b8015610bd65780601f10610bab57610100808354040283529160200191610bd6565b820191906000526020600020905b815481529060010190602001808311610bb957829003601f168201915b5050505050908060050160009054906101000a900473ffffffffffffffffffffffffffffffffffffffff16908060050160149054906101000a900460ff16905087565b60005b81518110156110815760006002838381518110610c3c57610c3b6139f9565b5b6020026020010151604051610c519190613ef3565b908152602001604051809103902090503373ffffffffffffffffffffffffffffffffffffffff168160050160019054906101000a900473ffffffffffffffffffffffffffffffffffffffff1673ffffffffffffffffffffffffffffffffffffffff1614610cf3576040517f08c379a0000000000000000000000000000000000000000000000000000000008152600401610cea90613ea2565b60405180910390fd5b610ddc600460003373ffffffffffffffffffffffffffffffffffffffff1673ffffffffffffffffffffffffffffffffffffffff168152602001908152602001600020600083600101548152602001908152602001600020826000018054610d5990613a57565b80601f0160208091040260200160405190810160405280929190818152602001828054610d8590613a57565b8015610dd25780601f10610da757610100808354040283529160200191610dd2565b820191906000526020600020905b815481529060010190602001808311610db557829003601f168201915b505050505061214d565b8060050160009054906101000a900460ff1615610ec857610ec7600560003373ffffffffffffffffffffffffffffffffffffffff1673ffffffffffffffffffffffffffffffffffffffff168152602001908152602001600020826000018054610e4490613a57565b80601f0160208091040260200160405190810160405280929190818152602001828054610e7090613a57565b8015610ebd5780601f10610e9257610100808354040283529160200191610ebd565b820191906000526020600020905b815481529060010190602001808311610ea057829003601f168201915b505050505061214d565b5b6001600760003373ffffffffffffffffffffffffffffffffffffffff1673ffffffffffffffffffffffffffffffffffffffff1681526020019081526020016000206000828254610f189190613f0a565b925050819055508060040154600860003373ffffffffffffffffffffffffffffffffffffffff1673ffffffffffffffffffffffffffffffffffffffff1681526020019081526020016000206000828254610f729190613f0a565b925050819055506002838381518110610f8e57610f8d6139f9565b5b6020026020010151604051610fa39190613ef3565b908152602001604051809103902060008082016000610fc29190612b36565b60018201600090556002820160009055600382016000905560048201600090556005820160006101000a81549060ff02191690556005820160016101000a81549073ffffffffffffffffffffffffffffffffffffffff021916905560068201600061102d9190612b36565b60078201600061103d9190612b36565b60088201600061104d9190612b36565b60098201600061105d9190612b36565b600a8201600061106d9190612b76565b5050508061107a90613b71565b9050610c1c565b5050565b60076020528060005260406000206000915090505481565b6000600160008381526020019081526020016000209050600082116110f7576040517f08c379a00000000000000000000000000000000000000000000000000000000081526004016110ee90613f8a565b60405180910390fd5b3373ffffffffffffffffffffffffffffffffffffffff168160050160009054906101000a900473ffffffffffffffffffffffffffffffffffffffff1673ffffffffffffffffffffffffffffffffffffffff1614611189576040517f08c379a000000000000000000000000000000000000000000000000000000000815260040161118090613ea2565b60405180910390fd5b6111ea600360003373ffffffffffffffffffffffffffffffffffffffff1673ffffffffffffffffffffffffffffffffffffffff16815260200190815260200160002060008360010154815260200190815260200160002082600001546122cf565b8060030160009054906101000a900460ff161561124e5761124d600660003373ffffffffffffffffffffffffffffffffffffffff1673ffffffffffffffffffffffffffffffffffffffff16815260200190815260200160002082600001546122cf565b5b6000600360003373ffffffffffffffffffffffffffffffffffffffff1673ffffffffffffffffffffffffffffffffffffffff16815260200190815260200160002060008481526020019081526020016000208054806020026020016040519081016040528092919081815260200182805480156112ea57602002820191906000526020600020905b8154815260200190600101908083116112d6575b5050505050905060008151111561133d5760005b815181101561133b5761132a82828151811061131d5761131c6139f9565b5b602002602001015161109d565b8061133490613b71565b90506112fe565b505b6000600460003373ffffffffffffffffffffffffffffffffffffffff1673ffffffffffffffffffffffffffffffffffffffff16815260200190815260200160002060008581526020019081526020016000208054905011156114c2576114c1600460003373ffffffffffffffffffffffffffffffffffffffff1673ffffffffffffffffffffffffffffffffffffffff1681526020019081526020016000206000858152602001908152602001600020805480602002602001604051908101604052809291908181526020016000905b828210156114b857838290600052602060002001805461142b90613a57565b80601f016020809104026020016040519081016040528092919081815260200182805461145790613a57565b80156114a45780601f10611479576101008083540402835291602001916114a4565b820191906000526020600020905b81548152906001019060200180831161148757829003601f168201915b50505050508152602001906001019061140c565b50505050610c19565b5b60016000848152602001908152602001600020600080820160009055600182016000905560028201600090556003820160006101000a81549060ff02191690556004820160006115129190612b36565b6005820160006101000a81549073ffffffffffffffffffffffffffffffffffffffff02191690556005820160146101000a81549060ff02191690555050505050565b60606000600360008473ffffffffffffffffffffffffffffffffffffffff1673ffffffffffffffffffffffffffffffffffffffff168152602001908152602001600020600085815260200190815260200160002080549050905060008167ffffffffffffffff8111156115ca576115c9613120565b5b60405190808252806020026020018201604052801561160357816020015b6115f0612b97565b8152602001906001900390816115e85790505b50905060005b828110156118265760016000600360008873ffffffffffffffffffffffffffffffffffffffff1673ffffffffffffffffffffffffffffffffffffffff16815260200190815260200160002060008981526020019081526020016000208381548110611677576116766139f9565b5b906000526020600020015481526020019081526020016000206040518060e00160405290816000820154815260200160018201548152602001600282015481526020016003820160009054906101000a900460ff161515151581526020016004820180546116e490613a57565b80601f016020809104026020016040519081016040528092919081815260200182805461171090613a57565b801561175d5780601f106117325761010080835404028352916020019161175d565b820191906000526020600020905b81548152906001019060200180831161174057829003601f168201915b505050505081526020016005820160009054906101000a900473ffffffffffffffffffffffffffffffffffffffff1673ffffffffffffffffffffffffffffffffffffffff1673ffffffffffffffffffffffffffffffffffffffff1681526020016005820160149054906101000a900460ff1660078111156117e1576117e061343b565b5b60078111156117f3576117f261343b565b5b8152505082828151811061180a576118096139f9565b5b60200260200101819052508061181f90613b71565b9050611609565b50809250505092915050565b60006118553373ffffffffffffffffffffffffffffffffffffffff1660146123c0565b90506000831115611a9a576000600160008581526020019081526020016000206040518060e00160405290816000820154815260200160018201548152602001600282015481526020016003820160009054906101000a900460ff161515151581526020016004820180546118c990613a57565b80601f01602080910402602001604051908101604052809291908181526020018280546118f590613a57565b80156119425780601f1061191757610100808354040283529160200191611942565b820191906000526020600020905b81548152906001019060200180831161192557829003601f168201915b505050505081526020016005820160009054906101000a900473ffffffffffffffffffffffffffffffffffffffff1673ffffffffffffffffffffffffffffffffffffffff1673ffffffffffffffffffffffffffffffffffffffff1681526020016005820160149054906101000a900460ff1660078111156119c6576119c561343b565b5b60078111156119d8576119d761343b565b5b815250509050600081608001515111611a26576040517f08c379a0000000000000000000000000000000000000000000000000000000008152600401611a1d90613ff6565b60405180910390fd5b8060a0015173ffffffffffffffffffffffffffffffffffffffff163373ffffffffffffffffffffffffffffffffffffffff1614611a98576040517f08c379a0000000000000000000000000000000000000000000000000000000008152600401611a8f90613ea2565b60405180910390fd5b505b60005b825181101561214757600082611ab2866125fc565b858481518110611ac557611ac46139f9565b5b602002602001015160000151604051602001611ae393929190614016565b60405160208183030381529060405290506000600282604051611b069190613ef3565b908152602001604051809103902090506000816000018054611b2790613a57565b90501115611d4a573373ffffffffffffffffffffffffffffffffffffffff168160050160019054906101000a900473ffffffffffffffffffffffffffffffffffffffff1673ffffffffffffffffffffffffffffffffffffffff1614611bc1576040517f08c379a0000000000000000000000000000000000000000000000000000000008152600401611bb890613ea2565b60405180910390fd5b8060040154600860003373ffffffffffffffffffffffffffffffffffffffff1673ffffffffffffffffffffffffffffffffffffffff1681526020019081526020016000206000828254611c149190613f0a565b92505081905550848381518110611c2e57611c2d6139f9565b5b602002602001015160600151600860003373ffffffffffffffffffffffffffffffffffffffff1673ffffffffffffffffffffffffffffffffffffffff1681526020019081526020016000206000828254611c889190613bb9565b925050819055506001816002016000828254611ca49190613bb9565b92505081905550848381518110611cbe57611cbd6139f9565b5b602002602001015160600151816004018190555080600a0181600801908060018154018082558091505060019003906000526020600020016000909190919091509081611d0b9190614072565b50848381518110611d1f57611d1e6139f9565b5b602002602001015160200151816008019081611d3b9190613d84565b50428160030181905550612119565b60405180610180016040528083815260200187815260200160018152602001428152602001868581518110611d8257611d816139f9565b5b60200260200101516060015181526020016000151581526020013373ffffffffffffffffffffffffffffffffffffffff168152602001868581518110611dcb57611dca6139f9565b5b6020026020010151600001518152602001868581518110611def57611dee6139f9565b5b6020026020010151604001518152602001868581518110611e1357611e126139f9565b5b6020026020010151602001518152602001604051806020016040528060008152508152602001600067ffffffffffffffff811115611e5457611e53613120565b5b604051908082528060200260200182016040528015611e8757816020015b6060815260200190600190039081611e725790505b50815250600283604051611e9b9190613ef3565b90815260200160405180910390206000820151816000019081611ebe9190613d84565b506020820151816001015560408201518160020155606082015181600301556080820151816004015560a08201518160050160006101000a81548160ff02191690831515021790555060c08201518160050160016101000a81548173ffffffffffffffffffffffffffffffffffffffff021916908373ffffffffffffffffffffffffffffffffffffffff16021790555060e0820151816006019081611f639190613d84565b50610100820151816007019081611f7a9190613d84565b50610120820151816008019081611f919190613d84565b50610140820151816009019081611fa89190613d84565b5061016082015181600a019080519060200190611fc6929190612bfe565b50905050600460003373ffffffffffffffffffffffffffffffffffffffff1673ffffffffffffffffffffffffffffffffffffffff16815260200190815260200160002060008781526020019081526020016000208290806001815401808255809150506001900390600052602060002001600090919091909150908161204c9190613d84565b506001600760003373ffffffffffffffffffffffffffffffffffffffff1673ffffffffffffffffffffffffffffffffffffffff168152602001908152602001600020600082825461209d9190613bb9565b925050819055508483815181106120b7576120b66139f9565b5b602002602001015160600151600860003373ffffffffffffffffffffffffffffffffffffffff1673ffffffffffffffffffffffffffffffffffffffff16815260200190815260200160002060008282546121119190613bb9565b925050819055505b42600160008881526020019081526020016000206002018190555050508061214090613b71565b9050611a9d565b50505050565b60008061222a84805480602002602001604051908101604052809291908181526020016000905b8282101561222057838290600052602060002001805461219390613a57565b80601f01602080910402602001604051908101604052809291908181526020018280546121bf90613a57565b801561220c5780601f106121e15761010080835404028352916020019161220c565b820191906000526020600020905b8154815290600101906020018083116121ef57829003601f168201915b505050505081526020019060010190612174565b50505050846126ca565b9150915080156122c9576001848054905011156122995783600185805490506122539190613f0a565b81548110612264576122636139f9565b5b90600052602060002001848381548110612281576122806139f9565b5b9060005260206000200190816122979190614072565b505b838054806122aa576122a961415a565b5b6001900381819060005260206000200160006122c69190612b36565b90555b50505050565b60008061232b8480548060200260200160405190810160405280929190818152602001828054801561232057602002820191906000526020600020905b81548152602001906001019080831161230c575b505050505084612732565b9150915080156123ba576001848054905011156123925783600185805490506123549190613f0a565b81548110612365576123646139f9565b5b9060005260206000200154848381548110612383576123826139f9565b5b90600052602060002001819055505b838054806123a3576123a261415a565b5b600190038181906000526020600020016000905590555b50505050565b6060600060028360026123d39190614189565b6123dd9190613bb9565b67ffffffffffffffff8111156123f6576123f5613120565b5b6040519080825280601f01601f1916602001820160405280156124285781602001600182028036833780820191505090505b5090507f3000000000000000000000000000000000000000000000000000000000000000816000815181106124605761245f6139f9565b5b60200101907effffffffffffffffffffffffffffffffffffffffffffffffffffffffffffff1916908160001a9053507f7800000000000000000000000000000000000000000000000000000000000000816001815181106124c4576124c36139f9565b5b60200101907effffffffffffffffffffffffffffffffffffffffffffffffffffffffffffff1916908160001a905350600060018460026125049190614189565b61250e9190613bb9565b90505b60018111156125ae577f3031323334353637383961626364656600000000000000000000000000000000600f8616601081106125505761254f6139f9565b5b1a60f81b828281518110612567576125666139f9565b5b60200101907effffffffffffffffffffffffffffffffffffffffffffffffffffffffffffff1916908160001a905350600485901c9450806125a7906141e3565b9050612511565b50600084146125f2576040517f08c379a00000000000000000000000000000000000000000000000000000000081526004016125e990614258565b60405180910390fd5b8091505092915050565b60606000600161260b84612790565b01905060008167ffffffffffffffff81111561262a57612629613120565b5b6040519080825280601f01601f19166020018201604052801561265c5781602001600182028036833780820191505090505b509050600082602001820190505b6001156126bf578080600190039150507f3031323334353637383961626364656600000000000000000000000000000000600a86061a8153600a85816126b3576126b2614278565b5b0494506000850361266a575b819350505050919050565b60008060005b84518110156127225760006126ff8683815181106126f1576126f06139f9565b5b6020026020010151866128e3565b0361271157806001925092505061272b565b8061271b90613b71565b90506126d0565b50600080915091505b9250929050565b60008060005b84518110156127805783858281518110612755576127546139f9565b5b60200260200101510361276f578060019250925050612789565b8061277990613b71565b9050612738565b50600080915091505b9250929050565b600080600090507a184f03e93ff9f4daa797ed6e38ed64bf6a1f01000000000000000083106127ee577a184f03e93ff9f4daa797ed6e38ed64bf6a1f01000000000000000083816127e4576127e3614278565b5b0492506040810190505b6d04ee2d6d415b85acef8100000000831061282b576d04ee2d6d415b85acef8100000000838161282157612820614278565b5b0492506020810190505b662386f26fc10000831061285a57662386f26fc1000083816128505761284f614278565b5b0492506010810190505b6305f5e1008310612883576305f5e100838161287957612878614278565b5b0492506008810190505b61271083106128a857612710838161289e5761289d614278565b5b0492506004810190505b606483106128cb57606483816128c1576128c0614278565b5b0492506002810190505b600a83106128da576001810190505b80915050919050565b6000808390506000839050600082519050808251101561290257815190505b60005b81811015612a63578281815181106129205761291f6139f9565b5b602001015160f81c60f81b7effffffffffffffffffffffffffffffffffffffffffffffffffffffffffffff19168482815181106129605761295f6139f9565b5b602001015160f81c60f81b7effffffffffffffffffffffffffffffffffffffffffffffffffffffffffffff191610156129bf577fffffffffffffffffffffffffffffffffffffffffffffffffffffffffffffffff945050505050612ab7565b8281815181106129d2576129d16139f9565b5b602001015160f81c60f81b7effffffffffffffffffffffffffffffffffffffffffffffffffffffffffffff1916848281518110612a1257612a116139f9565b5b602001015160f81c60f81b7effffffffffffffffffffffffffffffffffffffffffffffffffffffffffffff19161115612a52576001945050505050612ab7565b80612a5c90613b71565b9050612905565b50815183511015612a99577fffffffffffffffffffffffffffffffffffffffffffffffffffffffffffffffff9350505050612ab7565b815183511115612aaf5760019350505050612ab7565b600093505050505b92915050565b6040518061018001604052806060815260200160008152602001600081526020016000815260200160008152602001600015158152602001600073ffffffffffffffffffffffffffffffffffffffff16815260200160608152602001606081526020016060815260200160608152602001606081525090565b508054612b4290613a57565b6000825580601f10612b545750612b73565b601f016020900490600052602060002090810190612b729190612c57565b5b50565b5080546000825590600052602060002090810190612b949190612c74565b50565b6040518060e0016040528060008152602001600081526020016000815260200160001515815260200160608152602001600073ffffffffffffffffffffffffffffffffffffffff16815260200160006007811115612bf857612bf761343b565b5b81525090565b828054828255906000526020600020908101928215612c46579160200282015b82811115612c45578251829081612c359190613d84565b5091602001919060010190612c1e565b5b509050612c539190612c74565b5090565b5b80821115612c70576000816000905550600101612c58565b5090565b5b80821115612c945760008181612c8b9190612b36565b50600101612c75565b5090565b6000604051905090565b600080fd5b600080fd5b6000819050919050565b612cbf81612cac565b8114612cca57600080fd5b50565b600081359050612cdc81612cb6565b92915050565b600073ffffffffffffffffffffffffffffffffffffffff82169050919050565b6000612d0d82612ce2565b9050919050565b612d1d81612d02565b8114612d2857600080fd5b50565b600081359050612d3a81612d14565b92915050565b60008060408385031215612d5757612d56612ca2565b5b6000612d6585828601612ccd565b9250506020612d7685828601612d2b565b9150509250929050565b600081519050919050565b600082825260208201905092915050565b6000819050602082019050919050565b600081519050919050565b600082825260208201905092915050565b60005b83811015612de6578082015181840152602081019050612dcb565b60008484015250505050565b6000601f19601f8301169050919050565b6000612e0e82612dac565b612e188185612db7565b9350612e28818560208601612dc8565b612e3181612df2565b840191505092915050565b612e4581612cac565b82525050565b60008115159050919050565b612e6081612e4b565b82525050565b612e6f81612d02565b82525050565b600081519050919050565b600082825260208201905092915050565b6000819050602082019050919050565b6000612ead8383612e03565b905092915050565b6000602082019050919050565b6000612ecd82612e75565b612ed78185612e80565b935083602082028501612ee985612e91565b8060005b85811015612f255784840389528151612f068582612ea1565b9450612f1183612eb5565b925060208a01995050600181019050612eed565b50829750879550505050505092915050565b6000610180830160008301518482036000860152612f558282612e03565b9150506020830151612f6a6020860182612e3c565b506040830151612f7d6040860182612e3c565b506060830151612f906060860182612e3c565b506080830151612fa36080860182612e3c565b5060a0830151612fb660a0860182612e57565b5060c0830151612fc960c0860182612e66565b5060e083015184820360e0860152612fe18282612e03565b915050610100830151848203610100860152612ffd8282612e03565b9150506101208301518482036101208601526130198282612e03565b9150506101408301518482036101408601526130358282612e03565b9150506101608301518482036101608601526130518282612ec2565b9150508091505092915050565b600061306a8383612f37565b905092915050565b6000602082019050919050565b600061308a82612d80565b6130948185612d8b565b9350836020820285016130a685612d9c565b8060005b858110156130e257848403895281516130c3858261305e565b94506130ce83613072565b925060208a019950506001810190506130aa565b50829750879550505050505092915050565b6000602082019050818103600083015261310e818461307f565b905092915050565b600080fd5b600080fd5b7f4e487b7100000000000000000000000000000000000000000000000000000000600052604160045260246000fd5b61315882612df2565b810181811067ffffffffffffffff8211171561317757613176613120565b5b80604052505050565b600061318a612c98565b9050613196828261314f565b919050565b600067ffffffffffffffff8211156131b6576131b5613120565b5b6131bf82612df2565b9050602081019050919050565b82818337600083830152505050565b60006131ee6131e98461319b565b613180565b90508281526020810184848401111561320a5761320961311b565b5b6132158482856131cc565b509392505050565b600082601f83011261323257613231613116565b5b81356132428482602086016131db565b91505092915050565b6000806040838503121561326257613261612ca2565b5b600061327085828601612ccd565b925050602083013567ffffffffffffffff81111561329157613290612ca7565b5b61329d8582860161321d565b9150509250929050565b6132b081612cac565b82525050565b60006020820190506132cb60008301846132a7565b92915050565b600881106132de57600080fd5b50565b6000813590506132f0816132d1565b92915050565b600080600080608085870312156133105761330f612ca2565b5b600061331e87828801612ccd565b945050602061332f87828801612ccd565b935050604085013567ffffffffffffffff8111156133505761334f612ca7565b5b61335c8782880161321d565b925050606061336d878288016132e1565b91505092959194509250565b60006020828403121561338f5761338e612ca2565b5b600061339d84828501612d2b565b91505092915050565b6000602082840312156133bc576133bb612ca2565b5b60006133ca84828501612ccd565b91505092915050565b6133dc81612e4b565b82525050565b600082825260208201905092915050565b60006133fe82612dac565b61340881856133e2565b9350613418818560208601612dc8565b61342181612df2565b840191505092915050565b61343581612d02565b82525050565b7f4e487b7100000000000000000000000000000000000000000000000000000000600052602160045260246000fd5b6008811061347b5761347a61343b565b5b50565b600081905061348c8261346a565b919050565b600061349c8261347e565b9050919050565b6134ac81613491565b82525050565b600060e0820190506134c7600083018a6132a7565b6134d460208301896132a7565b6134e160408301886132a7565b6134ee60608301876133d3565b818103608083015261350081866133f3565b905061350f60a083018561342c565b61351c60c08301846134a3565b98975050505050505050565b600067ffffffffffffffff82111561354357613542613120565b5b602082029050602081019050919050565b600080fd5b600061356c61356784613528565b613180565b9050808382526020820190506020840283018581111561358f5761358e613554565b5b835b818110156135d657803567ffffffffffffffff8111156135b4576135b3613116565b5b8086016135c1898261321d565b85526020850194505050602081019050613591565b5050509392505050565b600082601f8301126135f5576135f4613116565b5b8135613605848260208601613559565b91505092915050565b60006020828403121561362457613623612ca2565b5b600082013567ffffffffffffffff81111561364257613641612ca7565b5b61364e848285016135e0565b91505092915050565b600081519050919050565b600082825260208201905092915050565b6000819050602082019050919050565b61368c81613491565b82525050565b600060e0830160008301516136aa6000860182612e3c565b5060208301516136bd6020860182612e3c565b5060408301516136d06040860182612e3c565b5060608301516136e36060860182612e57565b50608083015184820360808601526136fb8282612e03565b91505060a083015161371060a0860182612e66565b5060c083015161372360c0860182613683565b508091505092915050565b600061373a8383613692565b905092915050565b6000602082019050919050565b600061375a82613657565b6137648185613662565b93508360208202850161377685613673565b8060005b858110156137b25784840389528151613793858261372e565b945061379e83613742565b925060208a0199505060018101905061377a565b50829750879550505050505092915050565b600060208201905081810360008301526137de818461374f565b905092915050565b600067ffffffffffffffff82111561380157613800613120565b5b602082029050602081019050919050565b600080fd5b600080fd5b60006080828403121561383257613831613812565b5b61383c6080613180565b9050600082013567ffffffffffffffff81111561385c5761385b613817565b5b6138688482850161321d565b600083015250602082013567ffffffffffffffff81111561388c5761388b613817565b5b6138988482850161321d565b602083015250604082013567ffffffffffffffff8111156138bc576138bb613817565b5b6138c88482850161321d565b60408301525060606138dc84828501612ccd565b60608301525092915050565b60006138fb6138f6846137e6565b613180565b9050808382526020820190506020840283018581111561391e5761391d613554565b5b835b8181101561396557803567ffffffffffffffff81111561394357613942613116565b5b808601613950898261381c565b85526020850194505050602081019050613920565b5050509392505050565b600082601f83011261398457613983613116565b5b81356139948482602086016138e8565b91505092915050565b600080604083850312156139b4576139b3612ca2565b5b60006139c285828601612ccd565b925050602083013567ffffffffffffffff8111156139e3576139e2612ca7565b5b6139ef8582860161396f565b9150509250929050565b7f4e487b7100000000000000000000000000000000000000000000000000000000600052603260045260246000fd5b7f4e487b7100000000000000000000000000000000000000000000000000000000600052602260045260246000fd5b60006002820490506001821680613a6f57607f821691505b602082108103613a8257613a81613a28565b5b50919050565b600081905092915050565b60008190508160005260206000209050919050565b60008154613ab581613a57565b613abf8186613a88565b94506001821660008114613ada5760018114613aef57613b22565b60ff1983168652811515820286019350613b22565b613af885613a93565b60005b83811015613b1a57815481890152600182019150602081019050613afb565b838801955050505b50505092915050565b6000613b378284613aa8565b915081905092915050565b7f4e487b7100000000000000000000000000000000000000000000000000000000600052601160045260246000fd5b6000613b7c82612cac565b91507fffffffffffffffffffffffffffffffffffffffffffffffffffffffffffffffff8203613bae57613bad613b42565b5b600182019050919050565b6000613bc482612cac565b9150613bcf83612cac565b9250828201905080821115613be757613be6613b42565b5b92915050565b60006020601f8301049050919050565b600082821b905092915050565b600060088302613c3a7fffffffffffffffffffffffffffffffffffffffffffffffffffffffffffffffff82613bfd565b613c448683613bfd565b95508019841693508086168417925050509392505050565b6000819050919050565b6000613c81613c7c613c7784612cac565b613c5c565b612cac565b9050919050565b6000819050919050565b613c9b83613c66565b613caf613ca782613c88565b848454613c0a565b825550505050565b600090565b613cc4613cb7565b613ccf818484613c92565b505050565b5b81811015613cf357613ce8600082613cbc565b600181019050613cd5565b5050565b601f821115613d3857613d0981613a93565b613d1284613bed565b81016020851015613d21578190505b613d35613d2d85613bed565b830182613cd4565b50505b505050565b600082821c905092915050565b6000613d5b60001984600802613d3d565b1980831691505092915050565b6000613d748383613d4a565b9150826002028217905092915050565b613d8d82612dac565b67ffffffffffffffff811115613da657613da5613120565b5b613db08254613a57565b613dbb828285613cf7565b600060209050601f831160018114613dee5760008415613ddc578287015190505b613de68582613d68565b865550613e4e565b601f198416613dfc86613a93565b60005b82811015613e2457848901518255600182019150602085019450602081019050613dff565b86831015613e415784890151613e3d601f891682613d4a565b8355505b6001600288020188555050505b505050505050565b7f4e6f204163636573730000000000000000000000000000000000000000000000600082015250565b6000613e8c6009836133e2565b9150613e9782613e56565b602082019050919050565b60006020820190508181036000830152613ebb81613e7f565b9050919050565b6000613ecd82612dac565b613ed78185613a88565b9350613ee7818560208601612dc8565b80840191505092915050565b6000613eff8284613ec2565b915081905092915050565b6000613f1582612cac565b9150613f2083612cac565b9250828203905081811115613f3857613f37613b42565b5b92915050565b7f57726f6e67206469726563746f72792049440000000000000000000000000000600082015250565b6000613f746012836133e2565b9150613f7f82613f3e565b602082019050919050565b60006020820190508181036000830152613fa381613f67565b9050919050565b7f4e6f2073756368206469726563746f7279000000000000000000000000000000600082015250565b6000613fe06011836133e2565b9150613feb82613faa565b602082019050919050565b6000602082019050818103600083015261400f81613fd3565b9050919050565b60006140228286613ec2565b915061402e8285613ec2565b915061403a8284613ec2565b9150819050949350505050565b60008154905061405681613a57565b9050919050565b60008190508160005260206000209050919050565b818103614080575050614158565b61408982614047565b67ffffffffffffffff8111156140a2576140a1613120565b5b6140ac8254613a57565b6140b7828285613cf7565b6000601f8311600181146140e657600084156140d4578287015490505b6140de8582613d68565b865550614151565b601f1984166140f48761405d565b96506140ff86613a93565b60005b8281101561412757848901548255600182019150600185019450602081019050614102565b868310156141445784890154614140601f891682613d4a565b8355505b6001600288020188555050505b5050505050505b565b7f4e487b7100000000000000000000000000000000000000000000000000000000600052603160045260246000fd5b600061419482612cac565b915061419f83612cac565b9250817fffffffffffffffffffffffffffffffffffffffffffffffffffffffffffffffff04831182151516156141d8576141d7613b42565b5b828202905092915050565b60006141ee82612cac565b91506000820361420157614200613b42565b5b600182039050919050565b7f537472696e67733a20686578206c656e67746820696e73756666696369656e74600082015250565b60006142426020836133e2565b915061424d8261420c565b602082019050919050565b6000602082019050818103600083015261427181614235565b9050919050565b7f4e487b7100000000000000000000000000000000000000000000000000000000600052601260045260246000fdfea26469706673582212204b604f29e55c5d7af7f934984c1db36aeb421119641e7e6214b67c8076c4453d64736f6c63430008100033",
  "linkReferences": {},
  "deployedLinkReferences": {}
}